{
	"CarbonCreditBatch.sol": {
		"CarbonCredit": {
			"abi": [
				{
					"inputs": [
						{
							"internalType": "address",
							"name": "_companyRegistryAddress",
							"type": "address"
						}
					],
					"stateMutability": "nonpayable",
					"type": "constructor"
				},
				{
					"anonymous": false,
					"inputs": [
						{
							"indexed": true,
							"internalType": "uint256",
							"name": "creditId",
							"type": "uint256"
						},
						{
							"indexed": true,
							"internalType": "address",
							"name": "company",
							"type": "address"
						}
					],
					"name": "CreditIssued",
					"type": "event"
				},
				{
					"anonymous": false,
					"inputs": [
						{
							"indexed": true,
							"internalType": "uint256",
							"name": "creditId",
							"type": "uint256"
						},
						{
							"indexed": true,
							"internalType": "address",
							"name": "owner",
							"type": "address"
						}
					],
					"name": "CreditRetired",
					"type": "event"
				},
				{
					"anonymous": false,
					"inputs": [
						{
							"indexed": true,
							"internalType": "uint256",
							"name": "creditId",
							"type": "uint256"
						},
						{
							"indexed": true,
							"internalType": "address",
							"name": "from",
							"type": "address"
						},
						{
							"indexed": true,
							"internalType": "address",
							"name": "to",
							"type": "address"
						}
					],
					"name": "CreditTransferred",
					"type": "event"
				},
				{
					"inputs": [],
					"name": "admin",
					"outputs": [
						{
							"internalType": "address",
							"name": "",
							"type": "address"
						}
					],
					"stateMutability": "view",
					"type": "function"
				},
				{
					"inputs": [],
					"name": "companyRegistry",
					"outputs": [
						{
							"internalType": "contract ICompanyRegistry",
							"name": "",
							"type": "address"
						}
					],
					"stateMutability": "view",
					"type": "function"
				},
				{
					"inputs": [],
					"name": "creditIdCounter",
					"outputs": [
						{
							"internalType": "uint256",
							"name": "",
							"type": "uint256"
						}
					],
					"stateMutability": "view",
					"type": "function"
				},
				{
					"inputs": [
						{
							"internalType": "uint256",
							"name": "",
							"type": "uint256"
						}
					],
					"name": "credits",
					"outputs": [
						{
							"internalType": "uint256",
							"name": "id",
							"type": "uint256"
						},
						{
							"internalType": "address",
							"name": "owner",
							"type": "address"
						},
						{
							"internalType": "enum CarbonCredit.CreditStatus",
							"name": "status",
							"type": "uint8"
						}
					],
					"stateMutability": "view",
					"type": "function"
				},
				{
					"inputs": [
						{
							"internalType": "uint256",
							"name": "creditId",
							"type": "uint256"
						}
					],
					"name": "getCredit",
					"outputs": [
						{
							"internalType": "uint256",
							"name": "",
							"type": "uint256"
						},
						{
							"internalType": "address",
							"name": "",
							"type": "address"
						},
						{
							"internalType": "enum CarbonCredit.CreditStatus",
							"name": "",
							"type": "uint8"
						}
					],
					"stateMutability": "view",
					"type": "function"
				},
				{
					"inputs": [
						{
							"internalType": "address",
							"name": "company",
							"type": "address"
						}
					],
					"name": "issueCredit",
					"outputs": [],
					"stateMutability": "nonpayable",
					"type": "function"
				},
				{
					"inputs": [
						{
							"internalType": "address",
							"name": "company",
							"type": "address"
						},
						{
							"internalType": "uint256",
							"name": "amount",
							"type": "uint256"
						}
					],
					"name": "issueCredits",
					"outputs": [],
					"stateMutability": "nonpayable",
					"type": "function"
				},
				{
					"inputs": [
						{
							"internalType": "uint256",
							"name": "creditId",
							"type": "uint256"
						}
					],
					"name": "retireCredit",
					"outputs": [],
					"stateMutability": "nonpayable",
					"type": "function"
				},
				{
					"inputs": [
						{
							"internalType": "uint256",
							"name": "creditId",
							"type": "uint256"
						},
						{
							"internalType": "address",
							"name": "to",
							"type": "address"
						}
					],
					"name": "transferCredit",
					"outputs": [],
					"stateMutability": "nonpayable",
					"type": "function"
				}
			],
			"devdoc": {
				"kind": "dev",
				"methods": {},
				"version": 1
			},
			"evm": {
				"assembly": "    /* \"CarbonCreditBatch.sol\":221:3877  contract CarbonCredit {... */\n  mstore(0x40, 0x80)\n    /* \"CarbonCreditBatch.sol\":1544:1696  constructor(address _companyRegistryAddress) {... */\n  callvalue\n  dup1\n  iszero\n  tag_1\n  jumpi\n  revert(0x00, 0x00)\ntag_1:\n  pop\n  mload(0x40)\n  sub(codesize, bytecodeSize)\n  dup1\n  bytecodeSize\n  dup4\n  codecopy\n  dup2\n  dup2\n  add\n  0x40\n  mstore\n  dup2\n  add\n  swap1\n  tag_2\n  swap2\n  swap1\n  tag_3\n  jump\t// in\ntag_2:\n    /* \"CarbonCreditBatch.sol\":1608:1618  msg.sender */\n  caller\n    /* \"CarbonCreditBatch.sol\":1600:1605  admin */\n  0x00\n  0x00\n    /* \"CarbonCreditBatch.sol\":1600:1618  admin = msg.sender */\n  0x0100\n  exp\n  dup2\n  sload\n  dup2\n  0xffffffffffffffffffffffffffffffffffffffff\n  mul\n  not\n  and\n  swap1\n  dup4\n  0xffffffffffffffffffffffffffffffffffffffff\n  and\n  mul\n  or\n  swap1\n  sstore\n  pop\n    /* \"CarbonCreditBatch.sol\":1664:1687  _companyRegistryAddress */\n  dup1\n    /* \"CarbonCreditBatch.sol\":1629:1644  companyRegistry */\n  0x01\n  0x00\n    /* \"CarbonCreditBatch.sol\":1629:1688  companyRegistry = ICompanyRegistry(_companyRegistryAddress) */\n  0x0100\n  exp\n  dup2\n  sload\n  dup2\n  0xffffffffffffffffffffffffffffffffffffffff\n  mul\n  not\n  and\n  swap1\n  dup4\n  0xffffffffffffffffffffffffffffffffffffffff\n  and\n  mul\n  or\n  swap1\n  sstore\n  pop\n    /* \"CarbonCreditBatch.sol\":1544:1696  constructor(address _companyRegistryAddress) {... */\n  pop\n    /* \"CarbonCreditBatch.sol\":221:3877  contract CarbonCredit {... */\n  jump(tag_6)\n    /* \"#utility.yul\":88:205   */\ntag_8:\n    /* \"#utility.yul\":197:198   */\n  0x00\n    /* \"#utility.yul\":194:195   */\n  0x00\n    /* \"#utility.yul\":187:199   */\n  revert\n    /* \"#utility.yul\":334:460   */\ntag_10:\n    /* \"#utility.yul\":371:378   */\n  0x00\n    /* \"#utility.yul\":411:453   */\n  0xffffffffffffffffffffffffffffffffffffffff\n    /* \"#utility.yul\":404:409   */\n  dup3\n    /* \"#utility.yul\":400:454   */\n  and\n    /* \"#utility.yul\":389:454   */\n  swap1\n  pop\n    /* \"#utility.yul\":334:460   */\n  swap2\n  swap1\n  pop\n  jump\t// out\n    /* \"#utility.yul\":466:562   */\ntag_11:\n    /* \"#utility.yul\":503:510   */\n  0x00\n    /* \"#utility.yul\":532:556   */\n  tag_20\n    /* \"#utility.yul\":550:555   */\n  dup3\n    /* \"#utility.yul\":532:556   */\n  tag_10\n  jump\t// in\ntag_20:\n    /* \"#utility.yul\":521:556   */\n  swap1\n  pop\n    /* \"#utility.yul\":466:562   */\n  swap2\n  swap1\n  pop\n  jump\t// out\n    /* \"#utility.yul\":568:690   */\ntag_12:\n    /* \"#utility.yul\":641:665   */\n  tag_22\n    /* \"#utility.yul\":659:664   */\n  dup2\n    /* \"#utility.yul\":641:665   */\n  tag_11\n  jump\t// in\ntag_22:\n    /* \"#utility.yul\":634:639   */\n  dup2\n    /* \"#utility.yul\":631:666   */\n  eq\n    /* \"#utility.yul\":621:684   */\n  tag_23\n  jumpi\n    /* \"#utility.yul\":680:681   */\n  0x00\n    /* \"#utility.yul\":677:678   */\n  0x00\n    /* \"#utility.yul\":670:682   */\n  revert\n    /* \"#utility.yul\":621:684   */\ntag_23:\n    /* \"#utility.yul\":568:690   */\n  pop\n  jump\t// out\n    /* \"#utility.yul\":696:839   */\ntag_13:\n    /* \"#utility.yul\":753:758   */\n  0x00\n    /* \"#utility.yul\":784:790   */\n  dup2\n    /* \"#utility.yul\":778:791   */\n  mload\n    /* \"#utility.yul\":769:791   */\n  swap1\n  pop\n    /* \"#utility.yul\":800:833   */\n  tag_25\n    /* \"#utility.yul\":827:832   */\n  dup2\n    /* \"#utility.yul\":800:833   */\n  tag_12\n  jump\t// in\ntag_25:\n    /* \"#utility.yul\":696:839   */\n  swap3\n  swap2\n  pop\n  pop\n  jump\t// out\n    /* \"#utility.yul\":845:1196   */\ntag_3:\n    /* \"#utility.yul\":915:921   */\n  0x00\n    /* \"#utility.yul\":964:966   */\n  0x20\n    /* \"#utility.yul\":952:961   */\n  dup3\n    /* \"#utility.yul\":943:950   */\n  dup5\n    /* \"#utility.yul\":939:962   */\n  sub\n    /* \"#utility.yul\":935:967   */\n  slt\n    /* \"#utility.yul\":932:1051   */\n  iszero\n  tag_27\n  jumpi\n    /* \"#utility.yul\":970:1049   */\n  tag_28\n  tag_8\n  jump\t// in\ntag_28:\n    /* \"#utility.yul\":932:1051   */\ntag_27:\n    /* \"#utility.yul\":1090:1091   */\n  0x00\n    /* \"#utility.yul\":1115:1179   */\n  tag_29\n    /* \"#utility.yul\":1171:1178   */\n  dup5\n    /* \"#utility.yul\":1162:1168   */\n  dup3\n    /* \"#utility.yul\":1151:1160   */\n  dup6\n    /* \"#utility.yul\":1147:1169   */\n  add\n    /* \"#utility.yul\":1115:1179   */\n  tag_13\n  jump\t// in\ntag_29:\n    /* \"#utility.yul\":1105:1179   */\n  swap2\n  pop\n    /* \"#utility.yul\":1061:1189   */\n  pop\n    /* \"#utility.yul\":845:1196   */\n  swap3\n  swap2\n  pop\n  pop\n  jump\t// out\n    /* \"CarbonCreditBatch.sol\":221:3877  contract CarbonCredit {... */\ntag_6:\n  dataSize(sub_0)\n  dup1\n  dataOffset(sub_0)\n  0x00\n  codecopy\n  0x00\n  return\nstop\n\nsub_0: assembly {\n        /* \"CarbonCreditBatch.sol\":221:3877  contract CarbonCredit {... */\n      mstore(0x40, 0x80)\n      callvalue\n      dup1\n      iszero\n      tag_1\n      jumpi\n      revert(0x00, 0x00)\n    tag_1:\n      pop\n      jumpi(tag_2, lt(calldatasize, 0x04))\n      shr(0xe0, calldataload(0x00))\n      dup1\n      0xae2036c1\n      gt\n      tag_12\n      jumpi\n      dup1\n      0xae2036c1\n      eq\n      tag_7\n      jumpi\n      dup1\n      0xc51aba2b\n      eq\n      tag_8\n      jumpi\n      dup1\n      0xda304e4d\n      eq\n      tag_9\n      jumpi\n      dup1\n      0xeb899eeb\n      eq\n      tag_10\n      jumpi\n      dup1\n      0xf851a440\n      eq\n      tag_11\n      jumpi\n      jump(tag_2)\n    tag_12:\n      dup1\n      0x036a1c22\n      eq\n      tag_3\n      jumpi\n      dup1\n      0x074240ea\n      eq\n      tag_4\n      jumpi\n      dup1\n      0x0df3a1e0\n      eq\n      tag_5\n      jumpi\n      dup1\n      0x31b00f7a\n      eq\n      tag_6\n      jumpi\n    tag_2:\n      revert(0x00, 0x00)\n        /* \"CarbonCreditBatch.sol\":735:776  mapping(uint256 => Credit) public credits */\n    tag_3:\n      tag_13\n      0x04\n      dup1\n      calldatasize\n      sub\n      dup2\n      add\n      swap1\n      tag_14\n      swap2\n      swap1\n      tag_15\n      jump\t// in\n    tag_14:\n      tag_16\n      jump\t// in\n    tag_13:\n      mload(0x40)\n      tag_17\n      swap4\n      swap3\n      swap2\n      swap1\n      tag_18\n      jump\t// in\n    tag_17:\n      mload(0x40)\n      dup1\n      swap2\n      sub\n      swap1\n      return\n        /* \"CarbonCreditBatch.sol\":664:694  uint256 public creditIdCounter */\n    tag_4:\n      tag_19\n      tag_20\n      jump\t// in\n    tag_19:\n      mload(0x40)\n      tag_21\n      swap2\n      swap1\n      tag_22\n      jump\t// in\n    tag_21:\n      mload(0x40)\n      dup1\n      swap2\n      sub\n      swap1\n      return\n        /* \"CarbonCreditBatch.sol\":2741:3196  function transferCredit(uint256 creditId, address to)... */\n    tag_5:\n      tag_23\n      0x04\n      dup1\n      calldatasize\n      sub\n      dup2\n      add\n      swap1\n      tag_24\n      swap2\n      swap1\n      tag_25\n      jump\t// in\n    tag_24:\n      tag_26\n      jump\t// in\n    tag_23:\n      stop\n        /* \"CarbonCreditBatch.sol\":2008:2360  function issueCredits(address company, uint256 amount)... */\n    tag_6:\n      tag_27\n      0x04\n      dup1\n      calldatasize\n      sub\n      dup2\n      add\n      swap1\n      tag_28\n      swap2\n      swap1\n      tag_29\n      jump\t// in\n    tag_28:\n      tag_30\n      jump\t// in\n    tag_27:\n      stop\n        /* \"CarbonCreditBatch.sol\":1791:1948  function issueCredit(address company)... */\n    tag_7:\n      tag_31\n      0x04\n      dup1\n      calldatasize\n      sub\n      dup2\n      add\n      swap1\n      tag_32\n      swap2\n      swap1\n      tag_33\n      jump\t// in\n    tag_32:\n      tag_34\n      jump\t// in\n    tag_31:\n      stop\n        /* \"CarbonCreditBatch.sol\":351:390  ICompanyRegistry public companyRegistry */\n    tag_8:\n      tag_35\n      tag_36\n      jump\t// in\n    tag_35:\n      mload(0x40)\n      tag_37\n      swap2\n      swap1\n      tag_38\n      jump\t// in\n    tag_37:\n      mload(0x40)\n      dup1\n      swap2\n      sub\n      swap1\n      return\n        /* \"CarbonCreditBatch.sol\":3633:3874  function getCredit(uint256 creditId)... */\n    tag_9:\n      tag_39\n      0x04\n      dup1\n      calldatasize\n      sub\n      dup2\n      add\n      swap1\n      tag_40\n      swap2\n      swap1\n      tag_15\n      jump\t// in\n    tag_40:\n      tag_41\n      jump\t// in\n    tag_39:\n      mload(0x40)\n      tag_42\n      swap4\n      swap3\n      swap2\n      swap1\n      tag_18\n      jump\t// in\n    tag_42:\n      mload(0x40)\n      dup1\n      swap2\n      sub\n      swap1\n      return\n        /* \"CarbonCreditBatch.sol\":3245:3600  function retireCredit(uint256 creditId) external {... */\n    tag_10:\n      tag_43\n      0x04\n      dup1\n      calldatasize\n      sub\n      dup2\n      add\n      swap1\n      tag_44\n      swap2\n      swap1\n      tag_15\n      jump\t// in\n    tag_44:\n      tag_45\n      jump\t// in\n    tag_43:\n      stop\n        /* \"CarbonCreditBatch.sol\":282:302  address public admin */\n    tag_11:\n      tag_46\n      tag_47\n      jump\t// in\n    tag_46:\n      mload(0x40)\n      tag_48\n      swap2\n      swap1\n      tag_49\n      jump\t// in\n    tag_48:\n      mload(0x40)\n      dup1\n      swap2\n      sub\n      swap1\n      return\n        /* \"CarbonCreditBatch.sol\":735:776  mapping(uint256 => Credit) public credits */\n    tag_16:\n      mstore(0x20, 0x03)\n      dup1\n      0x00\n      mstore\n      keccak256(0x00, 0x40)\n      0x00\n      swap2\n      pop\n      swap1\n      pop\n      dup1\n      0x00\n      add\n      sload\n      swap1\n      dup1\n      0x01\n      add\n      0x00\n      swap1\n      sload\n      swap1\n      0x0100\n      exp\n      swap1\n      div\n      0xffffffffffffffffffffffffffffffffffffffff\n      and\n      swap1\n      dup1\n      0x01\n      add\n      0x14\n      swap1\n      sload\n      swap1\n      0x0100\n      exp\n      swap1\n      div\n      0xff\n      and\n      swap1\n      pop\n      dup4\n      jump\t// out\n        /* \"CarbonCreditBatch.sol\":664:694  uint256 public creditIdCounter */\n    tag_20:\n      sload(0x02)\n      dup2\n      jump\t// out\n        /* \"CarbonCreditBatch.sol\":2741:3196  function transferCredit(uint256 creditId, address to)... */\n    tag_26:\n        /* \"CarbonCreditBatch.sol\":2842:2844  to */\n      dup1\n        /* \"CarbonCreditBatch.sol\":1368:1383  companyRegistry */\n      0x01\n      0x00\n      swap1\n      sload\n      swap1\n      0x0100\n      exp\n      swap1\n      div\n      0xffffffffffffffffffffffffffffffffffffffff\n      and\n        /* \"CarbonCreditBatch.sol\":1368:1401  companyRegistry.isCompanyVerified */\n      0xffffffffffffffffffffffffffffffffffffffff\n      and\n      0xbfc2defd\n        /* \"CarbonCreditBatch.sol\":1402:1409  company */\n      dup3\n        /* \"CarbonCreditBatch.sol\":1368:1410  companyRegistry.isCompanyVerified(company) */\n      mload(0x40)\n      dup3\n      0xffffffff\n      and\n      0xe0\n      shl\n      dup2\n      mstore\n      0x04\n      add\n      tag_51\n      swap2\n      swap1\n      tag_49\n      jump\t// in\n    tag_51:\n      0x20\n      mload(0x40)\n      dup1\n      dup4\n      sub\n      dup2\n      dup7\n      gas\n      staticcall\n      iszero\n      dup1\n      iszero\n      tag_53\n      jumpi\n      returndatacopy(0x00, 0x00, returndatasize)\n      revert(0x00, returndatasize)\n    tag_53:\n      pop\n      pop\n      pop\n      pop\n      mload(0x40)\n      returndatasize\n      not(0x1f)\n      0x1f\n      dup3\n      add\n      and\n      dup3\n      add\n      dup1\n      0x40\n      mstore\n      pop\n      dup2\n      add\n      swap1\n      tag_54\n      swap2\n      swap1\n      tag_55\n      jump\t// in\n    tag_54:\n        /* \"CarbonCreditBatch.sol\":1346:1458  require(... */\n      tag_56\n      jumpi\n      mload(0x40)\n      0x08c379a000000000000000000000000000000000000000000000000000000000\n      dup2\n      mstore\n      0x04\n      add\n      tag_57\n      swap1\n      tag_58\n      jump\t// in\n    tag_57:\n      mload(0x40)\n      dup1\n      swap2\n      sub\n      swap1\n      revert\n    tag_56:\n        /* \"CarbonCreditBatch.sol\":2862:2883  Credit storage credit */\n      0x00\n        /* \"CarbonCreditBatch.sol\":2886:2893  credits */\n      0x03\n        /* \"CarbonCreditBatch.sol\":2886:2903  credits[creditId] */\n      0x00\n        /* \"CarbonCreditBatch.sol\":2894:2902  creditId */\n      dup6\n        /* \"CarbonCreditBatch.sol\":2886:2903  credits[creditId] */\n      dup2\n      mstore\n      0x20\n      add\n      swap1\n      dup2\n      mstore\n      0x20\n      add\n      0x00\n      keccak256\n        /* \"CarbonCreditBatch.sol\":2862:2903  Credit storage credit = credits[creditId] */\n      swap1\n      pop\n        /* \"CarbonCreditBatch.sol\":2940:2950  msg.sender */\n      caller\n        /* \"CarbonCreditBatch.sol\":2924:2950  credit.owner == msg.sender */\n      0xffffffffffffffffffffffffffffffffffffffff\n      and\n        /* \"CarbonCreditBatch.sol\":2924:2930  credit */\n      dup2\n        /* \"CarbonCreditBatch.sol\":2924:2936  credit.owner */\n      0x01\n      add\n      0x00\n      swap1\n      sload\n      swap1\n      0x0100\n      exp\n      swap1\n      div\n      0xffffffffffffffffffffffffffffffffffffffff\n      and\n        /* \"CarbonCreditBatch.sol\":2924:2950  credit.owner == msg.sender */\n      0xffffffffffffffffffffffffffffffffffffffff\n      and\n      eq\n        /* \"CarbonCreditBatch.sol\":2916:2971  require(credit.owner == msg.sender, \"Not credit owner\") */\n      tag_60\n      jumpi\n      mload(0x40)\n      0x08c379a000000000000000000000000000000000000000000000000000000000\n      dup2\n      mstore\n      0x04\n      add\n      tag_61\n      swap1\n      tag_62\n      jump\t// in\n    tag_61:\n      mload(0x40)\n      dup1\n      swap2\n      sub\n      swap1\n      revert\n    tag_60:\n        /* \"CarbonCreditBatch.sol\":3007:3027  CreditStatus.Retired */\n      0x02\n        /* \"CarbonCreditBatch.sol\":2990:3027  credit.status != CreditStatus.Retired */\n      dup1\n      dup2\n      gt\n      iszero\n      tag_63\n      jumpi\n      tag_64\n      tag_65\n      jump\t// in\n    tag_64:\n    tag_63:\n        /* \"CarbonCreditBatch.sol\":2990:2996  credit */\n      dup2\n        /* \"CarbonCreditBatch.sol\":2990:3003  credit.status */\n      0x01\n      add\n      0x14\n      swap1\n      sload\n      swap1\n      0x0100\n      exp\n      swap1\n      div\n      0xff\n      and\n        /* \"CarbonCreditBatch.sol\":2990:3027  credit.status != CreditStatus.Retired */\n      0x02\n      dup2\n      gt\n      iszero\n      tag_66\n      jumpi\n      tag_67\n      tag_65\n      jump\t// in\n    tag_67:\n    tag_66:\n      sub\n        /* \"CarbonCreditBatch.sol\":2982:3046  require(credit.status != CreditStatus.Retired, \"Credit retired\") */\n      tag_68\n      jumpi\n      mload(0x40)\n      0x08c379a000000000000000000000000000000000000000000000000000000000\n      dup2\n      mstore\n      0x04\n      add\n      tag_69\n      swap1\n      tag_70\n      jump\t// in\n    tag_69:\n      mload(0x40)\n      dup1\n      swap2\n      sub\n      swap1\n      revert\n    tag_68:\n        /* \"CarbonCreditBatch.sol\":3074:3076  to */\n      dup3\n        /* \"CarbonCreditBatch.sol\":3059:3065  credit */\n      dup2\n        /* \"CarbonCreditBatch.sol\":3059:3071  credit.owner */\n      0x01\n      add\n      0x00\n        /* \"CarbonCreditBatch.sol\":3059:3076  credit.owner = to */\n      0x0100\n      exp\n      dup2\n      sload\n      dup2\n      0xffffffffffffffffffffffffffffffffffffffff\n      mul\n      not\n      and\n      swap1\n      dup4\n      0xffffffffffffffffffffffffffffffffffffffff\n      and\n      mul\n      or\n      swap1\n      sstore\n      pop\n        /* \"CarbonCreditBatch.sol\":3103:3127  CreditStatus.Transferred */\n      0x01\n        /* \"CarbonCreditBatch.sol\":3087:3093  credit */\n      dup2\n        /* \"CarbonCreditBatch.sol\":3087:3100  credit.status */\n      0x01\n      add\n      0x14\n        /* \"CarbonCreditBatch.sol\":3087:3127  credit.status = CreditStatus.Transferred */\n      0x0100\n      exp\n      dup2\n      sload\n      dup2\n      0xff\n      mul\n      not\n      and\n      swap1\n      dup4\n      0x02\n      dup2\n      gt\n      iszero\n      tag_71\n      jumpi\n      tag_72\n      tag_65\n      jump\t// in\n    tag_72:\n    tag_71:\n      mul\n      or\n      swap1\n      sstore\n      pop\n        /* \"CarbonCreditBatch.sol\":3185:3187  to */\n      dup3\n        /* \"CarbonCreditBatch.sol\":3145:3188  CreditTransferred(creditId, msg.sender, to) */\n      0xffffffffffffffffffffffffffffffffffffffff\n      and\n        /* \"CarbonCreditBatch.sol\":3173:3183  msg.sender */\n      caller\n        /* \"CarbonCreditBatch.sol\":3145:3188  CreditTransferred(creditId, msg.sender, to) */\n      0xffffffffffffffffffffffffffffffffffffffff\n      and\n        /* \"CarbonCreditBatch.sol\":3163:3171  creditId */\n      dup6\n        /* \"CarbonCreditBatch.sol\":3145:3188  CreditTransferred(creditId, msg.sender, to) */\n      0x7498bf43d4148a03a165d093fcadc813f1a344a5f983812a2777c01f4dc2f0d6\n      mload(0x40)\n      mload(0x40)\n      dup1\n      swap2\n      sub\n      swap1\n      log4\n        /* \"CarbonCreditBatch.sol\":2851:3196  {... */\n      pop\n        /* \"CarbonCreditBatch.sol\":2741:3196  function transferCredit(uint256 creditId, address to)... */\n      pop\n      pop\n      pop\n      jump\t// out\n        /* \"CarbonCreditBatch.sol\":2008:2360  function issueCredits(address company, uint256 amount)... */\n    tag_30:\n        /* \"CarbonCreditBatch.sol\":1233:1238  admin */\n      0x00\n      0x00\n      swap1\n      sload\n      swap1\n      0x0100\n      exp\n      swap1\n      div\n      0xffffffffffffffffffffffffffffffffffffffff\n      and\n        /* \"CarbonCreditBatch.sol\":1219:1238  msg.sender == admin */\n      0xffffffffffffffffffffffffffffffffffffffff\n      and\n        /* \"CarbonCreditBatch.sol\":1219:1229  msg.sender */\n      caller\n        /* \"CarbonCreditBatch.sol\":1219:1238  msg.sender == admin */\n      0xffffffffffffffffffffffffffffffffffffffff\n      and\n      eq\n        /* \"CarbonCreditBatch.sol\":1211:1261  require(msg.sender == admin, \"Only admin allowed\") */\n      tag_74\n      jumpi\n      mload(0x40)\n      0x08c379a000000000000000000000000000000000000000000000000000000000\n      dup2\n      mstore\n      0x04\n      add\n      tag_75\n      swap1\n      tag_76\n      jump\t// in\n    tag_75:\n      mload(0x40)\n      dup1\n      swap2\n      sub\n      swap1\n      revert\n    tag_74:\n        /* \"CarbonCreditBatch.sol\":2129:2136  company */\n      dup2\n        /* \"CarbonCreditBatch.sol\":1368:1383  companyRegistry */\n      0x01\n      0x00\n      swap1\n      sload\n      swap1\n      0x0100\n      exp\n      swap1\n      div\n      0xffffffffffffffffffffffffffffffffffffffff\n      and\n        /* \"CarbonCreditBatch.sol\":1368:1401  companyRegistry.isCompanyVerified */\n      0xffffffffffffffffffffffffffffffffffffffff\n      and\n      0xbfc2defd\n        /* \"CarbonCreditBatch.sol\":1402:1409  company */\n      dup3\n        /* \"CarbonCreditBatch.sol\":1368:1410  companyRegistry.isCompanyVerified(company) */\n      mload(0x40)\n      dup3\n      0xffffffff\n      and\n      0xe0\n      shl\n      dup2\n      mstore\n      0x04\n      add\n      tag_78\n      swap2\n      swap1\n      tag_49\n      jump\t// in\n    tag_78:\n      0x20\n      mload(0x40)\n      dup1\n      dup4\n      sub\n      dup2\n      dup7\n      gas\n      staticcall\n      iszero\n      dup1\n      iszero\n      tag_80\n      jumpi\n      returndatacopy(0x00, 0x00, returndatasize)\n      revert(0x00, returndatasize)\n    tag_80:\n      pop\n      pop\n      pop\n      pop\n      mload(0x40)\n      returndatasize\n      not(0x1f)\n      0x1f\n      dup3\n      add\n      and\n      dup3\n      add\n      dup1\n      0x40\n      mstore\n      pop\n      dup2\n      add\n      swap1\n      tag_81\n      swap2\n      swap1\n      tag_55\n      jump\t// in\n    tag_81:\n        /* \"CarbonCreditBatch.sol\":1346:1458  require(... */\n      tag_82\n      jumpi\n      mload(0x40)\n      0x08c379a000000000000000000000000000000000000000000000000000000000\n      dup2\n      mstore\n      0x04\n      add\n      tag_83\n      swap1\n      tag_58\n      jump\t// in\n    tag_83:\n      mload(0x40)\n      dup1\n      swap2\n      sub\n      swap1\n      revert\n    tag_82:\n        /* \"CarbonCreditBatch.sol\":2171:2172  0 */\n      0x00\n        /* \"CarbonCreditBatch.sol\":2162:2168  amount */\n      dup3\n        /* \"CarbonCreditBatch.sol\":2162:2172  amount > 0 */\n      gt\n        /* \"CarbonCreditBatch.sol\":2154:2195  require(amount > 0, \"Amount must be > 0\") */\n      tag_85\n      jumpi\n      mload(0x40)\n      0x08c379a000000000000000000000000000000000000000000000000000000000\n      dup2\n      mstore\n      0x04\n      add\n      tag_86\n      swap1\n      tag_87\n      jump\t// in\n    tag_86:\n      mload(0x40)\n      dup1\n      swap2\n      sub\n      swap1\n      revert\n    tag_85:\n        /* \"CarbonCreditBatch.sol\":2224:2227  100 */\n      0x64\n        /* \"CarbonCreditBatch.sol\":2214:2220  amount */\n      dup3\n        /* \"CarbonCreditBatch.sol\":2214:2227  amount <= 100 */\n      gt\n      iszero\n        /* \"CarbonCreditBatch.sol\":2206:2256  require(amount <= 100, \"Too many credits at once\") */\n      tag_88\n      jumpi\n      mload(0x40)\n      0x08c379a000000000000000000000000000000000000000000000000000000000\n      dup2\n      mstore\n      0x04\n      add\n      tag_89\n      swap1\n      tag_90\n      jump\t// in\n    tag_89:\n      mload(0x40)\n      dup1\n      swap2\n      sub\n      swap1\n      revert\n    tag_88:\n        /* \"CarbonCreditBatch.sol\":2274:2283  uint256 i */\n      0x00\n        /* \"CarbonCreditBatch.sol\":2286:2287  0 */\n      0x00\n        /* \"CarbonCreditBatch.sol\":2274:2287  uint256 i = 0 */\n      swap1\n      pop\n        /* \"CarbonCreditBatch.sol\":2269:2353  for (uint256 i = 0; i < amount; i++) {... */\n    tag_91:\n        /* \"CarbonCreditBatch.sol\":2293:2299  amount */\n      dup3\n        /* \"CarbonCreditBatch.sol\":2289:2290  i */\n      dup2\n        /* \"CarbonCreditBatch.sol\":2289:2299  i < amount */\n      lt\n        /* \"CarbonCreditBatch.sol\":2269:2353  for (uint256 i = 0; i < amount; i++) {... */\n      iszero\n      tag_92\n      jumpi\n        /* \"CarbonCreditBatch.sol\":2321:2341  _mintCredit(company) */\n      tag_94\n        /* \"CarbonCreditBatch.sol\":2333:2340  company */\n      dup5\n        /* \"CarbonCreditBatch.sol\":2321:2332  _mintCredit */\n      tag_95\n        /* \"CarbonCreditBatch.sol\":2321:2341  _mintCredit(company) */\n      jump\t// in\n    tag_94:\n        /* \"CarbonCreditBatch.sol\":2301:2304  i++ */\n      dup1\n      dup1\n      0x01\n      add\n      swap2\n      pop\n      pop\n        /* \"CarbonCreditBatch.sol\":2269:2353  for (uint256 i = 0; i < amount; i++) {... */\n      jump(tag_91)\n    tag_92:\n      pop\n        /* \"CarbonCreditBatch.sol\":1272:1273  _ */\n      pop\n        /* \"CarbonCreditBatch.sol\":2008:2360  function issueCredits(address company, uint256 amount)... */\n      pop\n      pop\n      jump\t// out\n        /* \"CarbonCreditBatch.sol\":1791:1948  function issueCredit(address company)... */\n    tag_34:\n        /* \"CarbonCreditBatch.sol\":1233:1238  admin */\n      0x00\n      0x00\n      swap1\n      sload\n      swap1\n      0x0100\n      exp\n      swap1\n      div\n      0xffffffffffffffffffffffffffffffffffffffff\n      and\n        /* \"CarbonCreditBatch.sol\":1219:1238  msg.sender == admin */\n      0xffffffffffffffffffffffffffffffffffffffff\n      and\n        /* \"CarbonCreditBatch.sol\":1219:1229  msg.sender */\n      caller\n        /* \"CarbonCreditBatch.sol\":1219:1238  msg.sender == admin */\n      0xffffffffffffffffffffffffffffffffffffffff\n      and\n      eq\n        /* \"CarbonCreditBatch.sol\":1211:1261  require(msg.sender == admin, \"Only admin allowed\") */\n      tag_97\n      jumpi\n      mload(0x40)\n      0x08c379a000000000000000000000000000000000000000000000000000000000\n      dup2\n      mstore\n      0x04\n      add\n      tag_98\n      swap1\n      tag_76\n      jump\t// in\n    tag_98:\n      mload(0x40)\n      dup1\n      swap2\n      sub\n      swap1\n      revert\n    tag_97:\n        /* \"CarbonCreditBatch.sol\":1895:1902  company */\n      dup1\n        /* \"CarbonCreditBatch.sol\":1368:1383  companyRegistry */\n      0x01\n      0x00\n      swap1\n      sload\n      swap1\n      0x0100\n      exp\n      swap1\n      div\n      0xffffffffffffffffffffffffffffffffffffffff\n      and\n        /* \"CarbonCreditBatch.sol\":1368:1401  companyRegistry.isCompanyVerified */\n      0xffffffffffffffffffffffffffffffffffffffff\n      and\n      0xbfc2defd\n        /* \"CarbonCreditBatch.sol\":1402:1409  company */\n      dup3\n        /* \"CarbonCreditBatch.sol\":1368:1410  companyRegistry.isCompanyVerified(company) */\n      mload(0x40)\n      dup3\n      0xffffffff\n      and\n      0xe0\n      shl\n      dup2\n      mstore\n      0x04\n      add\n      tag_100\n      swap2\n      swap1\n      tag_49\n      jump\t// in\n    tag_100:\n      0x20\n      mload(0x40)\n      dup1\n      dup4\n      sub\n      dup2\n      dup7\n      gas\n      staticcall\n      iszero\n      dup1\n      iszero\n      tag_102\n      jumpi\n      returndatacopy(0x00, 0x00, returndatasize)\n      revert(0x00, returndatasize)\n    tag_102:\n      pop\n      pop\n      pop\n      pop\n      mload(0x40)\n      returndatasize\n      not(0x1f)\n      0x1f\n      dup3\n      add\n      and\n      dup3\n      add\n      dup1\n      0x40\n      mstore\n      pop\n      dup2\n      add\n      swap1\n      tag_103\n      swap2\n      swap1\n      tag_55\n      jump\t// in\n    tag_103:\n        /* \"CarbonCreditBatch.sol\":1346:1458  require(... */\n      tag_104\n      jumpi\n      mload(0x40)\n      0x08c379a000000000000000000000000000000000000000000000000000000000\n      dup2\n      mstore\n      0x04\n      add\n      tag_105\n      swap1\n      tag_58\n      jump\t// in\n    tag_105:\n      mload(0x40)\n      dup1\n      swap2\n      sub\n      swap1\n      revert\n    tag_104:\n        /* \"CarbonCreditBatch.sol\":1920:1940  _mintCredit(company) */\n      tag_107\n        /* \"CarbonCreditBatch.sol\":1932:1939  company */\n      dup3\n        /* \"CarbonCreditBatch.sol\":1920:1931  _mintCredit */\n      tag_95\n        /* \"CarbonCreditBatch.sol\":1920:1940  _mintCredit(company) */\n      jump\t// in\n    tag_107:\n        /* \"CarbonCreditBatch.sol\":1272:1273  _ */\n      pop\n        /* \"CarbonCreditBatch.sol\":1791:1948  function issueCredit(address company)... */\n      pop\n      jump\t// out\n        /* \"CarbonCreditBatch.sol\":351:390  ICompanyRegistry public companyRegistry */\n    tag_36:\n      0x01\n      0x00\n      swap1\n      sload\n      swap1\n      0x0100\n      exp\n      swap1\n      div\n      0xffffffffffffffffffffffffffffffffffffffff\n      and\n      dup2\n      jump\t// out\n        /* \"CarbonCreditBatch.sol\":3633:3874  function getCredit(uint256 creditId)... */\n    tag_41:\n        /* \"CarbonCreditBatch.sol\":3720:3727  uint256 */\n      0x00\n        /* \"CarbonCreditBatch.sol\":3729:3736  address */\n      0x00\n        /* \"CarbonCreditBatch.sol\":3738:3750  CreditStatus */\n      0x00\n        /* \"CarbonCreditBatch.sol\":3768:3788  Credit memory credit */\n      0x00\n        /* \"CarbonCreditBatch.sol\":3791:3798  credits */\n      0x03\n        /* \"CarbonCreditBatch.sol\":3791:3808  credits[creditId] */\n      0x00\n        /* \"CarbonCreditBatch.sol\":3799:3807  creditId */\n      dup7\n        /* \"CarbonCreditBatch.sol\":3791:3808  credits[creditId] */\n      dup2\n      mstore\n      0x20\n      add\n      swap1\n      dup2\n      mstore\n      0x20\n      add\n      0x00\n      keccak256\n        /* \"CarbonCreditBatch.sol\":3768:3808  Credit memory credit = credits[creditId] */\n      mload(0x40)\n      dup1\n      0x60\n      add\n      0x40\n      mstore\n      swap1\n      dup2\n      0x00\n      dup3\n      add\n      sload\n      dup2\n      mstore\n      0x20\n      add\n      0x01\n      dup3\n      add\n      0x00\n      swap1\n      sload\n      swap1\n      0x0100\n      exp\n      swap1\n      div\n      0xffffffffffffffffffffffffffffffffffffffff\n      and\n      0xffffffffffffffffffffffffffffffffffffffff\n      and\n      0xffffffffffffffffffffffffffffffffffffffff\n      and\n      dup2\n      mstore\n      0x20\n      add\n      0x01\n      dup3\n      add\n      0x14\n      swap1\n      sload\n      swap1\n      0x0100\n      exp\n      swap1\n      div\n      0xff\n      and\n      0x02\n      dup2\n      gt\n      iszero\n      tag_109\n      jumpi\n      tag_110\n      tag_65\n      jump\t// in\n    tag_110:\n    tag_109:\n      0x02\n      dup2\n      gt\n      iszero\n      tag_111\n      jumpi\n      tag_112\n      tag_65\n      jump\t// in\n    tag_112:\n    tag_111:\n      dup2\n      mstore\n      pop\n      pop\n      swap1\n      pop\n        /* \"CarbonCreditBatch.sol\":3827:3833  credit */\n      dup1\n        /* \"CarbonCreditBatch.sol\":3827:3836  credit.id */\n      0x00\n      add\n      mload\n        /* \"CarbonCreditBatch.sol\":3838:3844  credit */\n      dup2\n        /* \"CarbonCreditBatch.sol\":3838:3850  credit.owner */\n      0x20\n      add\n      mload\n        /* \"CarbonCreditBatch.sol\":3852:3858  credit */\n      dup3\n        /* \"CarbonCreditBatch.sol\":3852:3865  credit.status */\n      0x40\n      add\n      mload\n        /* \"CarbonCreditBatch.sol\":3819:3866  return (credit.id, credit.owner, credit.status) */\n      swap4\n      pop\n      swap4\n      pop\n      swap4\n      pop\n      pop\n        /* \"CarbonCreditBatch.sol\":3633:3874  function getCredit(uint256 creditId)... */\n      swap2\n      swap4\n      swap1\n      swap3\n      pop\n      jump\t// out\n        /* \"CarbonCreditBatch.sol\":3245:3600  function retireCredit(uint256 creditId) external {... */\n    tag_45:\n        /* \"CarbonCreditBatch.sol\":3305:3326  Credit storage credit */\n      0x00\n        /* \"CarbonCreditBatch.sol\":3329:3336  credits */\n      0x03\n        /* \"CarbonCreditBatch.sol\":3329:3346  credits[creditId] */\n      0x00\n        /* \"CarbonCreditBatch.sol\":3337:3345  creditId */\n      dup4\n        /* \"CarbonCreditBatch.sol\":3329:3346  credits[creditId] */\n      dup2\n      mstore\n      0x20\n      add\n      swap1\n      dup2\n      mstore\n      0x20\n      add\n      0x00\n      keccak256\n        /* \"CarbonCreditBatch.sol\":3305:3346  Credit storage credit = credits[creditId] */\n      swap1\n      pop\n        /* \"CarbonCreditBatch.sol\":3383:3393  msg.sender */\n      caller\n        /* \"CarbonCreditBatch.sol\":3367:3393  credit.owner == msg.sender */\n      0xffffffffffffffffffffffffffffffffffffffff\n      and\n        /* \"CarbonCreditBatch.sol\":3367:3373  credit */\n      dup2\n        /* \"CarbonCreditBatch.sol\":3367:3379  credit.owner */\n      0x01\n      add\n      0x00\n      swap1\n      sload\n      swap1\n      0x0100\n      exp\n      swap1\n      div\n      0xffffffffffffffffffffffffffffffffffffffff\n      and\n        /* \"CarbonCreditBatch.sol\":3367:3393  credit.owner == msg.sender */\n      0xffffffffffffffffffffffffffffffffffffffff\n      and\n      eq\n        /* \"CarbonCreditBatch.sol\":3359:3414  require(credit.owner == msg.sender, \"Not credit owner\") */\n      tag_114\n      jumpi\n      mload(0x40)\n      0x08c379a000000000000000000000000000000000000000000000000000000000\n      dup2\n      mstore\n      0x04\n      add\n      tag_115\n      swap1\n      tag_62\n      jump\t// in\n    tag_115:\n      mload(0x40)\n      dup1\n      swap2\n      sub\n      swap1\n      revert\n    tag_114:\n        /* \"CarbonCreditBatch.sol\":3450:3470  CreditStatus.Retired */\n      0x02\n        /* \"CarbonCreditBatch.sol\":3433:3470  credit.status != CreditStatus.Retired */\n      dup1\n      dup2\n      gt\n      iszero\n      tag_116\n      jumpi\n      tag_117\n      tag_65\n      jump\t// in\n    tag_117:\n    tag_116:\n        /* \"CarbonCreditBatch.sol\":3433:3439  credit */\n      dup2\n        /* \"CarbonCreditBatch.sol\":3433:3446  credit.status */\n      0x01\n      add\n      0x14\n      swap1\n      sload\n      swap1\n      0x0100\n      exp\n      swap1\n      div\n      0xff\n      and\n        /* \"CarbonCreditBatch.sol\":3433:3470  credit.status != CreditStatus.Retired */\n      0x02\n      dup2\n      gt\n      iszero\n      tag_118\n      jumpi\n      tag_119\n      tag_65\n      jump\t// in\n    tag_119:\n    tag_118:\n      sub\n        /* \"CarbonCreditBatch.sol\":3425:3490  require(credit.status != CreditStatus.Retired, \"Already retired\") */\n      tag_120\n      jumpi\n      mload(0x40)\n      0x08c379a000000000000000000000000000000000000000000000000000000000\n      dup2\n      mstore\n      0x04\n      add\n      tag_121\n      swap1\n      tag_122\n      jump\t// in\n    tag_121:\n      mload(0x40)\n      dup1\n      swap2\n      sub\n      swap1\n      revert\n    tag_120:\n        /* \"CarbonCreditBatch.sol\":3519:3539  CreditStatus.Retired */\n      0x02\n        /* \"CarbonCreditBatch.sol\":3503:3509  credit */\n      dup2\n        /* \"CarbonCreditBatch.sol\":3503:3516  credit.status */\n      0x01\n      add\n      0x14\n        /* \"CarbonCreditBatch.sol\":3503:3539  credit.status = CreditStatus.Retired */\n      0x0100\n      exp\n      dup2\n      sload\n      dup2\n      0xff\n      mul\n      not\n      and\n      swap1\n      dup4\n      0x02\n      dup2\n      gt\n      iszero\n      tag_123\n      jumpi\n      tag_124\n      tag_65\n      jump\t// in\n    tag_124:\n    tag_123:\n      mul\n      or\n      swap1\n      sstore\n      pop\n        /* \"CarbonCreditBatch.sol\":3581:3591  msg.sender */\n      caller\n        /* \"CarbonCreditBatch.sol\":3557:3592  CreditRetired(creditId, msg.sender) */\n      0xffffffffffffffffffffffffffffffffffffffff\n      and\n        /* \"CarbonCreditBatch.sol\":3571:3579  creditId */\n      dup3\n        /* \"CarbonCreditBatch.sol\":3557:3592  CreditRetired(creditId, msg.sender) */\n      0xa0f88bdc93ff6217657196ec633234f6709c7e841f6bfc701d62861f30e40f0c\n      mload(0x40)\n      mload(0x40)\n      dup1\n      swap2\n      sub\n      swap1\n      log3\n        /* \"CarbonCreditBatch.sol\":3294:3600  {... */\n      pop\n        /* \"CarbonCreditBatch.sol\":3245:3600  function retireCredit(uint256 creditId) external {... */\n      pop\n      jump\t// out\n        /* \"CarbonCreditBatch.sol\":282:302  address public admin */\n    tag_47:\n      0x00\n      0x00\n      swap1\n      sload\n      swap1\n      0x0100\n      exp\n      swap1\n      div\n      0xffffffffffffffffffffffffffffffffffffffff\n      and\n      dup2\n      jump\t// out\n        /* \"CarbonCreditBatch.sol\":2401:2704  function _mintCredit(address company) internal {... */\n    tag_95:\n        /* \"CarbonCreditBatch.sol\":2459:2474  creditIdCounter */\n      0x02\n      0x00\n        /* \"CarbonCreditBatch.sol\":2459:2476  creditIdCounter++ */\n      dup2\n      sload\n      dup1\n      swap3\n      swap2\n      swap1\n      tag_126\n      swap1\n      tag_127\n      jump\t// in\n    tag_126:\n      swap2\n      swap1\n      pop\n      sstore\n      pop\n        /* \"CarbonCreditBatch.sol\":2516:2640  Credit({... */\n      mload(0x40)\n      dup1\n      0x60\n      add\n      0x40\n      mstore\n      dup1\n        /* \"CarbonCreditBatch.sol\":2542:2557  creditIdCounter */\n      sload(0x02)\n        /* \"CarbonCreditBatch.sol\":2516:2640  Credit({... */\n      dup2\n      mstore\n      0x20\n      add\n        /* \"CarbonCreditBatch.sol\":2579:2586  company */\n      dup3\n        /* \"CarbonCreditBatch.sol\":2516:2640  Credit({... */\n      0xffffffffffffffffffffffffffffffffffffffff\n      and\n      dup2\n      mstore\n      0x20\n      add\n        /* \"CarbonCreditBatch.sol\":2609:2628  CreditStatus.Issued */\n      0x00\n        /* \"CarbonCreditBatch.sol\":2516:2640  Credit({... */\n      0x02\n      dup2\n      gt\n      iszero\n      tag_128\n      jumpi\n      tag_129\n      tag_65\n      jump\t// in\n    tag_129:\n    tag_128:\n      dup2\n      mstore\n      pop\n        /* \"CarbonCreditBatch.sol\":2489:2496  credits */\n      0x03\n        /* \"CarbonCreditBatch.sol\":2489:2513  credits[creditIdCounter] */\n      0x00\n        /* \"CarbonCreditBatch.sol\":2497:2512  creditIdCounter */\n      sload(0x02)\n        /* \"CarbonCreditBatch.sol\":2489:2513  credits[creditIdCounter] */\n      dup2\n      mstore\n      0x20\n      add\n      swap1\n      dup2\n      mstore\n      0x20\n      add\n      0x00\n      keccak256\n        /* \"CarbonCreditBatch.sol\":2489:2640  credits[creditIdCounter] = Credit({... */\n      0x00\n      dup3\n      add\n      mload\n      dup2\n      0x00\n      add\n      sstore\n      0x20\n      dup3\n      add\n      mload\n      dup2\n      0x01\n      add\n      exp(0x0100, 0x00)\n      dup2\n      sload\n      dup2\n      0xffffffffffffffffffffffffffffffffffffffff\n      mul\n      not\n      and\n      swap1\n      dup4\n      0xffffffffffffffffffffffffffffffffffffffff\n      and\n      mul\n      or\n      swap1\n      sstore\n      pop\n      0x40\n      dup3\n      add\n      mload\n      dup2\n      0x01\n      add\n      exp(0x0100, 0x14)\n      dup2\n      sload\n      dup2\n      0xff\n      mul\n      not\n      and\n      swap1\n      dup4\n      0x02\n      dup2\n      gt\n      iszero\n      tag_130\n      jumpi\n      tag_131\n      tag_65\n      jump\t// in\n    tag_131:\n    tag_130:\n      mul\n      or\n      swap1\n      sstore\n      pop\n      swap1\n      pop\n      pop\n        /* \"CarbonCreditBatch.sol\":2688:2695  company */\n      dup1\n        /* \"CarbonCreditBatch.sol\":2658:2696  CreditIssued(creditIdCounter, company) */\n      0xffffffffffffffffffffffffffffffffffffffff\n      and\n        /* \"CarbonCreditBatch.sol\":2671:2686  creditIdCounter */\n      sload(0x02)\n        /* \"CarbonCreditBatch.sol\":2658:2696  CreditIssued(creditIdCounter, company) */\n      0x9411640525281b98a1ce0a7523697265fe74f3abe4b0b7e7fa9bbe8a28f39010\n      mload(0x40)\n      mload(0x40)\n      dup1\n      swap2\n      sub\n      swap1\n      log3\n        /* \"CarbonCreditBatch.sol\":2401:2704  function _mintCredit(address company) internal {... */\n      pop\n      jump\t// out\n        /* \"#utility.yul\":88:205   */\n    tag_133:\n        /* \"#utility.yul\":197:198   */\n      0x00\n        /* \"#utility.yul\":194:195   */\n      0x00\n        /* \"#utility.yul\":187:199   */\n      revert\n        /* \"#utility.yul\":334:411   */\n    tag_135:\n        /* \"#utility.yul\":371:378   */\n      0x00\n        /* \"#utility.yul\":400:405   */\n      dup2\n        /* \"#utility.yul\":389:405   */\n      swap1\n      pop\n        /* \"#utility.yul\":334:411   */\n      swap2\n      swap1\n      pop\n      jump\t// out\n        /* \"#utility.yul\":417:539   */\n    tag_136:\n        /* \"#utility.yul\":490:514   */\n      tag_178\n        /* \"#utility.yul\":508:513   */\n      dup2\n        /* \"#utility.yul\":490:514   */\n      tag_135\n      jump\t// in\n    tag_178:\n        /* \"#utility.yul\":483:488   */\n      dup2\n        /* \"#utility.yul\":480:515   */\n      eq\n        /* \"#utility.yul\":470:533   */\n      tag_179\n      jumpi\n        /* \"#utility.yul\":529:530   */\n      0x00\n        /* \"#utility.yul\":526:527   */\n      0x00\n        /* \"#utility.yul\":519:531   */\n      revert\n        /* \"#utility.yul\":470:533   */\n    tag_179:\n        /* \"#utility.yul\":417:539   */\n      pop\n      jump\t// out\n        /* \"#utility.yul\":545:684   */\n    tag_137:\n        /* \"#utility.yul\":591:596   */\n      0x00\n        /* \"#utility.yul\":629:635   */\n      dup2\n        /* \"#utility.yul\":616:636   */\n      calldataload\n        /* \"#utility.yul\":607:636   */\n      swap1\n      pop\n        /* \"#utility.yul\":645:678   */\n      tag_181\n        /* \"#utility.yul\":672:677   */\n      dup2\n        /* \"#utility.yul\":645:678   */\n      tag_136\n      jump\t// in\n    tag_181:\n        /* \"#utility.yul\":545:684   */\n      swap3\n      swap2\n      pop\n      pop\n      jump\t// out\n        /* \"#utility.yul\":690:1019   */\n    tag_15:\n        /* \"#utility.yul\":749:755   */\n      0x00\n        /* \"#utility.yul\":798:800   */\n      0x20\n        /* \"#utility.yul\":786:795   */\n      dup3\n        /* \"#utility.yul\":777:784   */\n      dup5\n        /* \"#utility.yul\":773:796   */\n      sub\n        /* \"#utility.yul\":769:801   */\n      slt\n        /* \"#utility.yul\":766:885   */\n      iszero\n      tag_183\n      jumpi\n        /* \"#utility.yul\":804:883   */\n      tag_184\n      tag_133\n      jump\t// in\n    tag_184:\n        /* \"#utility.yul\":766:885   */\n    tag_183:\n        /* \"#utility.yul\":924:925   */\n      0x00\n        /* \"#utility.yul\":949:1002   */\n      tag_185\n        /* \"#utility.yul\":994:1001   */\n      dup5\n        /* \"#utility.yul\":985:991   */\n      dup3\n        /* \"#utility.yul\":974:983   */\n      dup6\n        /* \"#utility.yul\":970:992   */\n      add\n        /* \"#utility.yul\":949:1002   */\n      tag_137\n      jump\t// in\n    tag_185:\n        /* \"#utility.yul\":939:1002   */\n      swap2\n      pop\n        /* \"#utility.yul\":895:1012   */\n      pop\n        /* \"#utility.yul\":690:1019   */\n      swap3\n      swap2\n      pop\n      pop\n      jump\t// out\n        /* \"#utility.yul\":1025:1143   */\n    tag_138:\n        /* \"#utility.yul\":1112:1136   */\n      tag_187\n        /* \"#utility.yul\":1130:1135   */\n      dup2\n        /* \"#utility.yul\":1112:1136   */\n      tag_135\n      jump\t// in\n    tag_187:\n        /* \"#utility.yul\":1107:1110   */\n      dup3\n        /* \"#utility.yul\":1100:1137   */\n      mstore\n        /* \"#utility.yul\":1025:1143   */\n      pop\n      pop\n      jump\t// out\n        /* \"#utility.yul\":1149:1275   */\n    tag_139:\n        /* \"#utility.yul\":1186:1193   */\n      0x00\n        /* \"#utility.yul\":1226:1268   */\n      0xffffffffffffffffffffffffffffffffffffffff\n        /* \"#utility.yul\":1219:1224   */\n      dup3\n        /* \"#utility.yul\":1215:1269   */\n      and\n        /* \"#utility.yul\":1204:1269   */\n      swap1\n      pop\n        /* \"#utility.yul\":1149:1275   */\n      swap2\n      swap1\n      pop\n      jump\t// out\n        /* \"#utility.yul\":1281:1377   */\n    tag_140:\n        /* \"#utility.yul\":1318:1325   */\n      0x00\n        /* \"#utility.yul\":1347:1371   */\n      tag_190\n        /* \"#utility.yul\":1365:1370   */\n      dup3\n        /* \"#utility.yul\":1347:1371   */\n      tag_139\n      jump\t// in\n    tag_190:\n        /* \"#utility.yul\":1336:1371   */\n      swap1\n      pop\n        /* \"#utility.yul\":1281:1377   */\n      swap2\n      swap1\n      pop\n      jump\t// out\n        /* \"#utility.yul\":1383:1501   */\n    tag_141:\n        /* \"#utility.yul\":1470:1494   */\n      tag_192\n        /* \"#utility.yul\":1488:1493   */\n      dup2\n        /* \"#utility.yul\":1470:1494   */\n      tag_140\n      jump\t// in\n    tag_192:\n        /* \"#utility.yul\":1465:1468   */\n      dup3\n        /* \"#utility.yul\":1458:1495   */\n      mstore\n        /* \"#utility.yul\":1383:1501   */\n      pop\n      pop\n      jump\t// out\n        /* \"#utility.yul\":1507:1687   */\n    tag_65:\n        /* \"#utility.yul\":1555:1632   */\n      0x4e487b7100000000000000000000000000000000000000000000000000000000\n        /* \"#utility.yul\":1552:1553   */\n      0x00\n        /* \"#utility.yul\":1545:1633   */\n      mstore\n        /* \"#utility.yul\":1652:1656   */\n      0x21\n        /* \"#utility.yul\":1649:1650   */\n      0x04\n        /* \"#utility.yul\":1642:1657   */\n      mstore\n        /* \"#utility.yul\":1676:1680   */\n      0x24\n        /* \"#utility.yul\":1673:1674   */\n      0x00\n        /* \"#utility.yul\":1666:1681   */\n      revert\n        /* \"#utility.yul\":1693:1813   */\n    tag_142:\n        /* \"#utility.yul\":1781:1782   */\n      0x03\n        /* \"#utility.yul\":1774:1779   */\n      dup2\n        /* \"#utility.yul\":1771:1783   */\n      lt\n        /* \"#utility.yul\":1761:1807   */\n      tag_195\n      jumpi\n        /* \"#utility.yul\":1787:1805   */\n      tag_196\n      tag_65\n      jump\t// in\n    tag_196:\n        /* \"#utility.yul\":1761:1807   */\n    tag_195:\n        /* \"#utility.yul\":1693:1813   */\n      pop\n      jump\t// out\n        /* \"#utility.yul\":1819:1960   */\n    tag_143:\n        /* \"#utility.yul\":1871:1878   */\n      0x00\n        /* \"#utility.yul\":1900:1905   */\n      dup2\n        /* \"#utility.yul\":1889:1905   */\n      swap1\n      pop\n        /* \"#utility.yul\":1906:1954   */\n      tag_198\n        /* \"#utility.yul\":1948:1953   */\n      dup3\n        /* \"#utility.yul\":1906:1954   */\n      tag_142\n      jump\t// in\n    tag_198:\n        /* \"#utility.yul\":1819:1960   */\n      swap2\n      swap1\n      pop\n      jump\t// out\n        /* \"#utility.yul\":1966:2107   */\n    tag_144:\n        /* \"#utility.yul\":2029:2038   */\n      0x00\n        /* \"#utility.yul\":2062:2101   */\n      tag_200\n        /* \"#utility.yul\":2095:2100   */\n      dup3\n        /* \"#utility.yul\":2062:2101   */\n      tag_143\n      jump\t// in\n    tag_200:\n        /* \"#utility.yul\":2049:2101   */\n      swap1\n      pop\n        /* \"#utility.yul\":1966:2107   */\n      swap2\n      swap1\n      pop\n      jump\t// out\n        /* \"#utility.yul\":2113:2270   */\n    tag_145:\n        /* \"#utility.yul\":2213:2263   */\n      tag_202\n        /* \"#utility.yul\":2257:2262   */\n      dup2\n        /* \"#utility.yul\":2213:2263   */\n      tag_144\n      jump\t// in\n    tag_202:\n        /* \"#utility.yul\":2208:2211   */\n      dup3\n        /* \"#utility.yul\":2201:2264   */\n      mstore\n        /* \"#utility.yul\":2113:2270   */\n      pop\n      pop\n      jump\t// out\n        /* \"#utility.yul\":2276:2744   */\n    tag_18:\n        /* \"#utility.yul\":2438:2442   */\n      0x00\n        /* \"#utility.yul\":2476:2478   */\n      0x60\n        /* \"#utility.yul\":2465:2474   */\n      dup3\n        /* \"#utility.yul\":2461:2479   */\n      add\n        /* \"#utility.yul\":2453:2479   */\n      swap1\n      pop\n        /* \"#utility.yul\":2489:2560   */\n      tag_204\n        /* \"#utility.yul\":2557:2558   */\n      0x00\n        /* \"#utility.yul\":2546:2555   */\n      dup4\n        /* \"#utility.yul\":2542:2559   */\n      add\n        /* \"#utility.yul\":2533:2539   */\n      dup7\n        /* \"#utility.yul\":2489:2560   */\n      tag_138\n      jump\t// in\n    tag_204:\n        /* \"#utility.yul\":2570:2642   */\n      tag_205\n        /* \"#utility.yul\":2638:2640   */\n      0x20\n        /* \"#utility.yul\":2627:2636   */\n      dup4\n        /* \"#utility.yul\":2623:2641   */\n      add\n        /* \"#utility.yul\":2614:2620   */\n      dup6\n        /* \"#utility.yul\":2570:2642   */\n      tag_141\n      jump\t// in\n    tag_205:\n        /* \"#utility.yul\":2652:2737   */\n      tag_206\n        /* \"#utility.yul\":2733:2735   */\n      0x40\n        /* \"#utility.yul\":2722:2731   */\n      dup4\n        /* \"#utility.yul\":2718:2736   */\n      add\n        /* \"#utility.yul\":2709:2715   */\n      dup5\n        /* \"#utility.yul\":2652:2737   */\n      tag_145\n      jump\t// in\n    tag_206:\n        /* \"#utility.yul\":2276:2744   */\n      swap5\n      swap4\n      pop\n      pop\n      pop\n      pop\n      jump\t// out\n        /* \"#utility.yul\":2750:2972   */\n    tag_22:\n        /* \"#utility.yul\":2843:2847   */\n      0x00\n        /* \"#utility.yul\":2881:2883   */\n      0x20\n        /* \"#utility.yul\":2870:2879   */\n      dup3\n        /* \"#utility.yul\":2866:2884   */\n      add\n        /* \"#utility.yul\":2858:2884   */\n      swap1\n      pop\n        /* \"#utility.yul\":2894:2965   */\n      tag_208\n        /* \"#utility.yul\":2962:2963   */\n      0x00\n        /* \"#utility.yul\":2951:2960   */\n      dup4\n        /* \"#utility.yul\":2947:2964   */\n      add\n        /* \"#utility.yul\":2938:2944   */\n      dup5\n        /* \"#utility.yul\":2894:2965   */\n      tag_138\n      jump\t// in\n    tag_208:\n        /* \"#utility.yul\":2750:2972   */\n      swap3\n      swap2\n      pop\n      pop\n      jump\t// out\n        /* \"#utility.yul\":2978:3100   */\n    tag_146:\n        /* \"#utility.yul\":3051:3075   */\n      tag_210\n        /* \"#utility.yul\":3069:3074   */\n      dup2\n        /* \"#utility.yul\":3051:3075   */\n      tag_140\n      jump\t// in\n    tag_210:\n        /* \"#utility.yul\":3044:3049   */\n      dup2\n        /* \"#utility.yul\":3041:3076   */\n      eq\n        /* \"#utility.yul\":3031:3094   */\n      tag_211\n      jumpi\n        /* \"#utility.yul\":3090:3091   */\n      0x00\n        /* \"#utility.yul\":3087:3088   */\n      0x00\n        /* \"#utility.yul\":3080:3092   */\n      revert\n        /* \"#utility.yul\":3031:3094   */\n    tag_211:\n        /* \"#utility.yul\":2978:3100   */\n      pop\n      jump\t// out\n        /* \"#utility.yul\":3106:3245   */\n    tag_147:\n        /* \"#utility.yul\":3152:3157   */\n      0x00\n        /* \"#utility.yul\":3190:3196   */\n      dup2\n        /* \"#utility.yul\":3177:3197   */\n      calldataload\n        /* \"#utility.yul\":3168:3197   */\n      swap1\n      pop\n        /* \"#utility.yul\":3206:3239   */\n      tag_213\n        /* \"#utility.yul\":3233:3238   */\n      dup2\n        /* \"#utility.yul\":3206:3239   */\n      tag_146\n      jump\t// in\n    tag_213:\n        /* \"#utility.yul\":3106:3245   */\n      swap3\n      swap2\n      pop\n      pop\n      jump\t// out\n        /* \"#utility.yul\":3251:3725   */\n    tag_25:\n        /* \"#utility.yul\":3319:3325   */\n      0x00\n        /* \"#utility.yul\":3327:3333   */\n      0x00\n        /* \"#utility.yul\":3376:3378   */\n      0x40\n        /* \"#utility.yul\":3364:3373   */\n      dup4\n        /* \"#utility.yul\":3355:3362   */\n      dup6\n        /* \"#utility.yul\":3351:3374   */\n      sub\n        /* \"#utility.yul\":3347:3379   */\n      slt\n        /* \"#utility.yul\":3344:3463   */\n      iszero\n      tag_215\n      jumpi\n        /* \"#utility.yul\":3382:3461   */\n      tag_216\n      tag_133\n      jump\t// in\n    tag_216:\n        /* \"#utility.yul\":3344:3463   */\n    tag_215:\n        /* \"#utility.yul\":3502:3503   */\n      0x00\n        /* \"#utility.yul\":3527:3580   */\n      tag_217\n        /* \"#utility.yul\":3572:3579   */\n      dup6\n        /* \"#utility.yul\":3563:3569   */\n      dup3\n        /* \"#utility.yul\":3552:3561   */\n      dup7\n        /* \"#utility.yul\":3548:3570   */\n      add\n        /* \"#utility.yul\":3527:3580   */\n      tag_137\n      jump\t// in\n    tag_217:\n        /* \"#utility.yul\":3517:3580   */\n      swap3\n      pop\n        /* \"#utility.yul\":3473:3590   */\n      pop\n        /* \"#utility.yul\":3629:3631   */\n      0x20\n        /* \"#utility.yul\":3655:3708   */\n      tag_218\n        /* \"#utility.yul\":3700:3707   */\n      dup6\n        /* \"#utility.yul\":3691:3697   */\n      dup3\n        /* \"#utility.yul\":3680:3689   */\n      dup7\n        /* \"#utility.yul\":3676:3698   */\n      add\n        /* \"#utility.yul\":3655:3708   */\n      tag_147\n      jump\t// in\n    tag_218:\n        /* \"#utility.yul\":3645:3708   */\n      swap2\n      pop\n        /* \"#utility.yul\":3600:3718   */\n      pop\n        /* \"#utility.yul\":3251:3725   */\n      swap3\n      pop\n      swap3\n      swap1\n      pop\n      jump\t// out\n        /* \"#utility.yul\":3731:4205   */\n    tag_29:\n        /* \"#utility.yul\":3799:3805   */\n      0x00\n        /* \"#utility.yul\":3807:3813   */\n      0x00\n        /* \"#utility.yul\":3856:3858   */\n      0x40\n        /* \"#utility.yul\":3844:3853   */\n      dup4\n        /* \"#utility.yul\":3835:3842   */\n      dup6\n        /* \"#utility.yul\":3831:3854   */\n      sub\n        /* \"#utility.yul\":3827:3859   */\n      slt\n        /* \"#utility.yul\":3824:3943   */\n      iszero\n      tag_220\n      jumpi\n        /* \"#utility.yul\":3862:3941   */\n      tag_221\n      tag_133\n      jump\t// in\n    tag_221:\n        /* \"#utility.yul\":3824:3943   */\n    tag_220:\n        /* \"#utility.yul\":3982:3983   */\n      0x00\n        /* \"#utility.yul\":4007:4060   */\n      tag_222\n        /* \"#utility.yul\":4052:4059   */\n      dup6\n        /* \"#utility.yul\":4043:4049   */\n      dup3\n        /* \"#utility.yul\":4032:4041   */\n      dup7\n        /* \"#utility.yul\":4028:4050   */\n      add\n        /* \"#utility.yul\":4007:4060   */\n      tag_147\n      jump\t// in\n    tag_222:\n        /* \"#utility.yul\":3997:4060   */\n      swap3\n      pop\n        /* \"#utility.yul\":3953:4070   */\n      pop\n        /* \"#utility.yul\":4109:4111   */\n      0x20\n        /* \"#utility.yul\":4135:4188   */\n      tag_223\n        /* \"#utility.yul\":4180:4187   */\n      dup6\n        /* \"#utility.yul\":4171:4177   */\n      dup3\n        /* \"#utility.yul\":4160:4169   */\n      dup7\n        /* \"#utility.yul\":4156:4178   */\n      add\n        /* \"#utility.yul\":4135:4188   */\n      tag_137\n      jump\t// in\n    tag_223:\n        /* \"#utility.yul\":4125:4188   */\n      swap2\n      pop\n        /* \"#utility.yul\":4080:4198   */\n      pop\n        /* \"#utility.yul\":3731:4205   */\n      swap3\n      pop\n      swap3\n      swap1\n      pop\n      jump\t// out\n        /* \"#utility.yul\":4211:4540   */\n    tag_33:\n        /* \"#utility.yul\":4270:4276   */\n      0x00\n        /* \"#utility.yul\":4319:4321   */\n      0x20\n        /* \"#utility.yul\":4307:4316   */\n      dup3\n        /* \"#utility.yul\":4298:4305   */\n      dup5\n        /* \"#utility.yul\":4294:4317   */\n      sub\n        /* \"#utility.yul\":4290:4322   */\n      slt\n        /* \"#utility.yul\":4287:4406   */\n      iszero\n      tag_225\n      jumpi\n        /* \"#utility.yul\":4325:4404   */\n      tag_226\n      tag_133\n      jump\t// in\n    tag_226:\n        /* \"#utility.yul\":4287:4406   */\n    tag_225:\n        /* \"#utility.yul\":4445:4446   */\n      0x00\n        /* \"#utility.yul\":4470:4523   */\n      tag_227\n        /* \"#utility.yul\":4515:4522   */\n      dup5\n        /* \"#utility.yul\":4506:4512   */\n      dup3\n        /* \"#utility.yul\":4495:4504   */\n      dup6\n        /* \"#utility.yul\":4491:4513   */\n      add\n        /* \"#utility.yul\":4470:4523   */\n      tag_147\n      jump\t// in\n    tag_227:\n        /* \"#utility.yul\":4460:4523   */\n      swap2\n      pop\n        /* \"#utility.yul\":4416:4533   */\n      pop\n        /* \"#utility.yul\":4211:4540   */\n      swap3\n      swap2\n      pop\n      pop\n      jump\t// out\n        /* \"#utility.yul\":4546:4606   */\n    tag_148:\n        /* \"#utility.yul\":4574:4577   */\n      0x00\n        /* \"#utility.yul\":4595:4600   */\n      dup2\n        /* \"#utility.yul\":4588:4600   */\n      swap1\n      pop\n        /* \"#utility.yul\":4546:4606   */\n      swap2\n      swap1\n      pop\n      jump\t// out\n        /* \"#utility.yul\":4612:4754   */\n    tag_149:\n        /* \"#utility.yul\":4662:4671   */\n      0x00\n        /* \"#utility.yul\":4695:4748   */\n      tag_230\n        /* \"#utility.yul\":4713:4747   */\n      tag_231\n        /* \"#utility.yul\":4722:4746   */\n      tag_232\n        /* \"#utility.yul\":4740:4745   */\n      dup5\n        /* \"#utility.yul\":4722:4746   */\n      tag_139\n      jump\t// in\n    tag_232:\n        /* \"#utility.yul\":4713:4747   */\n      tag_148\n      jump\t// in\n    tag_231:\n        /* \"#utility.yul\":4695:4748   */\n      tag_139\n      jump\t// in\n    tag_230:\n        /* \"#utility.yul\":4682:4748   */\n      swap1\n      pop\n        /* \"#utility.yul\":4612:4754   */\n      swap2\n      swap1\n      pop\n      jump\t// out\n        /* \"#utility.yul\":4760:4886   */\n    tag_150:\n        /* \"#utility.yul\":4810:4819   */\n      0x00\n        /* \"#utility.yul\":4843:4880   */\n      tag_234\n        /* \"#utility.yul\":4874:4879   */\n      dup3\n        /* \"#utility.yul\":4843:4880   */\n      tag_149\n      jump\t// in\n    tag_234:\n        /* \"#utility.yul\":4830:4880   */\n      swap1\n      pop\n        /* \"#utility.yul\":4760:4886   */\n      swap2\n      swap1\n      pop\n      jump\t// out\n        /* \"#utility.yul\":4892:5040   */\n    tag_151:\n        /* \"#utility.yul\":4964:4973   */\n      0x00\n        /* \"#utility.yul\":4997:5034   */\n      tag_236\n        /* \"#utility.yul\":5028:5033   */\n      dup3\n        /* \"#utility.yul\":4997:5034   */\n      tag_150\n      jump\t// in\n    tag_236:\n        /* \"#utility.yul\":4984:5034   */\n      swap1\n      pop\n        /* \"#utility.yul\":4892:5040   */\n      swap2\n      swap1\n      pop\n      jump\t// out\n        /* \"#utility.yul\":5046:5221   */\n    tag_152:\n        /* \"#utility.yul\":5155:5214   */\n      tag_238\n        /* \"#utility.yul\":5208:5213   */\n      dup2\n        /* \"#utility.yul\":5155:5214   */\n      tag_151\n      jump\t// in\n    tag_238:\n        /* \"#utility.yul\":5150:5153   */\n      dup3\n        /* \"#utility.yul\":5143:5215   */\n      mstore\n        /* \"#utility.yul\":5046:5221   */\n      pop\n      pop\n      jump\t// out\n        /* \"#utility.yul\":5227:5493   */\n    tag_38:\n        /* \"#utility.yul\":5342:5346   */\n      0x00\n        /* \"#utility.yul\":5380:5382   */\n      0x20\n        /* \"#utility.yul\":5369:5378   */\n      dup3\n        /* \"#utility.yul\":5365:5383   */\n      add\n        /* \"#utility.yul\":5357:5383   */\n      swap1\n      pop\n        /* \"#utility.yul\":5393:5486   */\n      tag_240\n        /* \"#utility.yul\":5483:5484   */\n      0x00\n        /* \"#utility.yul\":5472:5481   */\n      dup4\n        /* \"#utility.yul\":5468:5485   */\n      add\n        /* \"#utility.yul\":5459:5465   */\n      dup5\n        /* \"#utility.yul\":5393:5486   */\n      tag_152\n      jump\t// in\n    tag_240:\n        /* \"#utility.yul\":5227:5493   */\n      swap3\n      swap2\n      pop\n      pop\n      jump\t// out\n        /* \"#utility.yul\":5499:5721   */\n    tag_49:\n        /* \"#utility.yul\":5592:5596   */\n      0x00\n        /* \"#utility.yul\":5630:5632   */\n      0x20\n        /* \"#utility.yul\":5619:5628   */\n      dup3\n        /* \"#utility.yul\":5615:5633   */\n      add\n        /* \"#utility.yul\":5607:5633   */\n      swap1\n      pop\n        /* \"#utility.yul\":5643:5714   */\n      tag_242\n        /* \"#utility.yul\":5711:5712   */\n      0x00\n        /* \"#utility.yul\":5700:5709   */\n      dup4\n        /* \"#utility.yul\":5696:5713   */\n      add\n        /* \"#utility.yul\":5687:5693   */\n      dup5\n        /* \"#utility.yul\":5643:5714   */\n      tag_141\n      jump\t// in\n    tag_242:\n        /* \"#utility.yul\":5499:5721   */\n      swap3\n      swap2\n      pop\n      pop\n      jump\t// out\n        /* \"#utility.yul\":5727:5817   */\n    tag_153:\n        /* \"#utility.yul\":5761:5768   */\n      0x00\n        /* \"#utility.yul\":5804:5809   */\n      dup2\n        /* \"#utility.yul\":5797:5810   */\n      iszero\n        /* \"#utility.yul\":5790:5811   */\n      iszero\n        /* \"#utility.yul\":5779:5811   */\n      swap1\n      pop\n        /* \"#utility.yul\":5727:5817   */\n      swap2\n      swap1\n      pop\n      jump\t// out\n        /* \"#utility.yul\":5823:5939   */\n    tag_154:\n        /* \"#utility.yul\":5893:5914   */\n      tag_245\n        /* \"#utility.yul\":5908:5913   */\n      dup2\n        /* \"#utility.yul\":5893:5914   */\n      tag_153\n      jump\t// in\n    tag_245:\n        /* \"#utility.yul\":5886:5891   */\n      dup2\n        /* \"#utility.yul\":5883:5915   */\n      eq\n        /* \"#utility.yul\":5873:5933   */\n      tag_246\n      jumpi\n        /* \"#utility.yul\":5929:5930   */\n      0x00\n        /* \"#utility.yul\":5926:5927   */\n      0x00\n        /* \"#utility.yul\":5919:5931   */\n      revert\n        /* \"#utility.yul\":5873:5933   */\n    tag_246:\n        /* \"#utility.yul\":5823:5939   */\n      pop\n      jump\t// out\n        /* \"#utility.yul\":5945:6082   */\n    tag_155:\n        /* \"#utility.yul\":5999:6004   */\n      0x00\n        /* \"#utility.yul\":6030:6036   */\n      dup2\n        /* \"#utility.yul\":6024:6037   */\n      mload\n        /* \"#utility.yul\":6015:6037   */\n      swap1\n      pop\n        /* \"#utility.yul\":6046:6076   */\n      tag_248\n        /* \"#utility.yul\":6070:6075   */\n      dup2\n        /* \"#utility.yul\":6046:6076   */\n      tag_154\n      jump\t// in\n    tag_248:\n        /* \"#utility.yul\":5945:6082   */\n      swap3\n      swap2\n      pop\n      pop\n      jump\t// out\n        /* \"#utility.yul\":6088:6433   */\n    tag_55:\n        /* \"#utility.yul\":6155:6161   */\n      0x00\n        /* \"#utility.yul\":6204:6206   */\n      0x20\n        /* \"#utility.yul\":6192:6201   */\n      dup3\n        /* \"#utility.yul\":6183:6190   */\n      dup5\n        /* \"#utility.yul\":6179:6202   */\n      sub\n        /* \"#utility.yul\":6175:6207   */\n      slt\n        /* \"#utility.yul\":6172:6291   */\n      iszero\n      tag_250\n      jumpi\n        /* \"#utility.yul\":6210:6289   */\n      tag_251\n      tag_133\n      jump\t// in\n    tag_251:\n        /* \"#utility.yul\":6172:6291   */\n    tag_250:\n        /* \"#utility.yul\":6330:6331   */\n      0x00\n        /* \"#utility.yul\":6355:6416   */\n      tag_252\n        /* \"#utility.yul\":6408:6415   */\n      dup5\n        /* \"#utility.yul\":6399:6405   */\n      dup3\n        /* \"#utility.yul\":6388:6397   */\n      dup6\n        /* \"#utility.yul\":6384:6406   */\n      add\n        /* \"#utility.yul\":6355:6416   */\n      tag_155\n      jump\t// in\n    tag_252:\n        /* \"#utility.yul\":6345:6416   */\n      swap2\n      pop\n        /* \"#utility.yul\":6301:6426   */\n      pop\n        /* \"#utility.yul\":6088:6433   */\n      swap3\n      swap2\n      pop\n      pop\n      jump\t// out\n        /* \"#utility.yul\":6439:6608   */\n    tag_156:\n        /* \"#utility.yul\":6523:6534   */\n      0x00\n        /* \"#utility.yul\":6557:6563   */\n      dup3\n        /* \"#utility.yul\":6552:6555   */\n      dup3\n        /* \"#utility.yul\":6545:6564   */\n      mstore\n        /* \"#utility.yul\":6597:6601   */\n      0x20\n        /* \"#utility.yul\":6592:6595   */\n      dup3\n        /* \"#utility.yul\":6588:6602   */\n      add\n        /* \"#utility.yul\":6573:6602   */\n      swap1\n      pop\n        /* \"#utility.yul\":6439:6608   */\n      swap3\n      swap2\n      pop\n      pop\n      jump\t// out\n        /* \"#utility.yul\":6614:6784   */\n    tag_157:\n        /* \"#utility.yul\":6754:6776   */\n      0x436f6d70616e79206e6f74207665726966696564000000000000000000000000\n        /* \"#utility.yul\":6750:6751   */\n      0x00\n        /* \"#utility.yul\":6742:6748   */\n      dup3\n        /* \"#utility.yul\":6738:6752   */\n      add\n        /* \"#utility.yul\":6731:6777   */\n      mstore\n        /* \"#utility.yul\":6614:6784   */\n      pop\n      jump\t// out\n        /* \"#utility.yul\":6790:7156   */\n    tag_158:\n        /* \"#utility.yul\":6932:6935   */\n      0x00\n        /* \"#utility.yul\":6953:7020   */\n      tag_256\n        /* \"#utility.yul\":7017:7019   */\n      0x14\n        /* \"#utility.yul\":7012:7015   */\n      dup4\n        /* \"#utility.yul\":6953:7020   */\n      tag_156\n      jump\t// in\n    tag_256:\n        /* \"#utility.yul\":6946:7020   */\n      swap2\n      pop\n        /* \"#utility.yul\":7029:7122   */\n      tag_257\n        /* \"#utility.yul\":7118:7121   */\n      dup3\n        /* \"#utility.yul\":7029:7122   */\n      tag_157\n      jump\t// in\n    tag_257:\n        /* \"#utility.yul\":7147:7149   */\n      0x20\n        /* \"#utility.yul\":7142:7145   */\n      dup3\n        /* \"#utility.yul\":7138:7150   */\n      add\n        /* \"#utility.yul\":7131:7150   */\n      swap1\n      pop\n        /* \"#utility.yul\":6790:7156   */\n      swap2\n      swap1\n      pop\n      jump\t// out\n        /* \"#utility.yul\":7162:7581   */\n    tag_58:\n        /* \"#utility.yul\":7328:7332   */\n      0x00\n        /* \"#utility.yul\":7366:7368   */\n      0x20\n        /* \"#utility.yul\":7355:7364   */\n      dup3\n        /* \"#utility.yul\":7351:7369   */\n      add\n        /* \"#utility.yul\":7343:7369   */\n      swap1\n      pop\n        /* \"#utility.yul\":7415:7424   */\n      dup2\n        /* \"#utility.yul\":7409:7413   */\n      dup2\n        /* \"#utility.yul\":7405:7425   */\n      sub\n        /* \"#utility.yul\":7401:7402   */\n      0x00\n        /* \"#utility.yul\":7390:7399   */\n      dup4\n        /* \"#utility.yul\":7386:7403   */\n      add\n        /* \"#utility.yul\":7379:7426   */\n      mstore\n        /* \"#utility.yul\":7443:7574   */\n      tag_259\n        /* \"#utility.yul\":7569:7573   */\n      dup2\n        /* \"#utility.yul\":7443:7574   */\n      tag_158\n      jump\t// in\n    tag_259:\n        /* \"#utility.yul\":7435:7574   */\n      swap1\n      pop\n        /* \"#utility.yul\":7162:7581   */\n      swap2\n      swap1\n      pop\n      jump\t// out\n        /* \"#utility.yul\":7587:7753   */\n    tag_159:\n        /* \"#utility.yul\":7727:7745   */\n      0x4e6f7420637265646974206f776e657200000000000000000000000000000000\n        /* \"#utility.yul\":7723:7724   */\n      0x00\n        /* \"#utility.yul\":7715:7721   */\n      dup3\n        /* \"#utility.yul\":7711:7725   */\n      add\n        /* \"#utility.yul\":7704:7746   */\n      mstore\n        /* \"#utility.yul\":7587:7753   */\n      pop\n      jump\t// out\n        /* \"#utility.yul\":7759:8125   */\n    tag_160:\n        /* \"#utility.yul\":7901:7904   */\n      0x00\n        /* \"#utility.yul\":7922:7989   */\n      tag_262\n        /* \"#utility.yul\":7986:7988   */\n      0x10\n        /* \"#utility.yul\":7981:7984   */\n      dup4\n        /* \"#utility.yul\":7922:7989   */\n      tag_156\n      jump\t// in\n    tag_262:\n        /* \"#utility.yul\":7915:7989   */\n      swap2\n      pop\n        /* \"#utility.yul\":7998:8091   */\n      tag_263\n        /* \"#utility.yul\":8087:8090   */\n      dup3\n        /* \"#utility.yul\":7998:8091   */\n      tag_159\n      jump\t// in\n    tag_263:\n        /* \"#utility.yul\":8116:8118   */\n      0x20\n        /* \"#utility.yul\":8111:8114   */\n      dup3\n        /* \"#utility.yul\":8107:8119   */\n      add\n        /* \"#utility.yul\":8100:8119   */\n      swap1\n      pop\n        /* \"#utility.yul\":7759:8125   */\n      swap2\n      swap1\n      pop\n      jump\t// out\n        /* \"#utility.yul\":8131:8550   */\n    tag_62:\n        /* \"#utility.yul\":8297:8301   */\n      0x00\n        /* \"#utility.yul\":8335:8337   */\n      0x20\n        /* \"#utility.yul\":8324:8333   */\n      dup3\n        /* \"#utility.yul\":8320:8338   */\n      add\n        /* \"#utility.yul\":8312:8338   */\n      swap1\n      pop\n        /* \"#utility.yul\":8384:8393   */\n      dup2\n        /* \"#utility.yul\":8378:8382   */\n      dup2\n        /* \"#utility.yul\":8374:8394   */\n      sub\n        /* \"#utility.yul\":8370:8371   */\n      0x00\n        /* \"#utility.yul\":8359:8368   */\n      dup4\n        /* \"#utility.yul\":8355:8372   */\n      add\n        /* \"#utility.yul\":8348:8395   */\n      mstore\n        /* \"#utility.yul\":8412:8543   */\n      tag_265\n        /* \"#utility.yul\":8538:8542   */\n      dup2\n        /* \"#utility.yul\":8412:8543   */\n      tag_160\n      jump\t// in\n    tag_265:\n        /* \"#utility.yul\":8404:8543   */\n      swap1\n      pop\n        /* \"#utility.yul\":8131:8550   */\n      swap2\n      swap1\n      pop\n      jump\t// out\n        /* \"#utility.yul\":8556:8720   */\n    tag_161:\n        /* \"#utility.yul\":8696:8712   */\n      0x4372656469742072657469726564000000000000000000000000000000000000\n        /* \"#utility.yul\":8692:8693   */\n      0x00\n        /* \"#utility.yul\":8684:8690   */\n      dup3\n        /* \"#utility.yul\":8680:8694   */\n      add\n        /* \"#utility.yul\":8673:8713   */\n      mstore\n        /* \"#utility.yul\":8556:8720   */\n      pop\n      jump\t// out\n        /* \"#utility.yul\":8726:9092   */\n    tag_162:\n        /* \"#utility.yul\":8868:8871   */\n      0x00\n        /* \"#utility.yul\":8889:8956   */\n      tag_268\n        /* \"#utility.yul\":8953:8955   */\n      0x0e\n        /* \"#utility.yul\":8948:8951   */\n      dup4\n        /* \"#utility.yul\":8889:8956   */\n      tag_156\n      jump\t// in\n    tag_268:\n        /* \"#utility.yul\":8882:8956   */\n      swap2\n      pop\n        /* \"#utility.yul\":8965:9058   */\n      tag_269\n        /* \"#utility.yul\":9054:9057   */\n      dup3\n        /* \"#utility.yul\":8965:9058   */\n      tag_161\n      jump\t// in\n    tag_269:\n        /* \"#utility.yul\":9083:9085   */\n      0x20\n        /* \"#utility.yul\":9078:9081   */\n      dup3\n        /* \"#utility.yul\":9074:9086   */\n      add\n        /* \"#utility.yul\":9067:9086   */\n      swap1\n      pop\n        /* \"#utility.yul\":8726:9092   */\n      swap2\n      swap1\n      pop\n      jump\t// out\n        /* \"#utility.yul\":9098:9517   */\n    tag_70:\n        /* \"#utility.yul\":9264:9268   */\n      0x00\n        /* \"#utility.yul\":9302:9304   */\n      0x20\n        /* \"#utility.yul\":9291:9300   */\n      dup3\n        /* \"#utility.yul\":9287:9305   */\n      add\n        /* \"#utility.yul\":9279:9305   */\n      swap1\n      pop\n        /* \"#utility.yul\":9351:9360   */\n      dup2\n        /* \"#utility.yul\":9345:9349   */\n      dup2\n        /* \"#utility.yul\":9341:9361   */\n      sub\n        /* \"#utility.yul\":9337:9338   */\n      0x00\n        /* \"#utility.yul\":9326:9335   */\n      dup4\n        /* \"#utility.yul\":9322:9339   */\n      add\n        /* \"#utility.yul\":9315:9362   */\n      mstore\n        /* \"#utility.yul\":9379:9510   */\n      tag_271\n        /* \"#utility.yul\":9505:9509   */\n      dup2\n        /* \"#utility.yul\":9379:9510   */\n      tag_162\n      jump\t// in\n    tag_271:\n        /* \"#utility.yul\":9371:9510   */\n      swap1\n      pop\n        /* \"#utility.yul\":9098:9517   */\n      swap2\n      swap1\n      pop\n      jump\t// out\n        /* \"#utility.yul\":9523:9691   */\n    tag_163:\n        /* \"#utility.yul\":9663:9683   */\n      0x4f6e6c792061646d696e20616c6c6f7765640000000000000000000000000000\n        /* \"#utility.yul\":9659:9660   */\n      0x00\n        /* \"#utility.yul\":9651:9657   */\n      dup3\n        /* \"#utility.yul\":9647:9661   */\n      add\n        /* \"#utility.yul\":9640:9684   */\n      mstore\n        /* \"#utility.yul\":9523:9691   */\n      pop\n      jump\t// out\n        /* \"#utility.yul\":9697:10063   */\n    tag_164:\n        /* \"#utility.yul\":9839:9842   */\n      0x00\n        /* \"#utility.yul\":9860:9927   */\n      tag_274\n        /* \"#utility.yul\":9924:9926   */\n      0x12\n        /* \"#utility.yul\":9919:9922   */\n      dup4\n        /* \"#utility.yul\":9860:9927   */\n      tag_156\n      jump\t// in\n    tag_274:\n        /* \"#utility.yul\":9853:9927   */\n      swap2\n      pop\n        /* \"#utility.yul\":9936:10029   */\n      tag_275\n        /* \"#utility.yul\":10025:10028   */\n      dup3\n        /* \"#utility.yul\":9936:10029   */\n      tag_163\n      jump\t// in\n    tag_275:\n        /* \"#utility.yul\":10054:10056   */\n      0x20\n        /* \"#utility.yul\":10049:10052   */\n      dup3\n        /* \"#utility.yul\":10045:10057   */\n      add\n        /* \"#utility.yul\":10038:10057   */\n      swap1\n      pop\n        /* \"#utility.yul\":9697:10063   */\n      swap2\n      swap1\n      pop\n      jump\t// out\n        /* \"#utility.yul\":10069:10488   */\n    tag_76:\n        /* \"#utility.yul\":10235:10239   */\n      0x00\n        /* \"#utility.yul\":10273:10275   */\n      0x20\n        /* \"#utility.yul\":10262:10271   */\n      dup3\n        /* \"#utility.yul\":10258:10276   */\n      add\n        /* \"#utility.yul\":10250:10276   */\n      swap1\n      pop\n        /* \"#utility.yul\":10322:10331   */\n      dup2\n        /* \"#utility.yul\":10316:10320   */\n      dup2\n        /* \"#utility.yul\":10312:10332   */\n      sub\n        /* \"#utility.yul\":10308:10309   */\n      0x00\n        /* \"#utility.yul\":10297:10306   */\n      dup4\n        /* \"#utility.yul\":10293:10310   */\n      add\n        /* \"#utility.yul\":10286:10333   */\n      mstore\n        /* \"#utility.yul\":10350:10481   */\n      tag_277\n        /* \"#utility.yul\":10476:10480   */\n      dup2\n        /* \"#utility.yul\":10350:10481   */\n      tag_164\n      jump\t// in\n    tag_277:\n        /* \"#utility.yul\":10342:10481   */\n      swap1\n      pop\n        /* \"#utility.yul\":10069:10488   */\n      swap2\n      swap1\n      pop\n      jump\t// out\n        /* \"#utility.yul\":10494:10662   */\n    tag_165:\n        /* \"#utility.yul\":10634:10654   */\n      0x416d6f756e74206d757374206265203e20300000000000000000000000000000\n        /* \"#utility.yul\":10630:10631   */\n      0x00\n        /* \"#utility.yul\":10622:10628   */\n      dup3\n        /* \"#utility.yul\":10618:10632   */\n      add\n        /* \"#utility.yul\":10611:10655   */\n      mstore\n        /* \"#utility.yul\":10494:10662   */\n      pop\n      jump\t// out\n        /* \"#utility.yul\":10668:11034   */\n    tag_166:\n        /* \"#utility.yul\":10810:10813   */\n      0x00\n        /* \"#utility.yul\":10831:10898   */\n      tag_280\n        /* \"#utility.yul\":10895:10897   */\n      0x12\n        /* \"#utility.yul\":10890:10893   */\n      dup4\n        /* \"#utility.yul\":10831:10898   */\n      tag_156\n      jump\t// in\n    tag_280:\n        /* \"#utility.yul\":10824:10898   */\n      swap2\n      pop\n        /* \"#utility.yul\":10907:11000   */\n      tag_281\n        /* \"#utility.yul\":10996:10999   */\n      dup3\n        /* \"#utility.yul\":10907:11000   */\n      tag_165\n      jump\t// in\n    tag_281:\n        /* \"#utility.yul\":11025:11027   */\n      0x20\n        /* \"#utility.yul\":11020:11023   */\n      dup3\n        /* \"#utility.yul\":11016:11028   */\n      add\n        /* \"#utility.yul\":11009:11028   */\n      swap1\n      pop\n        /* \"#utility.yul\":10668:11034   */\n      swap2\n      swap1\n      pop\n      jump\t// out\n        /* \"#utility.yul\":11040:11459   */\n    tag_87:\n        /* \"#utility.yul\":11206:11210   */\n      0x00\n        /* \"#utility.yul\":11244:11246   */\n      0x20\n        /* \"#utility.yul\":11233:11242   */\n      dup3\n        /* \"#utility.yul\":11229:11247   */\n      add\n        /* \"#utility.yul\":11221:11247   */\n      swap1\n      pop\n        /* \"#utility.yul\":11293:11302   */\n      dup2\n        /* \"#utility.yul\":11287:11291   */\n      dup2\n        /* \"#utility.yul\":11283:11303   */\n      sub\n        /* \"#utility.yul\":11279:11280   */\n      0x00\n        /* \"#utility.yul\":11268:11277   */\n      dup4\n        /* \"#utility.yul\":11264:11281   */\n      add\n        /* \"#utility.yul\":11257:11304   */\n      mstore\n        /* \"#utility.yul\":11321:11452   */\n      tag_283\n        /* \"#utility.yul\":11447:11451   */\n      dup2\n        /* \"#utility.yul\":11321:11452   */\n      tag_166\n      jump\t// in\n    tag_283:\n        /* \"#utility.yul\":11313:11452   */\n      swap1\n      pop\n        /* \"#utility.yul\":11040:11459   */\n      swap2\n      swap1\n      pop\n      jump\t// out\n        /* \"#utility.yul\":11465:11639   */\n    tag_167:\n        /* \"#utility.yul\":11605:11631   */\n      0x546f6f206d616e792063726564697473206174206f6e63650000000000000000\n        /* \"#utility.yul\":11601:11602   */\n      0x00\n        /* \"#utility.yul\":11593:11599   */\n      dup3\n        /* \"#utility.yul\":11589:11603   */\n      add\n        /* \"#utility.yul\":11582:11632   */\n      mstore\n        /* \"#utility.yul\":11465:11639   */\n      pop\n      jump\t// out\n        /* \"#utility.yul\":11645:12011   */\n    tag_168:\n        /* \"#utility.yul\":11787:11790   */\n      0x00\n        /* \"#utility.yul\":11808:11875   */\n      tag_286\n        /* \"#utility.yul\":11872:11874   */\n      0x18\n        /* \"#utility.yul\":11867:11870   */\n      dup4\n        /* \"#utility.yul\":11808:11875   */\n      tag_156\n      jump\t// in\n    tag_286:\n        /* \"#utility.yul\":11801:11875   */\n      swap2\n      pop\n        /* \"#utility.yul\":11884:11977   */\n      tag_287\n        /* \"#utility.yul\":11973:11976   */\n      dup3\n        /* \"#utility.yul\":11884:11977   */\n      tag_167\n      jump\t// in\n    tag_287:\n        /* \"#utility.yul\":12002:12004   */\n      0x20\n        /* \"#utility.yul\":11997:12000   */\n      dup3\n        /* \"#utility.yul\":11993:12005   */\n      add\n        /* \"#utility.yul\":11986:12005   */\n      swap1\n      pop\n        /* \"#utility.yul\":11645:12011   */\n      swap2\n      swap1\n      pop\n      jump\t// out\n        /* \"#utility.yul\":12017:12436   */\n    tag_90:\n        /* \"#utility.yul\":12183:12187   */\n      0x00\n        /* \"#utility.yul\":12221:12223   */\n      0x20\n        /* \"#utility.yul\":12210:12219   */\n      dup3\n        /* \"#utility.yul\":12206:12224   */\n      add\n        /* \"#utility.yul\":12198:12224   */\n      swap1\n      pop\n        /* \"#utility.yul\":12270:12279   */\n      dup2\n        /* \"#utility.yul\":12264:12268   */\n      dup2\n        /* \"#utility.yul\":12260:12280   */\n      sub\n        /* \"#utility.yul\":12256:12257   */\n      0x00\n        /* \"#utility.yul\":12245:12254   */\n      dup4\n        /* \"#utility.yul\":12241:12258   */\n      add\n        /* \"#utility.yul\":12234:12281   */\n      mstore\n        /* \"#utility.yul\":12298:12429   */\n      tag_289\n        /* \"#utility.yul\":12424:12428   */\n      dup2\n        /* \"#utility.yul\":12298:12429   */\n      tag_168\n      jump\t// in\n    tag_289:\n        /* \"#utility.yul\":12290:12429   */\n      swap1\n      pop\n        /* \"#utility.yul\":12017:12436   */\n      swap2\n      swap1\n      pop\n      jump\t// out\n        /* \"#utility.yul\":12442:12607   */\n    tag_169:\n        /* \"#utility.yul\":12582:12599   */\n      0x416c726561647920726574697265640000000000000000000000000000000000\n        /* \"#utility.yul\":12578:12579   */\n      0x00\n        /* \"#utility.yul\":12570:12576   */\n      dup3\n        /* \"#utility.yul\":12566:12580   */\n      add\n        /* \"#utility.yul\":12559:12600   */\n      mstore\n        /* \"#utility.yul\":12442:12607   */\n      pop\n      jump\t// out\n        /* \"#utility.yul\":12613:12979   */\n    tag_170:\n        /* \"#utility.yul\":12755:12758   */\n      0x00\n        /* \"#utility.yul\":12776:12843   */\n      tag_292\n        /* \"#utility.yul\":12840:12842   */\n      0x0f\n        /* \"#utility.yul\":12835:12838   */\n      dup4\n        /* \"#utility.yul\":12776:12843   */\n      tag_156\n      jump\t// in\n    tag_292:\n        /* \"#utility.yul\":12769:12843   */\n      swap2\n      pop\n        /* \"#utility.yul\":12852:12945   */\n      tag_293\n        /* \"#utility.yul\":12941:12944   */\n      dup3\n        /* \"#utility.yul\":12852:12945   */\n      tag_169\n      jump\t// in\n    tag_293:\n        /* \"#utility.yul\":12970:12972   */\n      0x20\n        /* \"#utility.yul\":12965:12968   */\n      dup3\n        /* \"#utility.yul\":12961:12973   */\n      add\n        /* \"#utility.yul\":12954:12973   */\n      swap1\n      pop\n        /* \"#utility.yul\":12613:12979   */\n      swap2\n      swap1\n      pop\n      jump\t// out\n        /* \"#utility.yul\":12985:13404   */\n    tag_122:\n        /* \"#utility.yul\":13151:13155   */\n      0x00\n        /* \"#utility.yul\":13189:13191   */\n      0x20\n        /* \"#utility.yul\":13178:13187   */\n      dup3\n        /* \"#utility.yul\":13174:13192   */\n      add\n        /* \"#utility.yul\":13166:13192   */\n      swap1\n      pop\n        /* \"#utility.yul\":13238:13247   */\n      dup2\n        /* \"#utility.yul\":13232:13236   */\n      dup2\n        /* \"#utility.yul\":13228:13248   */\n      sub\n        /* \"#utility.yul\":13224:13225   */\n      0x00\n        /* \"#utility.yul\":13213:13222   */\n      dup4\n        /* \"#utility.yul\":13209:13226   */\n      add\n        /* \"#utility.yul\":13202:13249   */\n      mstore\n        /* \"#utility.yul\":13266:13397   */\n      tag_295\n        /* \"#utility.yul\":13392:13396   */\n      dup2\n        /* \"#utility.yul\":13266:13397   */\n      tag_170\n      jump\t// in\n    tag_295:\n        /* \"#utility.yul\":13258:13397   */\n      swap1\n      pop\n        /* \"#utility.yul\":12985:13404   */\n      swap2\n      swap1\n      pop\n      jump\t// out\n        /* \"#utility.yul\":13410:13590   */\n    tag_171:\n        /* \"#utility.yul\":13458:13535   */\n      0x4e487b7100000000000000000000000000000000000000000000000000000000\n        /* \"#utility.yul\":13455:13456   */\n      0x00\n        /* \"#utility.yul\":13448:13536   */\n      mstore\n        /* \"#utility.yul\":13555:13559   */\n      0x11\n        /* \"#utility.yul\":13552:13553   */\n      0x04\n        /* \"#utility.yul\":13545:13560   */\n      mstore\n        /* \"#utility.yul\":13579:13583   */\n      0x24\n        /* \"#utility.yul\":13576:13577   */\n      0x00\n        /* \"#utility.yul\":13569:13584   */\n      revert\n        /* \"#utility.yul\":13596:13829   */\n    tag_127:\n        /* \"#utility.yul\":13635:13638   */\n      0x00\n        /* \"#utility.yul\":13658:13682   */\n      tag_298\n        /* \"#utility.yul\":13676:13681   */\n      dup3\n        /* \"#utility.yul\":13658:13682   */\n      tag_135\n      jump\t// in\n    tag_298:\n        /* \"#utility.yul\":13649:13682   */\n      swap2\n      pop\n        /* \"#utility.yul\":13704:13770   */\n      0xffffffffffffffffffffffffffffffffffffffffffffffffffffffffffffffff\n        /* \"#utility.yul\":13697:13702   */\n      dup3\n        /* \"#utility.yul\":13694:13771   */\n      sub\n        /* \"#utility.yul\":13691:13794   */\n      tag_299\n      jumpi\n        /* \"#utility.yul\":13774:13792   */\n      tag_300\n      tag_171\n      jump\t// in\n    tag_300:\n        /* \"#utility.yul\":13691:13794   */\n    tag_299:\n        /* \"#utility.yul\":13821:13822   */\n      0x01\n        /* \"#utility.yul\":13814:13819   */\n      dup3\n        /* \"#utility.yul\":13810:13823   */\n      add\n        /* \"#utility.yul\":13803:13823   */\n      swap1\n      pop\n        /* \"#utility.yul\":13596:13829   */\n      swap2\n      swap1\n      pop\n      jump\t// out\n\n    auxdata: 0xa26469706673582212200821180180892b0f689c3c5ecba68885b46233c9645cfed641dbcc45af0c36c564736f6c634300081f0033\n}\n",
				"bytecode": {
					"linkReferences": {},
					"object": "608060405234801561000f575f5ffd5b5060405161146138038061146183398181016040528101906100319190610114565b335f5f6101000a81548173ffffffffffffffffffffffffffffffffffffffff021916908373ffffffffffffffffffffffffffffffffffffffff1602179055508060015f6101000a81548173ffffffffffffffffffffffffffffffffffffffff021916908373ffffffffffffffffffffffffffffffffffffffff1602179055505061013f565b5f5ffd5b5f73ffffffffffffffffffffffffffffffffffffffff82169050919050565b5f6100e3826100ba565b9050919050565b6100f3816100d9565b81146100fd575f5ffd5b50565b5f8151905061010e816100ea565b92915050565b5f60208284031215610129576101286100b6565b5b5f61013684828501610100565b91505092915050565b6113158061014c5f395ff3fe608060405234801561000f575f5ffd5b5060043610610091575f3560e01c8063ae2036c111610064578063ae2036c11461011d578063c51aba2b14610139578063da304e4d14610157578063eb899eeb14610189578063f851a440146101a557610091565b8063036a1c2214610095578063074240ea146100c75780630df3a1e0146100e557806331b00f7a14610101575b5f5ffd5b6100af60048036038101906100aa9190610c8b565b6101c3565b6040516100be93929190610d77565b60405180910390f35b6100cf610215565b6040516100dc9190610dac565b60405180910390f35b6100ff60048036038101906100fa9190610def565b61021b565b005b61011b60048036038101906101169190610e2d565b6104e0565b005b61013760048036038101906101329190610e6b565b6106f6565b005b61014161086a565b60405161014e9190610ef1565b60405180910390f35b610171600480360381019061016c9190610c8b565b61088f565b60405161018093929190610d77565b60405180910390f35b6101a3600480360381019061019e9190610c8b565b610966565b005b6101ad610af7565b6040516101ba9190610f0a565b60405180910390f35b6003602052805f5260405f205f91509050805f015490806001015f9054906101000a900473ffffffffffffffffffffffffffffffffffffffff16908060010160149054906101000a900460ff16905083565b60025481565b8060015f9054906101000a900473ffffffffffffffffffffffffffffffffffffffff1673ffffffffffffffffffffffffffffffffffffffff1663bfc2defd826040518263ffffffff1660e01b81526004016102769190610f0a565b602060405180830381865afa158015610291573d5f5f3e3d5ffd5b505050506040513d601f19601f820116820180604052508101906102b59190610f58565b6102f4576040517f08c379a00000000000000000000000000000000000000000000000000000000081526004016102eb90610fdd565b60405180910390fd5b5f60035f8581526020019081526020015f2090503373ffffffffffffffffffffffffffffffffffffffff16816001015f9054906101000a900473ffffffffffffffffffffffffffffffffffffffff1673ffffffffffffffffffffffffffffffffffffffff1614610399576040517f08c379a000000000000000000000000000000000000000000000000000000000815260040161039090611045565b60405180910390fd5b6002808111156103ac576103ab610d04565b5b8160010160149054906101000a900460ff1660028111156103d0576103cf610d04565b5b03610410576040517f08c379a0000000000000000000000000000000000000000000000000000000008152600401610407906110ad565b60405180910390fd5b82816001015f6101000a81548173ffffffffffffffffffffffffffffffffffffffff021916908373ffffffffffffffffffffffffffffffffffffffff16021790555060018160010160146101000a81548160ff0219169083600281111561047a57610479610d04565b5b02179055508273ffffffffffffffffffffffffffffffffffffffff163373ffffffffffffffffffffffffffffffffffffffff16857f7498bf43d4148a03a165d093fcadc813f1a344a5f983812a2777c01f4dc2f0d660405160405180910390a450505050565b5f5f9054906101000a900473ffffffffffffffffffffffffffffffffffffffff1673ffffffffffffffffffffffffffffffffffffffff163373ffffffffffffffffffffffffffffffffffffffff161461056e576040517f08c379a000000000000000000000000000000000000000000000000000000000815260040161056590611115565b60405180910390fd5b8160015f9054906101000a900473ffffffffffffffffffffffffffffffffffffffff1673ffffffffffffffffffffffffffffffffffffffff1663bfc2defd826040518263ffffffff1660e01b81526004016105c99190610f0a565b602060405180830381865afa1580156105e4573d5f5f3e3d5ffd5b505050506040513d601f19601f820116820180604052508101906106089190610f58565b610647576040517f08c379a000000000000000000000000000000000000000000000000000000000815260040161063e90610fdd565b60405180910390fd5b5f8211610689576040517f08c379a00000000000000000000000000000000000000000000000000000000081526004016106809061117d565b60405180910390fd5b60648211156106cd576040517f08c379a00000000000000000000000000000000000000000000000000000000081526004016106c4906111e5565b60405180910390fd5b5f5f90505b828110156106f0576106e384610b1b565b80806001019150506106d2565b50505050565b5f5f9054906101000a900473ffffffffffffffffffffffffffffffffffffffff1673ffffffffffffffffffffffffffffffffffffffff163373ffffffffffffffffffffffffffffffffffffffff1614610784576040517f08c379a000000000000000000000000000000000000000000000000000000000815260040161077b90611115565b60405180910390fd5b8060015f9054906101000a900473ffffffffffffffffffffffffffffffffffffffff1673ffffffffffffffffffffffffffffffffffffffff1663bfc2defd826040518263ffffffff1660e01b81526004016107df9190610f0a565b602060405180830381865afa1580156107fa573d5f5f3e3d5ffd5b505050506040513d601f19601f8201168201806040525081019061081e9190610f58565b61085d576040517f08c379a000000000000000000000000000000000000000000000000000000000815260040161085490610fdd565b60405180910390fd5b61086682610b1b565b5050565b60015f9054906101000a900473ffffffffffffffffffffffffffffffffffffffff1681565b5f5f5f5f60035f8681526020019081526020015f206040518060600160405290815f8201548152602001600182015f9054906101000a900473ffffffffffffffffffffffffffffffffffffffff1673ffffffffffffffffffffffffffffffffffffffff1673ffffffffffffffffffffffffffffffffffffffff1681526020016001820160149054906101000a900460ff16600281111561093257610931610d04565b5b600281111561094457610943610d04565b5b815250509050805f015181602001518260400151935093509350509193909250565b5f60035f8381526020019081526020015f2090503373ffffffffffffffffffffffffffffffffffffffff16816001015f9054906101000a900473ffffffffffffffffffffffffffffffffffffffff1673ffffffffffffffffffffffffffffffffffffffff1614610a0b576040517f08c379a0000000000000000000000000000000000000000000000000000000008152600401610a0290611045565b60405180910390fd5b600280811115610a1e57610a1d610d04565b5b8160010160149054906101000a900460ff166002811115610a4257610a41610d04565b5b03610a82576040517f08c379a0000000000000000000000000000000000000000000000000000000008152600401610a799061124d565b60405180910390fd5b60028160010160146101000a81548160ff02191690836002811115610aaa57610aa9610d04565b5b02179055503373ffffffffffffffffffffffffffffffffffffffff16827fa0f88bdc93ff6217657196ec633234f6709c7e841f6bfc701d62861f30e40f0c60405160405180910390a35050565b5f5f9054906101000a900473ffffffffffffffffffffffffffffffffffffffff1681565b60025f815480929190610b2d90611298565b9190505550604051806060016040528060025481526020018273ffffffffffffffffffffffffffffffffffffffff1681526020015f6002811115610b7457610b73610d04565b5b81525060035f60025481526020019081526020015f205f820151815f01556020820151816001015f6101000a81548173ffffffffffffffffffffffffffffffffffffffff021916908373ffffffffffffffffffffffffffffffffffffffff16021790555060408201518160010160146101000a81548160ff02191690836002811115610c0357610c02610d04565b5b02179055509050508073ffffffffffffffffffffffffffffffffffffffff166002547f9411640525281b98a1ce0a7523697265fe74f3abe4b0b7e7fa9bbe8a28f3901060405160405180910390a350565b5f5ffd5b5f819050919050565b610c6a81610c58565b8114610c74575f5ffd5b50565b5f81359050610c8581610c61565b92915050565b5f60208284031215610ca057610c9f610c54565b5b5f610cad84828501610c77565b91505092915050565b610cbf81610c58565b82525050565b5f73ffffffffffffffffffffffffffffffffffffffff82169050919050565b5f610cee82610cc5565b9050919050565b610cfe81610ce4565b82525050565b7f4e487b71000000000000000000000000000000000000000000000000000000005f52602160045260245ffd5b60038110610d4257610d41610d04565b5b50565b5f819050610d5282610d31565b919050565b5f610d6182610d45565b9050919050565b610d7181610d57565b82525050565b5f606082019050610d8a5f830186610cb6565b610d976020830185610cf5565b610da46040830184610d68565b949350505050565b5f602082019050610dbf5f830184610cb6565b92915050565b610dce81610ce4565b8114610dd8575f5ffd5b50565b5f81359050610de981610dc5565b92915050565b5f5f60408385031215610e0557610e04610c54565b5b5f610e1285828601610c77565b9250506020610e2385828601610ddb565b9150509250929050565b5f5f60408385031215610e4357610e42610c54565b5b5f610e5085828601610ddb565b9250506020610e6185828601610c77565b9150509250929050565b5f60208284031215610e8057610e7f610c54565b5b5f610e8d84828501610ddb565b91505092915050565b5f819050919050565b5f610eb9610eb4610eaf84610cc5565b610e96565b610cc5565b9050919050565b5f610eca82610e9f565b9050919050565b5f610edb82610ec0565b9050919050565b610eeb81610ed1565b82525050565b5f602082019050610f045f830184610ee2565b92915050565b5f602082019050610f1d5f830184610cf5565b92915050565b5f8115159050919050565b610f3781610f23565b8114610f41575f5ffd5b50565b5f81519050610f5281610f2e565b92915050565b5f60208284031215610f6d57610f6c610c54565b5b5f610f7a84828501610f44565b91505092915050565b5f82825260208201905092915050565b7f436f6d70616e79206e6f742076657269666965640000000000000000000000005f82015250565b5f610fc7601483610f83565b9150610fd282610f93565b602082019050919050565b5f6020820190508181035f830152610ff481610fbb565b9050919050565b7f4e6f7420637265646974206f776e6572000000000000000000000000000000005f82015250565b5f61102f601083610f83565b915061103a82610ffb565b602082019050919050565b5f6020820190508181035f83015261105c81611023565b9050919050565b7f43726564697420726574697265640000000000000000000000000000000000005f82015250565b5f611097600e83610f83565b91506110a282611063565b602082019050919050565b5f6020820190508181035f8301526110c48161108b565b9050919050565b7f4f6e6c792061646d696e20616c6c6f77656400000000000000000000000000005f82015250565b5f6110ff601283610f83565b915061110a826110cb565b602082019050919050565b5f6020820190508181035f83015261112c816110f3565b9050919050565b7f416d6f756e74206d757374206265203e203000000000000000000000000000005f82015250565b5f611167601283610f83565b915061117282611133565b602082019050919050565b5f6020820190508181035f8301526111948161115b565b9050919050565b7f546f6f206d616e792063726564697473206174206f6e636500000000000000005f82015250565b5f6111cf601883610f83565b91506111da8261119b565b602082019050919050565b5f6020820190508181035f8301526111fc816111c3565b9050919050565b7f416c7265616479207265746972656400000000000000000000000000000000005f82015250565b5f611237600f83610f83565b915061124282611203565b602082019050919050565b5f6020820190508181035f8301526112648161122b565b9050919050565b7f4e487b71000000000000000000000000000000000000000000000000000000005f52601160045260245ffd5b5f6112a282610c58565b91507fffffffffffffffffffffffffffffffffffffffffffffffffffffffffffffffff82036112d4576112d361126b565b5b60018201905091905056fea26469706673582212200821180180892b0f689c3c5ecba68885b46233c9645cfed641dbcc45af0c36c564736f6c634300081f0033",
					"opcodes": "PUSH1 0x80 PUSH1 0x40 MSTORE CALLVALUE DUP1 ISZERO PUSH2 0xF JUMPI PUSH0 PUSH0 REVERT JUMPDEST POP PUSH1 0x40 MLOAD PUSH2 0x1461 CODESIZE SUB DUP1 PUSH2 0x1461 DUP4 CODECOPY DUP2 DUP2 ADD PUSH1 0x40 MSTORE DUP2 ADD SWAP1 PUSH2 0x31 SWAP2 SWAP1 PUSH2 0x114 JUMP JUMPDEST CALLER PUSH0 PUSH0 PUSH2 0x100 EXP DUP2 SLOAD DUP2 PUSH20 0xFFFFFFFFFFFFFFFFFFFFFFFFFFFFFFFFFFFFFFFF MUL NOT AND SWAP1 DUP4 PUSH20 0xFFFFFFFFFFFFFFFFFFFFFFFFFFFFFFFFFFFFFFFF AND MUL OR SWAP1 SSTORE POP DUP1 PUSH1 0x1 PUSH0 PUSH2 0x100 EXP DUP2 SLOAD DUP2 PUSH20 0xFFFFFFFFFFFFFFFFFFFFFFFFFFFFFFFFFFFFFFFF MUL NOT AND SWAP1 DUP4 PUSH20 0xFFFFFFFFFFFFFFFFFFFFFFFFFFFFFFFFFFFFFFFF AND MUL OR SWAP1 SSTORE POP POP PUSH2 0x13F JUMP JUMPDEST PUSH0 PUSH0 REVERT JUMPDEST PUSH0 PUSH20 0xFFFFFFFFFFFFFFFFFFFFFFFFFFFFFFFFFFFFFFFF DUP3 AND SWAP1 POP SWAP2 SWAP1 POP JUMP JUMPDEST PUSH0 PUSH2 0xE3 DUP3 PUSH2 0xBA JUMP JUMPDEST SWAP1 POP SWAP2 SWAP1 POP JUMP JUMPDEST PUSH2 0xF3 DUP2 PUSH2 0xD9 JUMP JUMPDEST DUP2 EQ PUSH2 0xFD JUMPI PUSH0 PUSH0 REVERT JUMPDEST POP JUMP JUMPDEST PUSH0 DUP2 MLOAD SWAP1 POP PUSH2 0x10E DUP2 PUSH2 0xEA JUMP JUMPDEST SWAP3 SWAP2 POP POP JUMP JUMPDEST PUSH0 PUSH1 0x20 DUP3 DUP5 SUB SLT ISZERO PUSH2 0x129 JUMPI PUSH2 0x128 PUSH2 0xB6 JUMP JUMPDEST JUMPDEST PUSH0 PUSH2 0x136 DUP5 DUP3 DUP6 ADD PUSH2 0x100 JUMP JUMPDEST SWAP2 POP POP SWAP3 SWAP2 POP POP JUMP JUMPDEST PUSH2 0x1315 DUP1 PUSH2 0x14C PUSH0 CODECOPY PUSH0 RETURN INVALID PUSH1 0x80 PUSH1 0x40 MSTORE CALLVALUE DUP1 ISZERO PUSH2 0xF JUMPI PUSH0 PUSH0 REVERT JUMPDEST POP PUSH1 0x4 CALLDATASIZE LT PUSH2 0x91 JUMPI PUSH0 CALLDATALOAD PUSH1 0xE0 SHR DUP1 PUSH4 0xAE2036C1 GT PUSH2 0x64 JUMPI DUP1 PUSH4 0xAE2036C1 EQ PUSH2 0x11D JUMPI DUP1 PUSH4 0xC51ABA2B EQ PUSH2 0x139 JUMPI DUP1 PUSH4 0xDA304E4D EQ PUSH2 0x157 JUMPI DUP1 PUSH4 0xEB899EEB EQ PUSH2 0x189 JUMPI DUP1 PUSH4 0xF851A440 EQ PUSH2 0x1A5 JUMPI PUSH2 0x91 JUMP JUMPDEST DUP1 PUSH4 0x36A1C22 EQ PUSH2 0x95 JUMPI DUP1 PUSH4 0x74240EA EQ PUSH2 0xC7 JUMPI DUP1 PUSH4 0xDF3A1E0 EQ PUSH2 0xE5 JUMPI DUP1 PUSH4 0x31B00F7A EQ PUSH2 0x101 JUMPI JUMPDEST PUSH0 PUSH0 REVERT JUMPDEST PUSH2 0xAF PUSH1 0x4 DUP1 CALLDATASIZE SUB DUP2 ADD SWAP1 PUSH2 0xAA SWAP2 SWAP1 PUSH2 0xC8B JUMP JUMPDEST PUSH2 0x1C3 JUMP JUMPDEST PUSH1 0x40 MLOAD PUSH2 0xBE SWAP4 SWAP3 SWAP2 SWAP1 PUSH2 0xD77 JUMP JUMPDEST PUSH1 0x40 MLOAD DUP1 SWAP2 SUB SWAP1 RETURN JUMPDEST PUSH2 0xCF PUSH2 0x215 JUMP JUMPDEST PUSH1 0x40 MLOAD PUSH2 0xDC SWAP2 SWAP1 PUSH2 0xDAC JUMP JUMPDEST PUSH1 0x40 MLOAD DUP1 SWAP2 SUB SWAP1 RETURN JUMPDEST PUSH2 0xFF PUSH1 0x4 DUP1 CALLDATASIZE SUB DUP2 ADD SWAP1 PUSH2 0xFA SWAP2 SWAP1 PUSH2 0xDEF JUMP JUMPDEST PUSH2 0x21B JUMP JUMPDEST STOP JUMPDEST PUSH2 0x11B PUSH1 0x4 DUP1 CALLDATASIZE SUB DUP2 ADD SWAP1 PUSH2 0x116 SWAP2 SWAP1 PUSH2 0xE2D JUMP JUMPDEST PUSH2 0x4E0 JUMP JUMPDEST STOP JUMPDEST PUSH2 0x137 PUSH1 0x4 DUP1 CALLDATASIZE SUB DUP2 ADD SWAP1 PUSH2 0x132 SWAP2 SWAP1 PUSH2 0xE6B JUMP JUMPDEST PUSH2 0x6F6 JUMP JUMPDEST STOP JUMPDEST PUSH2 0x141 PUSH2 0x86A JUMP JUMPDEST PUSH1 0x40 MLOAD PUSH2 0x14E SWAP2 SWAP1 PUSH2 0xEF1 JUMP JUMPDEST PUSH1 0x40 MLOAD DUP1 SWAP2 SUB SWAP1 RETURN JUMPDEST PUSH2 0x171 PUSH1 0x4 DUP1 CALLDATASIZE SUB DUP2 ADD SWAP1 PUSH2 0x16C SWAP2 SWAP1 PUSH2 0xC8B JUMP JUMPDEST PUSH2 0x88F JUMP JUMPDEST PUSH1 0x40 MLOAD PUSH2 0x180 SWAP4 SWAP3 SWAP2 SWAP1 PUSH2 0xD77 JUMP JUMPDEST PUSH1 0x40 MLOAD DUP1 SWAP2 SUB SWAP1 RETURN JUMPDEST PUSH2 0x1A3 PUSH1 0x4 DUP1 CALLDATASIZE SUB DUP2 ADD SWAP1 PUSH2 0x19E SWAP2 SWAP1 PUSH2 0xC8B JUMP JUMPDEST PUSH2 0x966 JUMP JUMPDEST STOP JUMPDEST PUSH2 0x1AD PUSH2 0xAF7 JUMP JUMPDEST PUSH1 0x40 MLOAD PUSH2 0x1BA SWAP2 SWAP1 PUSH2 0xF0A JUMP JUMPDEST PUSH1 0x40 MLOAD DUP1 SWAP2 SUB SWAP1 RETURN JUMPDEST PUSH1 0x3 PUSH1 0x20 MSTORE DUP1 PUSH0 MSTORE PUSH1 0x40 PUSH0 KECCAK256 PUSH0 SWAP2 POP SWAP1 POP DUP1 PUSH0 ADD SLOAD SWAP1 DUP1 PUSH1 0x1 ADD PUSH0 SWAP1 SLOAD SWAP1 PUSH2 0x100 EXP SWAP1 DIV PUSH20 0xFFFFFFFFFFFFFFFFFFFFFFFFFFFFFFFFFFFFFFFF AND SWAP1 DUP1 PUSH1 0x1 ADD PUSH1 0x14 SWAP1 SLOAD SWAP1 PUSH2 0x100 EXP SWAP1 DIV PUSH1 0xFF AND SWAP1 POP DUP4 JUMP JUMPDEST PUSH1 0x2 SLOAD DUP2 JUMP JUMPDEST DUP1 PUSH1 0x1 PUSH0 SWAP1 SLOAD SWAP1 PUSH2 0x100 EXP SWAP1 DIV PUSH20 0xFFFFFFFFFFFFFFFFFFFFFFFFFFFFFFFFFFFFFFFF AND PUSH20 0xFFFFFFFFFFFFFFFFFFFFFFFFFFFFFFFFFFFFFFFF AND PUSH4 0xBFC2DEFD DUP3 PUSH1 0x40 MLOAD DUP3 PUSH4 0xFFFFFFFF AND PUSH1 0xE0 SHL DUP2 MSTORE PUSH1 0x4 ADD PUSH2 0x276 SWAP2 SWAP1 PUSH2 0xF0A JUMP JUMPDEST PUSH1 0x20 PUSH1 0x40 MLOAD DUP1 DUP4 SUB DUP2 DUP7 GAS STATICCALL ISZERO DUP1 ISZERO PUSH2 0x291 JUMPI RETURNDATASIZE PUSH0 PUSH0 RETURNDATACOPY RETURNDATASIZE PUSH0 REVERT JUMPDEST POP POP POP POP PUSH1 0x40 MLOAD RETURNDATASIZE PUSH1 0x1F NOT PUSH1 0x1F DUP3 ADD AND DUP3 ADD DUP1 PUSH1 0x40 MSTORE POP DUP2 ADD SWAP1 PUSH2 0x2B5 SWAP2 SWAP1 PUSH2 0xF58 JUMP JUMPDEST PUSH2 0x2F4 JUMPI PUSH1 0x40 MLOAD PUSH32 0x8C379A000000000000000000000000000000000000000000000000000000000 DUP2 MSTORE PUSH1 0x4 ADD PUSH2 0x2EB SWAP1 PUSH2 0xFDD JUMP JUMPDEST PUSH1 0x40 MLOAD DUP1 SWAP2 SUB SWAP1 REVERT JUMPDEST PUSH0 PUSH1 0x3 PUSH0 DUP6 DUP2 MSTORE PUSH1 0x20 ADD SWAP1 DUP2 MSTORE PUSH1 0x20 ADD PUSH0 KECCAK256 SWAP1 POP CALLER PUSH20 0xFFFFFFFFFFFFFFFFFFFFFFFFFFFFFFFFFFFFFFFF AND DUP2 PUSH1 0x1 ADD PUSH0 SWAP1 SLOAD SWAP1 PUSH2 0x100 EXP SWAP1 DIV PUSH20 0xFFFFFFFFFFFFFFFFFFFFFFFFFFFFFFFFFFFFFFFF AND PUSH20 0xFFFFFFFFFFFFFFFFFFFFFFFFFFFFFFFFFFFFFFFF AND EQ PUSH2 0x399 JUMPI PUSH1 0x40 MLOAD PUSH32 0x8C379A000000000000000000000000000000000000000000000000000000000 DUP2 MSTORE PUSH1 0x4 ADD PUSH2 0x390 SWAP1 PUSH2 0x1045 JUMP JUMPDEST PUSH1 0x40 MLOAD DUP1 SWAP2 SUB SWAP1 REVERT JUMPDEST PUSH1 0x2 DUP1 DUP2 GT ISZERO PUSH2 0x3AC JUMPI PUSH2 0x3AB PUSH2 0xD04 JUMP JUMPDEST JUMPDEST DUP2 PUSH1 0x1 ADD PUSH1 0x14 SWAP1 SLOAD SWAP1 PUSH2 0x100 EXP SWAP1 DIV PUSH1 0xFF AND PUSH1 0x2 DUP2 GT ISZERO PUSH2 0x3D0 JUMPI PUSH2 0x3CF PUSH2 0xD04 JUMP JUMPDEST JUMPDEST SUB PUSH2 0x410 JUMPI PUSH1 0x40 MLOAD PUSH32 0x8C379A000000000000000000000000000000000000000000000000000000000 DUP2 MSTORE PUSH1 0x4 ADD PUSH2 0x407 SWAP1 PUSH2 0x10AD JUMP JUMPDEST PUSH1 0x40 MLOAD DUP1 SWAP2 SUB SWAP1 REVERT JUMPDEST DUP3 DUP2 PUSH1 0x1 ADD PUSH0 PUSH2 0x100 EXP DUP2 SLOAD DUP2 PUSH20 0xFFFFFFFFFFFFFFFFFFFFFFFFFFFFFFFFFFFFFFFF MUL NOT AND SWAP1 DUP4 PUSH20 0xFFFFFFFFFFFFFFFFFFFFFFFFFFFFFFFFFFFFFFFF AND MUL OR SWAP1 SSTORE POP PUSH1 0x1 DUP2 PUSH1 0x1 ADD PUSH1 0x14 PUSH2 0x100 EXP DUP2 SLOAD DUP2 PUSH1 0xFF MUL NOT AND SWAP1 DUP4 PUSH1 0x2 DUP2 GT ISZERO PUSH2 0x47A JUMPI PUSH2 0x479 PUSH2 0xD04 JUMP JUMPDEST JUMPDEST MUL OR SWAP1 SSTORE POP DUP3 PUSH20 0xFFFFFFFFFFFFFFFFFFFFFFFFFFFFFFFFFFFFFFFF AND CALLER PUSH20 0xFFFFFFFFFFFFFFFFFFFFFFFFFFFFFFFFFFFFFFFF AND DUP6 PUSH32 0x7498BF43D4148A03A165D093FCADC813F1A344A5F983812A2777C01F4DC2F0D6 PUSH1 0x40 MLOAD PUSH1 0x40 MLOAD DUP1 SWAP2 SUB SWAP1 LOG4 POP POP POP POP JUMP JUMPDEST PUSH0 PUSH0 SWAP1 SLOAD SWAP1 PUSH2 0x100 EXP SWAP1 DIV PUSH20 0xFFFFFFFFFFFFFFFFFFFFFFFFFFFFFFFFFFFFFFFF AND PUSH20 0xFFFFFFFFFFFFFFFFFFFFFFFFFFFFFFFFFFFFFFFF AND CALLER PUSH20 0xFFFFFFFFFFFFFFFFFFFFFFFFFFFFFFFFFFFFFFFF AND EQ PUSH2 0x56E JUMPI PUSH1 0x40 MLOAD PUSH32 0x8C379A000000000000000000000000000000000000000000000000000000000 DUP2 MSTORE PUSH1 0x4 ADD PUSH2 0x565 SWAP1 PUSH2 0x1115 JUMP JUMPDEST PUSH1 0x40 MLOAD DUP1 SWAP2 SUB SWAP1 REVERT JUMPDEST DUP2 PUSH1 0x1 PUSH0 SWAP1 SLOAD SWAP1 PUSH2 0x100 EXP SWAP1 DIV PUSH20 0xFFFFFFFFFFFFFFFFFFFFFFFFFFFFFFFFFFFFFFFF AND PUSH20 0xFFFFFFFFFFFFFFFFFFFFFFFFFFFFFFFFFFFFFFFF AND PUSH4 0xBFC2DEFD DUP3 PUSH1 0x40 MLOAD DUP3 PUSH4 0xFFFFFFFF AND PUSH1 0xE0 SHL DUP2 MSTORE PUSH1 0x4 ADD PUSH2 0x5C9 SWAP2 SWAP1 PUSH2 0xF0A JUMP JUMPDEST PUSH1 0x20 PUSH1 0x40 MLOAD DUP1 DUP4 SUB DUP2 DUP7 GAS STATICCALL ISZERO DUP1 ISZERO PUSH2 0x5E4 JUMPI RETURNDATASIZE PUSH0 PUSH0 RETURNDATACOPY RETURNDATASIZE PUSH0 REVERT JUMPDEST POP POP POP POP PUSH1 0x40 MLOAD RETURNDATASIZE PUSH1 0x1F NOT PUSH1 0x1F DUP3 ADD AND DUP3 ADD DUP1 PUSH1 0x40 MSTORE POP DUP2 ADD SWAP1 PUSH2 0x608 SWAP2 SWAP1 PUSH2 0xF58 JUMP JUMPDEST PUSH2 0x647 JUMPI PUSH1 0x40 MLOAD PUSH32 0x8C379A000000000000000000000000000000000000000000000000000000000 DUP2 MSTORE PUSH1 0x4 ADD PUSH2 0x63E SWAP1 PUSH2 0xFDD JUMP JUMPDEST PUSH1 0x40 MLOAD DUP1 SWAP2 SUB SWAP1 REVERT JUMPDEST PUSH0 DUP3 GT PUSH2 0x689 JUMPI PUSH1 0x40 MLOAD PUSH32 0x8C379A000000000000000000000000000000000000000000000000000000000 DUP2 MSTORE PUSH1 0x4 ADD PUSH2 0x680 SWAP1 PUSH2 0x117D JUMP JUMPDEST PUSH1 0x40 MLOAD DUP1 SWAP2 SUB SWAP1 REVERT JUMPDEST PUSH1 0x64 DUP3 GT ISZERO PUSH2 0x6CD JUMPI PUSH1 0x40 MLOAD PUSH32 0x8C379A000000000000000000000000000000000000000000000000000000000 DUP2 MSTORE PUSH1 0x4 ADD PUSH2 0x6C4 SWAP1 PUSH2 0x11E5 JUMP JUMPDEST PUSH1 0x40 MLOAD DUP1 SWAP2 SUB SWAP1 REVERT JUMPDEST PUSH0 PUSH0 SWAP1 POP JUMPDEST DUP3 DUP2 LT ISZERO PUSH2 0x6F0 JUMPI PUSH2 0x6E3 DUP5 PUSH2 0xB1B JUMP JUMPDEST DUP1 DUP1 PUSH1 0x1 ADD SWAP2 POP POP PUSH2 0x6D2 JUMP JUMPDEST POP POP POP POP JUMP JUMPDEST PUSH0 PUSH0 SWAP1 SLOAD SWAP1 PUSH2 0x100 EXP SWAP1 DIV PUSH20 0xFFFFFFFFFFFFFFFFFFFFFFFFFFFFFFFFFFFFFFFF AND PUSH20 0xFFFFFFFFFFFFFFFFFFFFFFFFFFFFFFFFFFFFFFFF AND CALLER PUSH20 0xFFFFFFFFFFFFFFFFFFFFFFFFFFFFFFFFFFFFFFFF AND EQ PUSH2 0x784 JUMPI PUSH1 0x40 MLOAD PUSH32 0x8C379A000000000000000000000000000000000000000000000000000000000 DUP2 MSTORE PUSH1 0x4 ADD PUSH2 0x77B SWAP1 PUSH2 0x1115 JUMP JUMPDEST PUSH1 0x40 MLOAD DUP1 SWAP2 SUB SWAP1 REVERT JUMPDEST DUP1 PUSH1 0x1 PUSH0 SWAP1 SLOAD SWAP1 PUSH2 0x100 EXP SWAP1 DIV PUSH20 0xFFFFFFFFFFFFFFFFFFFFFFFFFFFFFFFFFFFFFFFF AND PUSH20 0xFFFFFFFFFFFFFFFFFFFFFFFFFFFFFFFFFFFFFFFF AND PUSH4 0xBFC2DEFD DUP3 PUSH1 0x40 MLOAD DUP3 PUSH4 0xFFFFFFFF AND PUSH1 0xE0 SHL DUP2 MSTORE PUSH1 0x4 ADD PUSH2 0x7DF SWAP2 SWAP1 PUSH2 0xF0A JUMP JUMPDEST PUSH1 0x20 PUSH1 0x40 MLOAD DUP1 DUP4 SUB DUP2 DUP7 GAS STATICCALL ISZERO DUP1 ISZERO PUSH2 0x7FA JUMPI RETURNDATASIZE PUSH0 PUSH0 RETURNDATACOPY RETURNDATASIZE PUSH0 REVERT JUMPDEST POP POP POP POP PUSH1 0x40 MLOAD RETURNDATASIZE PUSH1 0x1F NOT PUSH1 0x1F DUP3 ADD AND DUP3 ADD DUP1 PUSH1 0x40 MSTORE POP DUP2 ADD SWAP1 PUSH2 0x81E SWAP2 SWAP1 PUSH2 0xF58 JUMP JUMPDEST PUSH2 0x85D JUMPI PUSH1 0x40 MLOAD PUSH32 0x8C379A000000000000000000000000000000000000000000000000000000000 DUP2 MSTORE PUSH1 0x4 ADD PUSH2 0x854 SWAP1 PUSH2 0xFDD JUMP JUMPDEST PUSH1 0x40 MLOAD DUP1 SWAP2 SUB SWAP1 REVERT JUMPDEST PUSH2 0x866 DUP3 PUSH2 0xB1B JUMP JUMPDEST POP POP JUMP JUMPDEST PUSH1 0x1 PUSH0 SWAP1 SLOAD SWAP1 PUSH2 0x100 EXP SWAP1 DIV PUSH20 0xFFFFFFFFFFFFFFFFFFFFFFFFFFFFFFFFFFFFFFFF AND DUP2 JUMP JUMPDEST PUSH0 PUSH0 PUSH0 PUSH0 PUSH1 0x3 PUSH0 DUP7 DUP2 MSTORE PUSH1 0x20 ADD SWAP1 DUP2 MSTORE PUSH1 0x20 ADD PUSH0 KECCAK256 PUSH1 0x40 MLOAD DUP1 PUSH1 0x60 ADD PUSH1 0x40 MSTORE SWAP1 DUP2 PUSH0 DUP3 ADD SLOAD DUP2 MSTORE PUSH1 0x20 ADD PUSH1 0x1 DUP3 ADD PUSH0 SWAP1 SLOAD SWAP1 PUSH2 0x100 EXP SWAP1 DIV PUSH20 0xFFFFFFFFFFFFFFFFFFFFFFFFFFFFFFFFFFFFFFFF AND PUSH20 0xFFFFFFFFFFFFFFFFFFFFFFFFFFFFFFFFFFFFFFFF AND PUSH20 0xFFFFFFFFFFFFFFFFFFFFFFFFFFFFFFFFFFFFFFFF AND DUP2 MSTORE PUSH1 0x20 ADD PUSH1 0x1 DUP3 ADD PUSH1 0x14 SWAP1 SLOAD SWAP1 PUSH2 0x100 EXP SWAP1 DIV PUSH1 0xFF AND PUSH1 0x2 DUP2 GT ISZERO PUSH2 0x932 JUMPI PUSH2 0x931 PUSH2 0xD04 JUMP JUMPDEST JUMPDEST PUSH1 0x2 DUP2 GT ISZERO PUSH2 0x944 JUMPI PUSH2 0x943 PUSH2 0xD04 JUMP JUMPDEST JUMPDEST DUP2 MSTORE POP POP SWAP1 POP DUP1 PUSH0 ADD MLOAD DUP2 PUSH1 0x20 ADD MLOAD DUP3 PUSH1 0x40 ADD MLOAD SWAP4 POP SWAP4 POP SWAP4 POP POP SWAP2 SWAP4 SWAP1 SWAP3 POP JUMP JUMPDEST PUSH0 PUSH1 0x3 PUSH0 DUP4 DUP2 MSTORE PUSH1 0x20 ADD SWAP1 DUP2 MSTORE PUSH1 0x20 ADD PUSH0 KECCAK256 SWAP1 POP CALLER PUSH20 0xFFFFFFFFFFFFFFFFFFFFFFFFFFFFFFFFFFFFFFFF AND DUP2 PUSH1 0x1 ADD PUSH0 SWAP1 SLOAD SWAP1 PUSH2 0x100 EXP SWAP1 DIV PUSH20 0xFFFFFFFFFFFFFFFFFFFFFFFFFFFFFFFFFFFFFFFF AND PUSH20 0xFFFFFFFFFFFFFFFFFFFFFFFFFFFFFFFFFFFFFFFF AND EQ PUSH2 0xA0B JUMPI PUSH1 0x40 MLOAD PUSH32 0x8C379A000000000000000000000000000000000000000000000000000000000 DUP2 MSTORE PUSH1 0x4 ADD PUSH2 0xA02 SWAP1 PUSH2 0x1045 JUMP JUMPDEST PUSH1 0x40 MLOAD DUP1 SWAP2 SUB SWAP1 REVERT JUMPDEST PUSH1 0x2 DUP1 DUP2 GT ISZERO PUSH2 0xA1E JUMPI PUSH2 0xA1D PUSH2 0xD04 JUMP JUMPDEST JUMPDEST DUP2 PUSH1 0x1 ADD PUSH1 0x14 SWAP1 SLOAD SWAP1 PUSH2 0x100 EXP SWAP1 DIV PUSH1 0xFF AND PUSH1 0x2 DUP2 GT ISZERO PUSH2 0xA42 JUMPI PUSH2 0xA41 PUSH2 0xD04 JUMP JUMPDEST JUMPDEST SUB PUSH2 0xA82 JUMPI PUSH1 0x40 MLOAD PUSH32 0x8C379A000000000000000000000000000000000000000000000000000000000 DUP2 MSTORE PUSH1 0x4 ADD PUSH2 0xA79 SWAP1 PUSH2 0x124D JUMP JUMPDEST PUSH1 0x40 MLOAD DUP1 SWAP2 SUB SWAP1 REVERT JUMPDEST PUSH1 0x2 DUP2 PUSH1 0x1 ADD PUSH1 0x14 PUSH2 0x100 EXP DUP2 SLOAD DUP2 PUSH1 0xFF MUL NOT AND SWAP1 DUP4 PUSH1 0x2 DUP2 GT ISZERO PUSH2 0xAAA JUMPI PUSH2 0xAA9 PUSH2 0xD04 JUMP JUMPDEST JUMPDEST MUL OR SWAP1 SSTORE POP CALLER PUSH20 0xFFFFFFFFFFFFFFFFFFFFFFFFFFFFFFFFFFFFFFFF AND DUP3 PUSH32 0xA0F88BDC93FF6217657196EC633234F6709C7E841F6BFC701D62861F30E40F0C PUSH1 0x40 MLOAD PUSH1 0x40 MLOAD DUP1 SWAP2 SUB SWAP1 LOG3 POP POP JUMP JUMPDEST PUSH0 PUSH0 SWAP1 SLOAD SWAP1 PUSH2 0x100 EXP SWAP1 DIV PUSH20 0xFFFFFFFFFFFFFFFFFFFFFFFFFFFFFFFFFFFFFFFF AND DUP2 JUMP JUMPDEST PUSH1 0x2 PUSH0 DUP2 SLOAD DUP1 SWAP3 SWAP2 SWAP1 PUSH2 0xB2D SWAP1 PUSH2 0x1298 JUMP JUMPDEST SWAP2 SWAP1 POP SSTORE POP PUSH1 0x40 MLOAD DUP1 PUSH1 0x60 ADD PUSH1 0x40 MSTORE DUP1 PUSH1 0x2 SLOAD DUP2 MSTORE PUSH1 0x20 ADD DUP3 PUSH20 0xFFFFFFFFFFFFFFFFFFFFFFFFFFFFFFFFFFFFFFFF AND DUP2 MSTORE PUSH1 0x20 ADD PUSH0 PUSH1 0x2 DUP2 GT ISZERO PUSH2 0xB74 JUMPI PUSH2 0xB73 PUSH2 0xD04 JUMP JUMPDEST JUMPDEST DUP2 MSTORE POP PUSH1 0x3 PUSH0 PUSH1 0x2 SLOAD DUP2 MSTORE PUSH1 0x20 ADD SWAP1 DUP2 MSTORE PUSH1 0x20 ADD PUSH0 KECCAK256 PUSH0 DUP3 ADD MLOAD DUP2 PUSH0 ADD SSTORE PUSH1 0x20 DUP3 ADD MLOAD DUP2 PUSH1 0x1 ADD PUSH0 PUSH2 0x100 EXP DUP2 SLOAD DUP2 PUSH20 0xFFFFFFFFFFFFFFFFFFFFFFFFFFFFFFFFFFFFFFFF MUL NOT AND SWAP1 DUP4 PUSH20 0xFFFFFFFFFFFFFFFFFFFFFFFFFFFFFFFFFFFFFFFF AND MUL OR SWAP1 SSTORE POP PUSH1 0x40 DUP3 ADD MLOAD DUP2 PUSH1 0x1 ADD PUSH1 0x14 PUSH2 0x100 EXP DUP2 SLOAD DUP2 PUSH1 0xFF MUL NOT AND SWAP1 DUP4 PUSH1 0x2 DUP2 GT ISZERO PUSH2 0xC03 JUMPI PUSH2 0xC02 PUSH2 0xD04 JUMP JUMPDEST JUMPDEST MUL OR SWAP1 SSTORE POP SWAP1 POP POP DUP1 PUSH20 0xFFFFFFFFFFFFFFFFFFFFFFFFFFFFFFFFFFFFFFFF AND PUSH1 0x2 SLOAD PUSH32 0x9411640525281B98A1CE0A7523697265FE74F3ABE4B0B7E7FA9BBE8A28F39010 PUSH1 0x40 MLOAD PUSH1 0x40 MLOAD DUP1 SWAP2 SUB SWAP1 LOG3 POP JUMP JUMPDEST PUSH0 PUSH0 REVERT JUMPDEST PUSH0 DUP2 SWAP1 POP SWAP2 SWAP1 POP JUMP JUMPDEST PUSH2 0xC6A DUP2 PUSH2 0xC58 JUMP JUMPDEST DUP2 EQ PUSH2 0xC74 JUMPI PUSH0 PUSH0 REVERT JUMPDEST POP JUMP JUMPDEST PUSH0 DUP2 CALLDATALOAD SWAP1 POP PUSH2 0xC85 DUP2 PUSH2 0xC61 JUMP JUMPDEST SWAP3 SWAP2 POP POP JUMP JUMPDEST PUSH0 PUSH1 0x20 DUP3 DUP5 SUB SLT ISZERO PUSH2 0xCA0 JUMPI PUSH2 0xC9F PUSH2 0xC54 JUMP JUMPDEST JUMPDEST PUSH0 PUSH2 0xCAD DUP5 DUP3 DUP6 ADD PUSH2 0xC77 JUMP JUMPDEST SWAP2 POP POP SWAP3 SWAP2 POP POP JUMP JUMPDEST PUSH2 0xCBF DUP2 PUSH2 0xC58 JUMP JUMPDEST DUP3 MSTORE POP POP JUMP JUMPDEST PUSH0 PUSH20 0xFFFFFFFFFFFFFFFFFFFFFFFFFFFFFFFFFFFFFFFF DUP3 AND SWAP1 POP SWAP2 SWAP1 POP JUMP JUMPDEST PUSH0 PUSH2 0xCEE DUP3 PUSH2 0xCC5 JUMP JUMPDEST SWAP1 POP SWAP2 SWAP1 POP JUMP JUMPDEST PUSH2 0xCFE DUP2 PUSH2 0xCE4 JUMP JUMPDEST DUP3 MSTORE POP POP JUMP JUMPDEST PUSH32 0x4E487B7100000000000000000000000000000000000000000000000000000000 PUSH0 MSTORE PUSH1 0x21 PUSH1 0x4 MSTORE PUSH1 0x24 PUSH0 REVERT JUMPDEST PUSH1 0x3 DUP2 LT PUSH2 0xD42 JUMPI PUSH2 0xD41 PUSH2 0xD04 JUMP JUMPDEST JUMPDEST POP JUMP JUMPDEST PUSH0 DUP2 SWAP1 POP PUSH2 0xD52 DUP3 PUSH2 0xD31 JUMP JUMPDEST SWAP2 SWAP1 POP JUMP JUMPDEST PUSH0 PUSH2 0xD61 DUP3 PUSH2 0xD45 JUMP JUMPDEST SWAP1 POP SWAP2 SWAP1 POP JUMP JUMPDEST PUSH2 0xD71 DUP2 PUSH2 0xD57 JUMP JUMPDEST DUP3 MSTORE POP POP JUMP JUMPDEST PUSH0 PUSH1 0x60 DUP3 ADD SWAP1 POP PUSH2 0xD8A PUSH0 DUP4 ADD DUP7 PUSH2 0xCB6 JUMP JUMPDEST PUSH2 0xD97 PUSH1 0x20 DUP4 ADD DUP6 PUSH2 0xCF5 JUMP JUMPDEST PUSH2 0xDA4 PUSH1 0x40 DUP4 ADD DUP5 PUSH2 0xD68 JUMP JUMPDEST SWAP5 SWAP4 POP POP POP POP JUMP JUMPDEST PUSH0 PUSH1 0x20 DUP3 ADD SWAP1 POP PUSH2 0xDBF PUSH0 DUP4 ADD DUP5 PUSH2 0xCB6 JUMP JUMPDEST SWAP3 SWAP2 POP POP JUMP JUMPDEST PUSH2 0xDCE DUP2 PUSH2 0xCE4 JUMP JUMPDEST DUP2 EQ PUSH2 0xDD8 JUMPI PUSH0 PUSH0 REVERT JUMPDEST POP JUMP JUMPDEST PUSH0 DUP2 CALLDATALOAD SWAP1 POP PUSH2 0xDE9 DUP2 PUSH2 0xDC5 JUMP JUMPDEST SWAP3 SWAP2 POP POP JUMP JUMPDEST PUSH0 PUSH0 PUSH1 0x40 DUP4 DUP6 SUB SLT ISZERO PUSH2 0xE05 JUMPI PUSH2 0xE04 PUSH2 0xC54 JUMP JUMPDEST JUMPDEST PUSH0 PUSH2 0xE12 DUP6 DUP3 DUP7 ADD PUSH2 0xC77 JUMP JUMPDEST SWAP3 POP POP PUSH1 0x20 PUSH2 0xE23 DUP6 DUP3 DUP7 ADD PUSH2 0xDDB JUMP JUMPDEST SWAP2 POP POP SWAP3 POP SWAP3 SWAP1 POP JUMP JUMPDEST PUSH0 PUSH0 PUSH1 0x40 DUP4 DUP6 SUB SLT ISZERO PUSH2 0xE43 JUMPI PUSH2 0xE42 PUSH2 0xC54 JUMP JUMPDEST JUMPDEST PUSH0 PUSH2 0xE50 DUP6 DUP3 DUP7 ADD PUSH2 0xDDB JUMP JUMPDEST SWAP3 POP POP PUSH1 0x20 PUSH2 0xE61 DUP6 DUP3 DUP7 ADD PUSH2 0xC77 JUMP JUMPDEST SWAP2 POP POP SWAP3 POP SWAP3 SWAP1 POP JUMP JUMPDEST PUSH0 PUSH1 0x20 DUP3 DUP5 SUB SLT ISZERO PUSH2 0xE80 JUMPI PUSH2 0xE7F PUSH2 0xC54 JUMP JUMPDEST JUMPDEST PUSH0 PUSH2 0xE8D DUP5 DUP3 DUP6 ADD PUSH2 0xDDB JUMP JUMPDEST SWAP2 POP POP SWAP3 SWAP2 POP POP JUMP JUMPDEST PUSH0 DUP2 SWAP1 POP SWAP2 SWAP1 POP JUMP JUMPDEST PUSH0 PUSH2 0xEB9 PUSH2 0xEB4 PUSH2 0xEAF DUP5 PUSH2 0xCC5 JUMP JUMPDEST PUSH2 0xE96 JUMP JUMPDEST PUSH2 0xCC5 JUMP JUMPDEST SWAP1 POP SWAP2 SWAP1 POP JUMP JUMPDEST PUSH0 PUSH2 0xECA DUP3 PUSH2 0xE9F JUMP JUMPDEST SWAP1 POP SWAP2 SWAP1 POP JUMP JUMPDEST PUSH0 PUSH2 0xEDB DUP3 PUSH2 0xEC0 JUMP JUMPDEST SWAP1 POP SWAP2 SWAP1 POP JUMP JUMPDEST PUSH2 0xEEB DUP2 PUSH2 0xED1 JUMP JUMPDEST DUP3 MSTORE POP POP JUMP JUMPDEST PUSH0 PUSH1 0x20 DUP3 ADD SWAP1 POP PUSH2 0xF04 PUSH0 DUP4 ADD DUP5 PUSH2 0xEE2 JUMP JUMPDEST SWAP3 SWAP2 POP POP JUMP JUMPDEST PUSH0 PUSH1 0x20 DUP3 ADD SWAP1 POP PUSH2 0xF1D PUSH0 DUP4 ADD DUP5 PUSH2 0xCF5 JUMP JUMPDEST SWAP3 SWAP2 POP POP JUMP JUMPDEST PUSH0 DUP2 ISZERO ISZERO SWAP1 POP SWAP2 SWAP1 POP JUMP JUMPDEST PUSH2 0xF37 DUP2 PUSH2 0xF23 JUMP JUMPDEST DUP2 EQ PUSH2 0xF41 JUMPI PUSH0 PUSH0 REVERT JUMPDEST POP JUMP JUMPDEST PUSH0 DUP2 MLOAD SWAP1 POP PUSH2 0xF52 DUP2 PUSH2 0xF2E JUMP JUMPDEST SWAP3 SWAP2 POP POP JUMP JUMPDEST PUSH0 PUSH1 0x20 DUP3 DUP5 SUB SLT ISZERO PUSH2 0xF6D JUMPI PUSH2 0xF6C PUSH2 0xC54 JUMP JUMPDEST JUMPDEST PUSH0 PUSH2 0xF7A DUP5 DUP3 DUP6 ADD PUSH2 0xF44 JUMP JUMPDEST SWAP2 POP POP SWAP3 SWAP2 POP POP JUMP JUMPDEST PUSH0 DUP3 DUP3 MSTORE PUSH1 0x20 DUP3 ADD SWAP1 POP SWAP3 SWAP2 POP POP JUMP JUMPDEST PUSH32 0x436F6D70616E79206E6F74207665726966696564000000000000000000000000 PUSH0 DUP3 ADD MSTORE POP JUMP JUMPDEST PUSH0 PUSH2 0xFC7 PUSH1 0x14 DUP4 PUSH2 0xF83 JUMP JUMPDEST SWAP2 POP PUSH2 0xFD2 DUP3 PUSH2 0xF93 JUMP JUMPDEST PUSH1 0x20 DUP3 ADD SWAP1 POP SWAP2 SWAP1 POP JUMP JUMPDEST PUSH0 PUSH1 0x20 DUP3 ADD SWAP1 POP DUP2 DUP2 SUB PUSH0 DUP4 ADD MSTORE PUSH2 0xFF4 DUP2 PUSH2 0xFBB JUMP JUMPDEST SWAP1 POP SWAP2 SWAP1 POP JUMP JUMPDEST PUSH32 0x4E6F7420637265646974206F776E657200000000000000000000000000000000 PUSH0 DUP3 ADD MSTORE POP JUMP JUMPDEST PUSH0 PUSH2 0x102F PUSH1 0x10 DUP4 PUSH2 0xF83 JUMP JUMPDEST SWAP2 POP PUSH2 0x103A DUP3 PUSH2 0xFFB JUMP JUMPDEST PUSH1 0x20 DUP3 ADD SWAP1 POP SWAP2 SWAP1 POP JUMP JUMPDEST PUSH0 PUSH1 0x20 DUP3 ADD SWAP1 POP DUP2 DUP2 SUB PUSH0 DUP4 ADD MSTORE PUSH2 0x105C DUP2 PUSH2 0x1023 JUMP JUMPDEST SWAP1 POP SWAP2 SWAP1 POP JUMP JUMPDEST PUSH32 0x4372656469742072657469726564000000000000000000000000000000000000 PUSH0 DUP3 ADD MSTORE POP JUMP JUMPDEST PUSH0 PUSH2 0x1097 PUSH1 0xE DUP4 PUSH2 0xF83 JUMP JUMPDEST SWAP2 POP PUSH2 0x10A2 DUP3 PUSH2 0x1063 JUMP JUMPDEST PUSH1 0x20 DUP3 ADD SWAP1 POP SWAP2 SWAP1 POP JUMP JUMPDEST PUSH0 PUSH1 0x20 DUP3 ADD SWAP1 POP DUP2 DUP2 SUB PUSH0 DUP4 ADD MSTORE PUSH2 0x10C4 DUP2 PUSH2 0x108B JUMP JUMPDEST SWAP1 POP SWAP2 SWAP1 POP JUMP JUMPDEST PUSH32 0x4F6E6C792061646D696E20616C6C6F7765640000000000000000000000000000 PUSH0 DUP3 ADD MSTORE POP JUMP JUMPDEST PUSH0 PUSH2 0x10FF PUSH1 0x12 DUP4 PUSH2 0xF83 JUMP JUMPDEST SWAP2 POP PUSH2 0x110A DUP3 PUSH2 0x10CB JUMP JUMPDEST PUSH1 0x20 DUP3 ADD SWAP1 POP SWAP2 SWAP1 POP JUMP JUMPDEST PUSH0 PUSH1 0x20 DUP3 ADD SWAP1 POP DUP2 DUP2 SUB PUSH0 DUP4 ADD MSTORE PUSH2 0x112C DUP2 PUSH2 0x10F3 JUMP JUMPDEST SWAP1 POP SWAP2 SWAP1 POP JUMP JUMPDEST PUSH32 0x416D6F756E74206D757374206265203E20300000000000000000000000000000 PUSH0 DUP3 ADD MSTORE POP JUMP JUMPDEST PUSH0 PUSH2 0x1167 PUSH1 0x12 DUP4 PUSH2 0xF83 JUMP JUMPDEST SWAP2 POP PUSH2 0x1172 DUP3 PUSH2 0x1133 JUMP JUMPDEST PUSH1 0x20 DUP3 ADD SWAP1 POP SWAP2 SWAP1 POP JUMP JUMPDEST PUSH0 PUSH1 0x20 DUP3 ADD SWAP1 POP DUP2 DUP2 SUB PUSH0 DUP4 ADD MSTORE PUSH2 0x1194 DUP2 PUSH2 0x115B JUMP JUMPDEST SWAP1 POP SWAP2 SWAP1 POP JUMP JUMPDEST PUSH32 0x546F6F206D616E792063726564697473206174206F6E63650000000000000000 PUSH0 DUP3 ADD MSTORE POP JUMP JUMPDEST PUSH0 PUSH2 0x11CF PUSH1 0x18 DUP4 PUSH2 0xF83 JUMP JUMPDEST SWAP2 POP PUSH2 0x11DA DUP3 PUSH2 0x119B JUMP JUMPDEST PUSH1 0x20 DUP3 ADD SWAP1 POP SWAP2 SWAP1 POP JUMP JUMPDEST PUSH0 PUSH1 0x20 DUP3 ADD SWAP1 POP DUP2 DUP2 SUB PUSH0 DUP4 ADD MSTORE PUSH2 0x11FC DUP2 PUSH2 0x11C3 JUMP JUMPDEST SWAP1 POP SWAP2 SWAP1 POP JUMP JUMPDEST PUSH32 0x416C726561647920726574697265640000000000000000000000000000000000 PUSH0 DUP3 ADD MSTORE POP JUMP JUMPDEST PUSH0 PUSH2 0x1237 PUSH1 0xF DUP4 PUSH2 0xF83 JUMP JUMPDEST SWAP2 POP PUSH2 0x1242 DUP3 PUSH2 0x1203 JUMP JUMPDEST PUSH1 0x20 DUP3 ADD SWAP1 POP SWAP2 SWAP1 POP JUMP JUMPDEST PUSH0 PUSH1 0x20 DUP3 ADD SWAP1 POP DUP2 DUP2 SUB PUSH0 DUP4 ADD MSTORE PUSH2 0x1264 DUP2 PUSH2 0x122B JUMP JUMPDEST SWAP1 POP SWAP2 SWAP1 POP JUMP JUMPDEST PUSH32 0x4E487B7100000000000000000000000000000000000000000000000000000000 PUSH0 MSTORE PUSH1 0x11 PUSH1 0x4 MSTORE PUSH1 0x24 PUSH0 REVERT JUMPDEST PUSH0 PUSH2 0x12A2 DUP3 PUSH2 0xC58 JUMP JUMPDEST SWAP2 POP PUSH32 0xFFFFFFFFFFFFFFFFFFFFFFFFFFFFFFFFFFFFFFFFFFFFFFFFFFFFFFFFFFFFFFFF DUP3 SUB PUSH2 0x12D4 JUMPI PUSH2 0x12D3 PUSH2 0x126B JUMP JUMPDEST JUMPDEST PUSH1 0x1 DUP3 ADD SWAP1 POP SWAP2 SWAP1 POP JUMP INVALID LOG2 PUSH5 0x6970667358 0x22 SLT KECCAK256 ADDMOD 0x21 XOR ADD DUP1 DUP10 0x2B 0xF PUSH9 0x9C3C5ECBA68885B462 CALLER 0xC9 PUSH5 0x5CFED641DB 0xCC GASLIMIT 0xAF 0xC CALLDATASIZE 0xC5 PUSH5 0x736F6C6343 STOP ADDMOD 0x1F STOP CALLER "
				},
				"gasEstimates": {
					"creation": {
						"codeDepositCost": "977000",
						"executionCost": "infinite",
						"totalCost": "infinite"
					},
					"external": {
						"admin()": "2595",
						"companyRegistry()": "infinite",
						"creditIdCounter()": "2448",
						"credits(uint256)": "infinite",
						"getCredit(uint256)": "infinite",
						"issueCredit(address)": "infinite",
						"issueCredits(address,uint256)": "infinite",
						"retireCredit(uint256)": "30878",
						"transferCredit(uint256,address)": "infinite"
					},
					"internal": {
						"_mintCredit(address)": "infinite"
					}
				},
				"methodIdentifiers": {
					"admin()": "f851a440",
					"companyRegistry()": "c51aba2b",
					"creditIdCounter()": "074240ea",
					"credits(uint256)": "036a1c22",
					"getCredit(uint256)": "da304e4d",
					"issueCredit(address)": "ae2036c1",
					"issueCredits(address,uint256)": "31b00f7a",
					"retireCredit(uint256)": "eb899eeb",
					"transferCredit(uint256,address)": "0df3a1e0"
				}
			},
			"storageLayout": {
				"storage": [
					{
						"astId": 11,
						"contract": "CarbonCreditBatch.sol:CarbonCredit",
						"label": "admin",
						"offset": 0,
						"slot": "0",
						"type": "t_address"
					},
					{
						"astId": 14,
						"contract": "CarbonCreditBatch.sol:CarbonCredit",
						"label": "companyRegistry",
						"offset": 0,
						"slot": "1",
						"type": "t_contract(ICompanyRegistry)9"
					},
					{
						"astId": 28,
						"contract": "CarbonCreditBatch.sol:CarbonCredit",
						"label": "creditIdCounter",
						"offset": 0,
						"slot": "2",
						"type": "t_uint256"
					},
					{
						"astId": 33,
						"contract": "CarbonCreditBatch.sol:CarbonCredit",
						"label": "credits",
						"offset": 0,
						"slot": "3",
						"type": "t_mapping(t_uint256,t_struct(Credit)26_storage)"
					}
				],
				"types": {
					"t_address": {
						"encoding": "inplace",
						"label": "address",
						"numberOfBytes": "20"
					},
					"t_contract(ICompanyRegistry)9": {
						"encoding": "inplace",
						"label": "contract ICompanyRegistry",
						"numberOfBytes": "20"
					},
					"t_enum(CreditStatus)18": {
						"encoding": "inplace",
						"label": "enum CarbonCredit.CreditStatus",
						"numberOfBytes": "1"
					},
					"t_mapping(t_uint256,t_struct(Credit)26_storage)": {
						"encoding": "mapping",
						"key": "t_uint256",
						"label": "mapping(uint256 => struct CarbonCredit.Credit)",
						"numberOfBytes": "32",
						"value": "t_struct(Credit)26_storage"
					},
					"t_struct(Credit)26_storage": {
						"encoding": "inplace",
						"label": "struct CarbonCredit.Credit",
						"members": [
							{
								"astId": 20,
								"contract": "CarbonCreditBatch.sol:CarbonCredit",
								"label": "id",
								"offset": 0,
								"slot": "0",
								"type": "t_uint256"
							},
							{
								"astId": 22,
								"contract": "CarbonCreditBatch.sol:CarbonCredit",
								"label": "owner",
								"offset": 0,
								"slot": "1",
								"type": "t_address"
							},
							{
								"astId": 25,
								"contract": "CarbonCreditBatch.sol:CarbonCredit",
								"label": "status",
								"offset": 20,
								"slot": "1",
								"type": "t_enum(CreditStatus)18"
							}
						],
						"numberOfBytes": "64"
					},
					"t_uint256": {
						"encoding": "inplace",
						"label": "uint256",
						"numberOfBytes": "32"
					}
				}
			},
			"userdoc": {
				"kind": "user",
				"methods": {},
				"version": 1
			}
		}
	}
}