{
	".git/CompanyRegistry.sol": {
		"CompanyRegistry": {
			"abi": [
				{
					"inputs": [],
					"stateMutability": "nonpayable",
					"type": "constructor"
				},
				{
					"anonymous": false,
					"inputs": [
						{
							"indexed": true,
							"internalType": "address",
							"name": "company",
							"type": "address"
						}
					],
					"name": "CompanyRegistered",
					"type": "event"
				},
				{
					"anonymous": false,
					"inputs": [
						{
							"indexed": true,
							"internalType": "address",
							"name": "company",
							"type": "address"
						}
					],
					"name": "CompanyVerified",
					"type": "event"
				},
				{
					"inputs": [],
					"name": "admin",
					"outputs": [
						{
							"internalType": "address",
							"name": "",
							"type": "address"
						}
					],
					"stateMutability": "view",
					"type": "function"
				},
				{
					"inputs": [
						{
							"internalType": "address",
							"name": "",
							"type": "address"
						}
					],
					"name": "companies",
					"outputs": [
						{
							"internalType": "bool",
							"name": "isRegistered",
							"type": "bool"
						},
						{
							"internalType": "bool",
							"name": "isVerified",
							"type": "bool"
						}
					],
					"stateMutability": "view",
					"type": "function"
				},
				{
					"inputs": [
						{
							"internalType": "address",
							"name": "_company",
							"type": "address"
						}
					],
					"name": "isCompanyVerified",
					"outputs": [
						{
							"internalType": "bool",
							"name": "",
							"type": "bool"
						}
					],
					"stateMutability": "view",
					"type": "function"
				},
				{
					"inputs": [],
					"name": "registerCompany",
					"outputs": [],
					"stateMutability": "nonpayable",
					"type": "function"
				},
				{
					"inputs": [
						{
							"internalType": "address",
							"name": "_company",
							"type": "address"
						}
					],
					"name": "verifyCompany",
					"outputs": [],
					"stateMutability": "nonpayable",
					"type": "function"
				}
			],
			"devdoc": {
				"kind": "dev",
				"methods": {},
				"version": 1
			},
			"evm": {
				"assembly": "    /* \".git/CompanyRegistry.sol\":60:2036  contract CompanyRegistry {... */\n  mstore(0x40, 0x80)\n    /* \".git/CompanyRegistry.sol\":572:623  constructor() {... */\n  callvalue\n  dup1\n  iszero\n  tag_1\n  jumpi\n  revert(0x00, 0x00)\ntag_1:\n  pop\n    /* \".git/CompanyRegistry.sol\":605:615  msg.sender */\n  caller\n    /* \".git/CompanyRegistry.sol\":597:602  admin */\n  0x00\n  0x00\n    /* \".git/CompanyRegistry.sol\":597:615  admin = msg.sender */\n  0x0100\n  exp\n  dup2\n  sload\n  dup2\n  0xffffffffffffffffffffffffffffffffffffffff\n  mul\n  not\n  and\n  swap1\n  dup4\n  0xffffffffffffffffffffffffffffffffffffffff\n  and\n  mul\n  or\n  swap1\n  sstore\n  pop\n    /* \".git/CompanyRegistry.sol\":60:2036  contract CompanyRegistry {... */\n  dataSize(sub_0)\n  dup1\n  dataOffset(sub_0)\n  0x00\n  codecopy\n  0x00\n  return\nstop\n\nsub_0: assembly {\n        /* \".git/CompanyRegistry.sol\":60:2036  contract CompanyRegistry {... */\n      mstore(0x40, 0x80)\n      callvalue\n      dup1\n      iszero\n      tag_1\n      jumpi\n      revert(0x00, 0x00)\n    tag_1:\n      pop\n      jumpi(tag_2, lt(calldatasize, 0x04))\n      shr(0xe0, calldataload(0x00))\n      dup1\n      0x355e6ce8\n      eq\n      tag_3\n      jumpi\n      dup1\n      0x7cad1107\n      eq\n      tag_4\n      jumpi\n      dup1\n      0xbfc2defd\n      eq\n      tag_5\n      jumpi\n      dup1\n      0xf592146d\n      eq\n      tag_6\n      jumpi\n      dup1\n      0xf851a440\n      eq\n      tag_7\n      jumpi\n    tag_2:\n      revert(0x00, 0x00)\n        /* \".git/CompanyRegistry.sol\":322:366  mapping(address => Company) public companies */\n    tag_3:\n      tag_8\n      0x04\n      dup1\n      calldatasize\n      sub\n      dup2\n      add\n      swap1\n      tag_9\n      swap2\n      swap1\n      tag_10\n      jump\t// in\n    tag_9:\n      tag_11\n      jump\t// in\n    tag_8:\n      mload(0x40)\n      tag_12\n      swap3\n      swap2\n      swap1\n      tag_13\n      jump\t// in\n    tag_12:\n      mload(0x40)\n      dup1\n      swap2\n      sub\n      swap1\n      return\n        /* \".git/CompanyRegistry.sol\":1062:1397  function registerCompany() external {... */\n    tag_4:\n      tag_14\n      tag_15\n      jump\t// in\n    tag_14:\n      stop\n        /* \".git/CompanyRegistry.sol\":1903:2033  function isCompanyVerified(address _company) external view returns (bool) {... */\n    tag_5:\n      tag_16\n      0x04\n      dup1\n      calldatasize\n      sub\n      dup2\n      add\n      swap1\n      tag_17\n      swap2\n      swap1\n      tag_10\n      jump\t// in\n    tag_17:\n      tag_18\n      jump\t// in\n    tag_16:\n      mload(0x40)\n      tag_19\n      swap2\n      swap1\n      tag_20\n      jump\t// in\n    tag_19:\n      mload(0x40)\n      dup1\n      swap2\n      sub\n      swap1\n      return\n        /* \".git/CompanyRegistry.sol\":1448:1840  function verifyCompany(address _company) external onlyAdmin {... */\n    tag_6:\n      tag_21\n      0x04\n      dup1\n      calldatasize\n      sub\n      dup2\n      add\n      swap1\n      tag_22\n      swap2\n      swap1\n      tag_10\n      jump\t// in\n    tag_22:\n      tag_23\n      jump\t// in\n    tag_21:\n      stop\n        /* \".git/CompanyRegistry.sol\":121:141  address public admin */\n    tag_7:\n      tag_24\n      tag_25\n      jump\t// in\n    tag_24:\n      mload(0x40)\n      tag_26\n      swap2\n      swap1\n      tag_27\n      jump\t// in\n    tag_26:\n      mload(0x40)\n      dup1\n      swap2\n      sub\n      swap1\n      return\n        /* \".git/CompanyRegistry.sol\":322:366  mapping(address => Company) public companies */\n    tag_11:\n      mstore(0x20, 0x01)\n      dup1\n      0x00\n      mstore\n      keccak256(0x00, 0x40)\n      0x00\n      swap2\n      pop\n      swap1\n      pop\n      dup1\n      0x00\n      add\n      0x00\n      swap1\n      sload\n      swap1\n      0x0100\n      exp\n      swap1\n      div\n      0xff\n      and\n      swap1\n      dup1\n      0x00\n      add\n      0x01\n      swap1\n      sload\n      swap1\n      0x0100\n      exp\n      swap1\n      div\n      0xff\n      and\n      swap1\n      pop\n      dup3\n      jump\t// out\n        /* \".git/CompanyRegistry.sol\":1062:1397  function registerCompany() external {... */\n    tag_15:\n        /* \".git/CompanyRegistry.sol\":1132:1141  companies */\n      0x01\n        /* \".git/CompanyRegistry.sol\":1132:1153  companies[msg.sender] */\n      0x00\n        /* \".git/CompanyRegistry.sol\":1142:1152  msg.sender */\n      caller\n        /* \".git/CompanyRegistry.sol\":1132:1153  companies[msg.sender] */\n      0xffffffffffffffffffffffffffffffffffffffff\n      and\n      0xffffffffffffffffffffffffffffffffffffffff\n      and\n      dup2\n      mstore\n      0x20\n      add\n      swap1\n      dup2\n      mstore\n      0x20\n      add\n      0x00\n      keccak256\n        /* \".git/CompanyRegistry.sol\":1132:1166  companies[msg.sender].isRegistered */\n      0x00\n      add\n      0x00\n      swap1\n      sload\n      swap1\n      0x0100\n      exp\n      swap1\n      div\n      0xff\n      and\n        /* \".git/CompanyRegistry.sol\":1131:1166  !companies[msg.sender].isRegistered */\n      iszero\n        /* \".git/CompanyRegistry.sol\":1109:1220  require(... */\n      tag_29\n      jumpi\n      mload(0x40)\n      0x08c379a000000000000000000000000000000000000000000000000000000000\n      dup2\n      mstore\n      0x04\n      add\n      tag_30\n      swap1\n      tag_31\n      jump\t// in\n    tag_30:\n      mload(0x40)\n      dup1\n      swap2\n      sub\n      swap1\n      revert\n    tag_29:\n        /* \".git/CompanyRegistry.sol\":1257:1342  Company({... */\n      mload(0x40)\n      dup1\n      0x40\n      add\n      0x40\n      mstore\n      dup1\n        /* \".git/CompanyRegistry.sol\":1294:1298  true */\n      0x01\n        /* \".git/CompanyRegistry.sol\":1257:1342  Company({... */\n      iszero\n      iszero\n      dup2\n      mstore\n      0x20\n      add\n        /* \".git/CompanyRegistry.sol\":1325:1330  false */\n      0x00\n        /* \".git/CompanyRegistry.sol\":1257:1342  Company({... */\n      iszero\n      iszero\n      dup2\n      mstore\n      pop\n        /* \".git/CompanyRegistry.sol\":1233:1242  companies */\n      0x01\n        /* \".git/CompanyRegistry.sol\":1233:1254  companies[msg.sender] */\n      0x00\n        /* \".git/CompanyRegistry.sol\":1243:1253  msg.sender */\n      caller\n        /* \".git/CompanyRegistry.sol\":1233:1254  companies[msg.sender] */\n      0xffffffffffffffffffffffffffffffffffffffff\n      and\n      0xffffffffffffffffffffffffffffffffffffffff\n      and\n      dup2\n      mstore\n      0x20\n      add\n      swap1\n      dup2\n      mstore\n      0x20\n      add\n      0x00\n      keccak256\n        /* \".git/CompanyRegistry.sol\":1233:1342  companies[msg.sender] = Company({... */\n      0x00\n      dup3\n      add\n      mload\n      dup2\n      0x00\n      add\n      exp(0x0100, 0x00)\n      dup2\n      sload\n      dup2\n      0xff\n      mul\n      not\n      and\n      swap1\n      dup4\n      iszero\n      iszero\n      mul\n      or\n      swap1\n      sstore\n      pop\n      0x20\n      dup3\n      add\n      mload\n      dup2\n      0x00\n      add\n      exp(0x0100, 0x01)\n      dup2\n      sload\n      dup2\n      0xff\n      mul\n      not\n      and\n      swap1\n      dup4\n      iszero\n      iszero\n      mul\n      or\n      swap1\n      sstore\n      pop\n      swap1\n      pop\n      pop\n        /* \".git/CompanyRegistry.sol\":1378:1388  msg.sender */\n      caller\n        /* \".git/CompanyRegistry.sol\":1360:1389  CompanyRegistered(msg.sender) */\n      0xffffffffffffffffffffffffffffffffffffffff\n      and\n      0x62806c829f7c8d0f1563dbdcf4f05f12a6b3c0e29ab581b0ccdffd608e993938\n      mload(0x40)\n      mload(0x40)\n      dup1\n      swap2\n      sub\n      swap1\n      log2\n        /* \".git/CompanyRegistry.sol\":1062:1397  function registerCompany() external {... */\n      jump\t// out\n        /* \".git/CompanyRegistry.sol\":1903:2033  function isCompanyVerified(address _company) external view returns (bool) {... */\n    tag_18:\n        /* \".git/CompanyRegistry.sol\":1971:1975  bool */\n      0x00\n        /* \".git/CompanyRegistry.sol\":1995:2004  companies */\n      0x01\n        /* \".git/CompanyRegistry.sol\":1995:2014  companies[_company] */\n      0x00\n        /* \".git/CompanyRegistry.sol\":2005:2013  _company */\n      dup4\n        /* \".git/CompanyRegistry.sol\":1995:2014  companies[_company] */\n      0xffffffffffffffffffffffffffffffffffffffff\n      and\n      0xffffffffffffffffffffffffffffffffffffffff\n      and\n      dup2\n      mstore\n      0x20\n      add\n      swap1\n      dup2\n      mstore\n      0x20\n      add\n      0x00\n      keccak256\n        /* \".git/CompanyRegistry.sol\":1995:2025  companies[_company].isVerified */\n      0x00\n      add\n      0x01\n      swap1\n      sload\n      swap1\n      0x0100\n      exp\n      swap1\n      div\n      0xff\n      and\n        /* \".git/CompanyRegistry.sol\":1988:2025  return companies[_company].isVerified */\n      swap1\n      pop\n        /* \".git/CompanyRegistry.sol\":1903:2033  function isCompanyVerified(address _company) external view returns (bool) {... */\n      swap2\n      swap1\n      pop\n      jump\t// out\n        /* \".git/CompanyRegistry.sol\":1448:1840  function verifyCompany(address _company) external onlyAdmin {... */\n    tag_23:\n        /* \".git/CompanyRegistry.sol\":728:733  admin */\n      0x00\n      0x00\n      swap1\n      sload\n      swap1\n      0x0100\n      exp\n      swap1\n      div\n      0xffffffffffffffffffffffffffffffffffffffff\n      and\n        /* \".git/CompanyRegistry.sol\":714:733  msg.sender == admin */\n      0xffffffffffffffffffffffffffffffffffffffff\n      and\n        /* \".git/CompanyRegistry.sol\":714:724  msg.sender */\n      caller\n        /* \".git/CompanyRegistry.sol\":714:733  msg.sender == admin */\n      0xffffffffffffffffffffffffffffffffffffffff\n      and\n      eq\n        /* \".git/CompanyRegistry.sol\":706:756  require(msg.sender == admin, \"Only admin allowed\") */\n      tag_34\n      jumpi\n      mload(0x40)\n      0x08c379a000000000000000000000000000000000000000000000000000000000\n      dup2\n      mstore\n      0x04\n      add\n      tag_35\n      swap1\n      tag_36\n      jump\t// in\n    tag_35:\n      mload(0x40)\n      dup1\n      swap2\n      sub\n      swap1\n      revert\n    tag_34:\n        /* \".git/CompanyRegistry.sol\":1541:1550  companies */\n      0x01\n        /* \".git/CompanyRegistry.sol\":1541:1560  companies[_company] */\n      0x00\n        /* \".git/CompanyRegistry.sol\":1551:1559  _company */\n      dup3\n        /* \".git/CompanyRegistry.sol\":1541:1560  companies[_company] */\n      0xffffffffffffffffffffffffffffffffffffffff\n      and\n      0xffffffffffffffffffffffffffffffffffffffff\n      and\n      dup2\n      mstore\n      0x20\n      add\n      swap1\n      dup2\n      mstore\n      0x20\n      add\n      0x00\n      keccak256\n        /* \".git/CompanyRegistry.sol\":1541:1573  companies[_company].isRegistered */\n      0x00\n      add\n      0x00\n      swap1\n      sload\n      swap1\n      0x0100\n      exp\n      swap1\n      div\n      0xff\n      and\n        /* \".git/CompanyRegistry.sol\":1519:1623  require(... */\n      tag_38\n      jumpi\n      mload(0x40)\n      0x08c379a000000000000000000000000000000000000000000000000000000000\n      dup2\n      mstore\n      0x04\n      add\n      tag_39\n      swap1\n      tag_40\n      jump\t// in\n    tag_39:\n      mload(0x40)\n      dup1\n      swap2\n      sub\n      swap1\n      revert\n    tag_38:\n        /* \".git/CompanyRegistry.sol\":1657:1666  companies */\n      0x01\n        /* \".git/CompanyRegistry.sol\":1657:1676  companies[_company] */\n      0x00\n        /* \".git/CompanyRegistry.sol\":1667:1675  _company */\n      dup3\n        /* \".git/CompanyRegistry.sol\":1657:1676  companies[_company] */\n      0xffffffffffffffffffffffffffffffffffffffff\n      and\n      0xffffffffffffffffffffffffffffffffffffffff\n      and\n      dup2\n      mstore\n      0x20\n      add\n      swap1\n      dup2\n      mstore\n      0x20\n      add\n      0x00\n      keccak256\n        /* \".git/CompanyRegistry.sol\":1657:1687  companies[_company].isVerified */\n      0x00\n      add\n      0x01\n      swap1\n      sload\n      swap1\n      0x0100\n      exp\n      swap1\n      div\n      0xff\n      and\n        /* \".git/CompanyRegistry.sol\":1656:1687  !companies[_company].isVerified */\n      iszero\n        /* \".git/CompanyRegistry.sol\":1634:1739  require(... */\n      tag_41\n      jumpi\n      mload(0x40)\n      0x08c379a000000000000000000000000000000000000000000000000000000000\n      dup2\n      mstore\n      0x04\n      add\n      tag_42\n      swap1\n      tag_43\n      jump\t// in\n    tag_42:\n      mload(0x40)\n      dup1\n      swap2\n      sub\n      swap1\n      revert\n    tag_41:\n        /* \".git/CompanyRegistry.sol\":1785:1789  true */\n      0x01\n        /* \".git/CompanyRegistry.sol\":1752:1761  companies */\n      dup1\n        /* \".git/CompanyRegistry.sol\":1752:1771  companies[_company] */\n      0x00\n        /* \".git/CompanyRegistry.sol\":1762:1770  _company */\n      dup4\n        /* \".git/CompanyRegistry.sol\":1752:1771  companies[_company] */\n      0xffffffffffffffffffffffffffffffffffffffff\n      and\n      0xffffffffffffffffffffffffffffffffffffffff\n      and\n      dup2\n      mstore\n      0x20\n      add\n      swap1\n      dup2\n      mstore\n      0x20\n      add\n      0x00\n      keccak256\n        /* \".git/CompanyRegistry.sol\":1752:1782  companies[_company].isVerified */\n      0x00\n      add\n      0x01\n        /* \".git/CompanyRegistry.sol\":1752:1789  companies[_company].isVerified = true */\n      0x0100\n      exp\n      dup2\n      sload\n      dup2\n      0xff\n      mul\n      not\n      and\n      swap1\n      dup4\n      iszero\n      iszero\n      mul\n      or\n      swap1\n      sstore\n      pop\n        /* \".git/CompanyRegistry.sol\":1823:1831  _company */\n      dup1\n        /* \".git/CompanyRegistry.sol\":1807:1832  CompanyVerified(_company) */\n      0xffffffffffffffffffffffffffffffffffffffff\n      and\n      0x72d95b5ce3143d0ea8146e1d68ee36cc9a2996cefe06712c98f4b59041583f11\n      mload(0x40)\n      mload(0x40)\n      dup1\n      swap2\n      sub\n      swap1\n      log2\n        /* \".git/CompanyRegistry.sol\":1448:1840  function verifyCompany(address _company) external onlyAdmin {... */\n      pop\n      jump\t// out\n        /* \".git/CompanyRegistry.sol\":121:141  address public admin */\n    tag_25:\n      0x00\n      0x00\n      swap1\n      sload\n      swap1\n      0x0100\n      exp\n      swap1\n      div\n      0xffffffffffffffffffffffffffffffffffffffff\n      and\n      dup2\n      jump\t// out\n        /* \"#utility.yul\":88:205   */\n    tag_45:\n        /* \"#utility.yul\":197:198   */\n      0x00\n        /* \"#utility.yul\":194:195   */\n      0x00\n        /* \"#utility.yul\":187:199   */\n      revert\n        /* \"#utility.yul\":334:460   */\n    tag_47:\n        /* \"#utility.yul\":371:378   */\n      0x00\n        /* \"#utility.yul\":411:453   */\n      0xffffffffffffffffffffffffffffffffffffffff\n        /* \"#utility.yul\":404:409   */\n      dup3\n        /* \"#utility.yul\":400:454   */\n      and\n        /* \"#utility.yul\":389:454   */\n      swap1\n      pop\n        /* \"#utility.yul\":334:460   */\n      swap2\n      swap1\n      pop\n      jump\t// out\n        /* \"#utility.yul\":466:562   */\n    tag_48:\n        /* \"#utility.yul\":503:510   */\n      0x00\n        /* \"#utility.yul\":532:556   */\n      tag_69\n        /* \"#utility.yul\":550:555   */\n      dup3\n        /* \"#utility.yul\":532:556   */\n      tag_47\n      jump\t// in\n    tag_69:\n        /* \"#utility.yul\":521:556   */\n      swap1\n      pop\n        /* \"#utility.yul\":466:562   */\n      swap2\n      swap1\n      pop\n      jump\t// out\n        /* \"#utility.yul\":568:690   */\n    tag_49:\n        /* \"#utility.yul\":641:665   */\n      tag_71\n        /* \"#utility.yul\":659:664   */\n      dup2\n        /* \"#utility.yul\":641:665   */\n      tag_48\n      jump\t// in\n    tag_71:\n        /* \"#utility.yul\":634:639   */\n      dup2\n        /* \"#utility.yul\":631:666   */\n      eq\n        /* \"#utility.yul\":621:684   */\n      tag_72\n      jumpi\n        /* \"#utility.yul\":680:681   */\n      0x00\n        /* \"#utility.yul\":677:678   */\n      0x00\n        /* \"#utility.yul\":670:682   */\n      revert\n        /* \"#utility.yul\":621:684   */\n    tag_72:\n        /* \"#utility.yul\":568:690   */\n      pop\n      jump\t// out\n        /* \"#utility.yul\":696:835   */\n    tag_50:\n        /* \"#utility.yul\":742:747   */\n      0x00\n        /* \"#utility.yul\":780:786   */\n      dup2\n        /* \"#utility.yul\":767:787   */\n      calldataload\n        /* \"#utility.yul\":758:787   */\n      swap1\n      pop\n        /* \"#utility.yul\":796:829   */\n      tag_74\n        /* \"#utility.yul\":823:828   */\n      dup2\n        /* \"#utility.yul\":796:829   */\n      tag_49\n      jump\t// in\n    tag_74:\n        /* \"#utility.yul\":696:835   */\n      swap3\n      swap2\n      pop\n      pop\n      jump\t// out\n        /* \"#utility.yul\":841:1170   */\n    tag_10:\n        /* \"#utility.yul\":900:906   */\n      0x00\n        /* \"#utility.yul\":949:951   */\n      0x20\n        /* \"#utility.yul\":937:946   */\n      dup3\n        /* \"#utility.yul\":928:935   */\n      dup5\n        /* \"#utility.yul\":924:947   */\n      sub\n        /* \"#utility.yul\":920:952   */\n      slt\n        /* \"#utility.yul\":917:1036   */\n      iszero\n      tag_76\n      jumpi\n        /* \"#utility.yul\":955:1034   */\n      tag_77\n      tag_45\n      jump\t// in\n    tag_77:\n        /* \"#utility.yul\":917:1036   */\n    tag_76:\n        /* \"#utility.yul\":1075:1076   */\n      0x00\n        /* \"#utility.yul\":1100:1153   */\n      tag_78\n        /* \"#utility.yul\":1145:1152   */\n      dup5\n        /* \"#utility.yul\":1136:1142   */\n      dup3\n        /* \"#utility.yul\":1125:1134   */\n      dup6\n        /* \"#utility.yul\":1121:1143   */\n      add\n        /* \"#utility.yul\":1100:1153   */\n      tag_50\n      jump\t// in\n    tag_78:\n        /* \"#utility.yul\":1090:1153   */\n      swap2\n      pop\n        /* \"#utility.yul\":1046:1163   */\n      pop\n        /* \"#utility.yul\":841:1170   */\n      swap3\n      swap2\n      pop\n      pop\n      jump\t// out\n        /* \"#utility.yul\":1176:1266   */\n    tag_51:\n        /* \"#utility.yul\":1210:1217   */\n      0x00\n        /* \"#utility.yul\":1253:1258   */\n      dup2\n        /* \"#utility.yul\":1246:1259   */\n      iszero\n        /* \"#utility.yul\":1239:1260   */\n      iszero\n        /* \"#utility.yul\":1228:1260   */\n      swap1\n      pop\n        /* \"#utility.yul\":1176:1266   */\n      swap2\n      swap1\n      pop\n      jump\t// out\n        /* \"#utility.yul\":1272:1381   */\n    tag_52:\n        /* \"#utility.yul\":1353:1374   */\n      tag_81\n        /* \"#utility.yul\":1368:1373   */\n      dup2\n        /* \"#utility.yul\":1353:1374   */\n      tag_51\n      jump\t// in\n    tag_81:\n        /* \"#utility.yul\":1348:1351   */\n      dup3\n        /* \"#utility.yul\":1341:1375   */\n      mstore\n        /* \"#utility.yul\":1272:1381   */\n      pop\n      pop\n      jump\t// out\n        /* \"#utility.yul\":1387:1695   */\n    tag_13:\n        /* \"#utility.yul\":1496:1500   */\n      0x00\n        /* \"#utility.yul\":1534:1536   */\n      0x40\n        /* \"#utility.yul\":1523:1532   */\n      dup3\n        /* \"#utility.yul\":1519:1537   */\n      add\n        /* \"#utility.yul\":1511:1537   */\n      swap1\n      pop\n        /* \"#utility.yul\":1547:1612   */\n      tag_83\n        /* \"#utility.yul\":1609:1610   */\n      0x00\n        /* \"#utility.yul\":1598:1607   */\n      dup4\n        /* \"#utility.yul\":1594:1611   */\n      add\n        /* \"#utility.yul\":1585:1591   */\n      dup6\n        /* \"#utility.yul\":1547:1612   */\n      tag_52\n      jump\t// in\n    tag_83:\n        /* \"#utility.yul\":1622:1688   */\n      tag_84\n        /* \"#utility.yul\":1684:1686   */\n      0x20\n        /* \"#utility.yul\":1673:1682   */\n      dup4\n        /* \"#utility.yul\":1669:1687   */\n      add\n        /* \"#utility.yul\":1660:1666   */\n      dup5\n        /* \"#utility.yul\":1622:1688   */\n      tag_52\n      jump\t// in\n    tag_84:\n        /* \"#utility.yul\":1387:1695   */\n      swap4\n      swap3\n      pop\n      pop\n      pop\n      jump\t// out\n        /* \"#utility.yul\":1701:1911   */\n    tag_20:\n        /* \"#utility.yul\":1788:1792   */\n      0x00\n        /* \"#utility.yul\":1826:1828   */\n      0x20\n        /* \"#utility.yul\":1815:1824   */\n      dup3\n        /* \"#utility.yul\":1811:1829   */\n      add\n        /* \"#utility.yul\":1803:1829   */\n      swap1\n      pop\n        /* \"#utility.yul\":1839:1904   */\n      tag_86\n        /* \"#utility.yul\":1901:1902   */\n      0x00\n        /* \"#utility.yul\":1890:1899   */\n      dup4\n        /* \"#utility.yul\":1886:1903   */\n      add\n        /* \"#utility.yul\":1877:1883   */\n      dup5\n        /* \"#utility.yul\":1839:1904   */\n      tag_52\n      jump\t// in\n    tag_86:\n        /* \"#utility.yul\":1701:1911   */\n      swap3\n      swap2\n      pop\n      pop\n      jump\t// out\n        /* \"#utility.yul\":1917:2035   */\n    tag_53:\n        /* \"#utility.yul\":2004:2028   */\n      tag_88\n        /* \"#utility.yul\":2022:2027   */\n      dup2\n        /* \"#utility.yul\":2004:2028   */\n      tag_48\n      jump\t// in\n    tag_88:\n        /* \"#utility.yul\":1999:2002   */\n      dup3\n        /* \"#utility.yul\":1992:2029   */\n      mstore\n        /* \"#utility.yul\":1917:2035   */\n      pop\n      pop\n      jump\t// out\n        /* \"#utility.yul\":2041:2263   */\n    tag_27:\n        /* \"#utility.yul\":2134:2138   */\n      0x00\n        /* \"#utility.yul\":2172:2174   */\n      0x20\n        /* \"#utility.yul\":2161:2170   */\n      dup3\n        /* \"#utility.yul\":2157:2175   */\n      add\n        /* \"#utility.yul\":2149:2175   */\n      swap1\n      pop\n        /* \"#utility.yul\":2185:2256   */\n      tag_90\n        /* \"#utility.yul\":2253:2254   */\n      0x00\n        /* \"#utility.yul\":2242:2251   */\n      dup4\n        /* \"#utility.yul\":2238:2255   */\n      add\n        /* \"#utility.yul\":2229:2235   */\n      dup5\n        /* \"#utility.yul\":2185:2256   */\n      tag_53\n      jump\t// in\n    tag_90:\n        /* \"#utility.yul\":2041:2263   */\n      swap3\n      swap2\n      pop\n      pop\n      jump\t// out\n        /* \"#utility.yul\":2269:2438   */\n    tag_54:\n        /* \"#utility.yul\":2353:2364   */\n      0x00\n        /* \"#utility.yul\":2387:2393   */\n      dup3\n        /* \"#utility.yul\":2382:2385   */\n      dup3\n        /* \"#utility.yul\":2375:2394   */\n      mstore\n        /* \"#utility.yul\":2427:2431   */\n      0x20\n        /* \"#utility.yul\":2422:2425   */\n      dup3\n        /* \"#utility.yul\":2418:2432   */\n      add\n        /* \"#utility.yul\":2403:2432   */\n      swap1\n      pop\n        /* \"#utility.yul\":2269:2438   */\n      swap3\n      swap2\n      pop\n      pop\n      jump\t// out\n        /* \"#utility.yul\":2444:2620   */\n    tag_55:\n        /* \"#utility.yul\":2584:2612   */\n      0x436f6d70616e7920616c72656164792072656769737465726564000000000000\n        /* \"#utility.yul\":2580:2581   */\n      0x00\n        /* \"#utility.yul\":2572:2578   */\n      dup3\n        /* \"#utility.yul\":2568:2582   */\n      add\n        /* \"#utility.yul\":2561:2613   */\n      mstore\n        /* \"#utility.yul\":2444:2620   */\n      pop\n      jump\t// out\n        /* \"#utility.yul\":2626:2992   */\n    tag_56:\n        /* \"#utility.yul\":2768:2771   */\n      0x00\n        /* \"#utility.yul\":2789:2856   */\n      tag_94\n        /* \"#utility.yul\":2853:2855   */\n      0x1a\n        /* \"#utility.yul\":2848:2851   */\n      dup4\n        /* \"#utility.yul\":2789:2856   */\n      tag_54\n      jump\t// in\n    tag_94:\n        /* \"#utility.yul\":2782:2856   */\n      swap2\n      pop\n        /* \"#utility.yul\":2865:2958   */\n      tag_95\n        /* \"#utility.yul\":2954:2957   */\n      dup3\n        /* \"#utility.yul\":2865:2958   */\n      tag_55\n      jump\t// in\n    tag_95:\n        /* \"#utility.yul\":2983:2985   */\n      0x20\n        /* \"#utility.yul\":2978:2981   */\n      dup3\n        /* \"#utility.yul\":2974:2986   */\n      add\n        /* \"#utility.yul\":2967:2986   */\n      swap1\n      pop\n        /* \"#utility.yul\":2626:2992   */\n      swap2\n      swap1\n      pop\n      jump\t// out\n        /* \"#utility.yul\":2998:3417   */\n    tag_31:\n        /* \"#utility.yul\":3164:3168   */\n      0x00\n        /* \"#utility.yul\":3202:3204   */\n      0x20\n        /* \"#utility.yul\":3191:3200   */\n      dup3\n        /* \"#utility.yul\":3187:3205   */\n      add\n        /* \"#utility.yul\":3179:3205   */\n      swap1\n      pop\n        /* \"#utility.yul\":3251:3260   */\n      dup2\n        /* \"#utility.yul\":3245:3249   */\n      dup2\n        /* \"#utility.yul\":3241:3261   */\n      sub\n        /* \"#utility.yul\":3237:3238   */\n      0x00\n        /* \"#utility.yul\":3226:3235   */\n      dup4\n        /* \"#utility.yul\":3222:3239   */\n      add\n        /* \"#utility.yul\":3215:3262   */\n      mstore\n        /* \"#utility.yul\":3279:3410   */\n      tag_97\n        /* \"#utility.yul\":3405:3409   */\n      dup2\n        /* \"#utility.yul\":3279:3410   */\n      tag_56\n      jump\t// in\n    tag_97:\n        /* \"#utility.yul\":3271:3410   */\n      swap1\n      pop\n        /* \"#utility.yul\":2998:3417   */\n      swap2\n      swap1\n      pop\n      jump\t// out\n        /* \"#utility.yul\":3423:3591   */\n    tag_57:\n        /* \"#utility.yul\":3563:3583   */\n      0x4f6e6c792061646d696e20616c6c6f7765640000000000000000000000000000\n        /* \"#utility.yul\":3559:3560   */\n      0x00\n        /* \"#utility.yul\":3551:3557   */\n      dup3\n        /* \"#utility.yul\":3547:3561   */\n      add\n        /* \"#utility.yul\":3540:3584   */\n      mstore\n        /* \"#utility.yul\":3423:3591   */\n      pop\n      jump\t// out\n        /* \"#utility.yul\":3597:3963   */\n    tag_58:\n        /* \"#utility.yul\":3739:3742   */\n      0x00\n        /* \"#utility.yul\":3760:3827   */\n      tag_100\n        /* \"#utility.yul\":3824:3826   */\n      0x12\n        /* \"#utility.yul\":3819:3822   */\n      dup4\n        /* \"#utility.yul\":3760:3827   */\n      tag_54\n      jump\t// in\n    tag_100:\n        /* \"#utility.yul\":3753:3827   */\n      swap2\n      pop\n        /* \"#utility.yul\":3836:3929   */\n      tag_101\n        /* \"#utility.yul\":3925:3928   */\n      dup3\n        /* \"#utility.yul\":3836:3929   */\n      tag_57\n      jump\t// in\n    tag_101:\n        /* \"#utility.yul\":3954:3956   */\n      0x20\n        /* \"#utility.yul\":3949:3952   */\n      dup3\n        /* \"#utility.yul\":3945:3957   */\n      add\n        /* \"#utility.yul\":3938:3957   */\n      swap1\n      pop\n        /* \"#utility.yul\":3597:3963   */\n      swap2\n      swap1\n      pop\n      jump\t// out\n        /* \"#utility.yul\":3969:4388   */\n    tag_36:\n        /* \"#utility.yul\":4135:4139   */\n      0x00\n        /* \"#utility.yul\":4173:4175   */\n      0x20\n        /* \"#utility.yul\":4162:4171   */\n      dup3\n        /* \"#utility.yul\":4158:4176   */\n      add\n        /* \"#utility.yul\":4150:4176   */\n      swap1\n      pop\n        /* \"#utility.yul\":4222:4231   */\n      dup2\n        /* \"#utility.yul\":4216:4220   */\n      dup2\n        /* \"#utility.yul\":4212:4232   */\n      sub\n        /* \"#utility.yul\":4208:4209   */\n      0x00\n        /* \"#utility.yul\":4197:4206   */\n      dup4\n        /* \"#utility.yul\":4193:4210   */\n      add\n        /* \"#utility.yul\":4186:4233   */\n      mstore\n        /* \"#utility.yul\":4250:4381   */\n      tag_103\n        /* \"#utility.yul\":4376:4380   */\n      dup2\n        /* \"#utility.yul\":4250:4381   */\n      tag_58\n      jump\t// in\n    tag_103:\n        /* \"#utility.yul\":4242:4381   */\n      swap1\n      pop\n        /* \"#utility.yul\":3969:4388   */\n      swap2\n      swap1\n      pop\n      jump\t// out\n        /* \"#utility.yul\":4394:4566   */\n    tag_59:\n        /* \"#utility.yul\":4534:4558   */\n      0x436f6d70616e79206e6f74207265676973746572656400000000000000000000\n        /* \"#utility.yul\":4530:4531   */\n      0x00\n        /* \"#utility.yul\":4522:4528   */\n      dup3\n        /* \"#utility.yul\":4518:4532   */\n      add\n        /* \"#utility.yul\":4511:4559   */\n      mstore\n        /* \"#utility.yul\":4394:4566   */\n      pop\n      jump\t// out\n        /* \"#utility.yul\":4572:4938   */\n    tag_60:\n        /* \"#utility.yul\":4714:4717   */\n      0x00\n        /* \"#utility.yul\":4735:4802   */\n      tag_106\n        /* \"#utility.yul\":4799:4801   */\n      0x16\n        /* \"#utility.yul\":4794:4797   */\n      dup4\n        /* \"#utility.yul\":4735:4802   */\n      tag_54\n      jump\t// in\n    tag_106:\n        /* \"#utility.yul\":4728:4802   */\n      swap2\n      pop\n        /* \"#utility.yul\":4811:4904   */\n      tag_107\n        /* \"#utility.yul\":4900:4903   */\n      dup3\n        /* \"#utility.yul\":4811:4904   */\n      tag_59\n      jump\t// in\n    tag_107:\n        /* \"#utility.yul\":4929:4931   */\n      0x20\n        /* \"#utility.yul\":4924:4927   */\n      dup3\n        /* \"#utility.yul\":4920:4932   */\n      add\n        /* \"#utility.yul\":4913:4932   */\n      swap1\n      pop\n        /* \"#utility.yul\":4572:4938   */\n      swap2\n      swap1\n      pop\n      jump\t// out\n        /* \"#utility.yul\":4944:5363   */\n    tag_40:\n        /* \"#utility.yul\":5110:5114   */\n      0x00\n        /* \"#utility.yul\":5148:5150   */\n      0x20\n        /* \"#utility.yul\":5137:5146   */\n      dup3\n        /* \"#utility.yul\":5133:5151   */\n      add\n        /* \"#utility.yul\":5125:5151   */\n      swap1\n      pop\n        /* \"#utility.yul\":5197:5206   */\n      dup2\n        /* \"#utility.yul\":5191:5195   */\n      dup2\n        /* \"#utility.yul\":5187:5207   */\n      sub\n        /* \"#utility.yul\":5183:5184   */\n      0x00\n        /* \"#utility.yul\":5172:5181   */\n      dup4\n        /* \"#utility.yul\":5168:5185   */\n      add\n        /* \"#utility.yul\":5161:5208   */\n      mstore\n        /* \"#utility.yul\":5225:5356   */\n      tag_109\n        /* \"#utility.yul\":5351:5355   */\n      dup2\n        /* \"#utility.yul\":5225:5356   */\n      tag_60\n      jump\t// in\n    tag_109:\n        /* \"#utility.yul\":5217:5356   */\n      swap1\n      pop\n        /* \"#utility.yul\":4944:5363   */\n      swap2\n      swap1\n      pop\n      jump\t// out\n        /* \"#utility.yul\":5369:5543   */\n    tag_61:\n        /* \"#utility.yul\":5509:5535   */\n      0x436f6d70616e7920616c72656164792076657269666965640000000000000000\n        /* \"#utility.yul\":5505:5506   */\n      0x00\n        /* \"#utility.yul\":5497:5503   */\n      dup3\n        /* \"#utility.yul\":5493:5507   */\n      add\n        /* \"#utility.yul\":5486:5536   */\n      mstore\n        /* \"#utility.yul\":5369:5543   */\n      pop\n      jump\t// out\n        /* \"#utility.yul\":5549:5915   */\n    tag_62:\n        /* \"#utility.yul\":5691:5694   */\n      0x00\n        /* \"#utility.yul\":5712:5779   */\n      tag_112\n        /* \"#utility.yul\":5776:5778   */\n      0x18\n        /* \"#utility.yul\":5771:5774   */\n      dup4\n        /* \"#utility.yul\":5712:5779   */\n      tag_54\n      jump\t// in\n    tag_112:\n        /* \"#utility.yul\":5705:5779   */\n      swap2\n      pop\n        /* \"#utility.yul\":5788:5881   */\n      tag_113\n        /* \"#utility.yul\":5877:5880   */\n      dup3\n        /* \"#utility.yul\":5788:5881   */\n      tag_61\n      jump\t// in\n    tag_113:\n        /* \"#utility.yul\":5906:5908   */\n      0x20\n        /* \"#utility.yul\":5901:5904   */\n      dup3\n        /* \"#utility.yul\":5897:5909   */\n      add\n        /* \"#utility.yul\":5890:5909   */\n      swap1\n      pop\n        /* \"#utility.yul\":5549:5915   */\n      swap2\n      swap1\n      pop\n      jump\t// out\n        /* \"#utility.yul\":5921:6340   */\n    tag_43:\n        /* \"#utility.yul\":6087:6091   */\n      0x00\n        /* \"#utility.yul\":6125:6127   */\n      0x20\n        /* \"#utility.yul\":6114:6123   */\n      dup3\n        /* \"#utility.yul\":6110:6128   */\n      add\n        /* \"#utility.yul\":6102:6128   */\n      swap1\n      pop\n        /* \"#utility.yul\":6174:6183   */\n      dup2\n        /* \"#utility.yul\":6168:6172   */\n      dup2\n        /* \"#utility.yul\":6164:6184   */\n      sub\n        /* \"#utility.yul\":6160:6161   */\n      0x00\n        /* \"#utility.yul\":6149:6158   */\n      dup4\n        /* \"#utility.yul\":6145:6162   */\n      add\n        /* \"#utility.yul\":6138:6185   */\n      mstore\n        /* \"#utility.yul\":6202:6333   */\n      tag_115\n        /* \"#utility.yul\":6328:6332   */\n      dup2\n        /* \"#utility.yul\":6202:6333   */\n      tag_62\n      jump\t// in\n    tag_115:\n        /* \"#utility.yul\":6194:6333   */\n      swap1\n      pop\n        /* \"#utility.yul\":5921:6340   */\n      swap2\n      swap1\n      pop\n      jump\t// out\n\n    auxdata: 0xa2646970667358221220bd74674fc2c26cbf0333862804a263b794c2bf7c28a9577a69bc7022603ffd3b64736f6c634300081f0033\n}\n",
				"bytecode": {
					"linkReferences": {},
					"object": "6080604052348015600e575f5ffd5b50335f5f6101000a81548173ffffffffffffffffffffffffffffffffffffffff021916908373ffffffffffffffffffffffffffffffffffffffff16021790555061084a8061005b5f395ff3fe608060405234801561000f575f5ffd5b5060043610610055575f3560e01c8063355e6ce8146100595780637cad11071461008a578063bfc2defd14610094578063f592146d146100c4578063f851a440146100e0575b5f5ffd5b610073600480360381019061006e91906105b7565b6100fe565b6040516100819291906105fc565b60405180910390f35b610092610136565b005b6100ae60048036038101906100a991906105b7565b61029d565b6040516100bb9190610623565b60405180910390f35b6100de60048036038101906100d991906105b7565b6102f2565b005b6100e8610535565b6040516100f5919061064b565b60405180910390f35b6001602052805f5260405f205f91509050805f015f9054906101000a900460ff1690805f0160019054906101000a900460ff16905082565b60015f3373ffffffffffffffffffffffffffffffffffffffff1673ffffffffffffffffffffffffffffffffffffffff1681526020019081526020015f205f015f9054906101000a900460ff16156101c2576040517f08c379a00000000000000000000000000000000000000000000000000000000081526004016101b9906106be565b60405180910390fd5b60405180604001604052806001151581526020015f151581525060015f3373ffffffffffffffffffffffffffffffffffffffff1673ffffffffffffffffffffffffffffffffffffffff1681526020019081526020015f205f820151815f015f6101000a81548160ff0219169083151502179055506020820151815f0160016101000a81548160ff0219169083151502179055509050503373ffffffffffffffffffffffffffffffffffffffff167f62806c829f7c8d0f1563dbdcf4f05f12a6b3c0e29ab581b0ccdffd608e99393860405160405180910390a2565b5f60015f8373ffffffffffffffffffffffffffffffffffffffff1673ffffffffffffffffffffffffffffffffffffffff1681526020019081526020015f205f0160019054906101000a900460ff169050919050565b5f5f9054906101000a900473ffffffffffffffffffffffffffffffffffffffff1673ffffffffffffffffffffffffffffffffffffffff163373ffffffffffffffffffffffffffffffffffffffff1614610380576040517f08c379a000000000000000000000000000000000000000000000000000000000815260040161037790610726565b60405180910390fd5b60015f8273ffffffffffffffffffffffffffffffffffffffff1673ffffffffffffffffffffffffffffffffffffffff1681526020019081526020015f205f015f9054906101000a900460ff1661040b576040517f08c379a00000000000000000000000000000000000000000000000000000000081526004016104029061078e565b60405180910390fd5b60015f8273ffffffffffffffffffffffffffffffffffffffff1673ffffffffffffffffffffffffffffffffffffffff1681526020019081526020015f205f0160019054906101000a900460ff1615610498576040517f08c379a000000000000000000000000000000000000000000000000000000000815260040161048f906107f6565b60405180910390fd5b6001805f8373ffffffffffffffffffffffffffffffffffffffff1673ffffffffffffffffffffffffffffffffffffffff1681526020019081526020015f205f0160016101000a81548160ff0219169083151502179055508073ffffffffffffffffffffffffffffffffffffffff167f72d95b5ce3143d0ea8146e1d68ee36cc9a2996cefe06712c98f4b59041583f1160405160405180910390a250565b5f5f9054906101000a900473ffffffffffffffffffffffffffffffffffffffff1681565b5f5ffd5b5f73ffffffffffffffffffffffffffffffffffffffff82169050919050565b5f6105868261055d565b9050919050565b6105968161057c565b81146105a0575f5ffd5b50565b5f813590506105b18161058d565b92915050565b5f602082840312156105cc576105cb610559565b5b5f6105d9848285016105a3565b91505092915050565b5f8115159050919050565b6105f6816105e2565b82525050565b5f60408201905061060f5f8301856105ed565b61061c60208301846105ed565b9392505050565b5f6020820190506106365f8301846105ed565b92915050565b6106458161057c565b82525050565b5f60208201905061065e5f83018461063c565b92915050565b5f82825260208201905092915050565b7f436f6d70616e7920616c726561647920726567697374657265640000000000005f82015250565b5f6106a8601a83610664565b91506106b382610674565b602082019050919050565b5f6020820190508181035f8301526106d58161069c565b9050919050565b7f4f6e6c792061646d696e20616c6c6f77656400000000000000000000000000005f82015250565b5f610710601283610664565b915061071b826106dc565b602082019050919050565b5f6020820190508181035f83015261073d81610704565b9050919050565b7f436f6d70616e79206e6f742072656769737465726564000000000000000000005f82015250565b5f610778601683610664565b915061078382610744565b602082019050919050565b5f6020820190508181035f8301526107a58161076c565b9050919050565b7f436f6d70616e7920616c726561647920766572696669656400000000000000005f82015250565b5f6107e0601883610664565b91506107eb826107ac565b602082019050919050565b5f6020820190508181035f83015261080d816107d4565b905091905056fea2646970667358221220bd74674fc2c26cbf0333862804a263b794c2bf7c28a9577a69bc7022603ffd3b64736f6c634300081f0033",
					"opcodes": "PUSH1 0x80 PUSH1 0x40 MSTORE CALLVALUE DUP1 ISZERO PUSH1 0xE JUMPI PUSH0 PUSH0 REVERT JUMPDEST POP CALLER PUSH0 PUSH0 PUSH2 0x100 EXP DUP2 SLOAD DUP2 PUSH20 0xFFFFFFFFFFFFFFFFFFFFFFFFFFFFFFFFFFFFFFFF MUL NOT AND SWAP1 DUP4 PUSH20 0xFFFFFFFFFFFFFFFFFFFFFFFFFFFFFFFFFFFFFFFF AND MUL OR SWAP1 SSTORE POP PUSH2 0x84A DUP1 PUSH2 0x5B PUSH0 CODECOPY PUSH0 RETURN INVALID PUSH1 0x80 PUSH1 0x40 MSTORE CALLVALUE DUP1 ISZERO PUSH2 0xF JUMPI PUSH0 PUSH0 REVERT JUMPDEST POP PUSH1 0x4 CALLDATASIZE LT PUSH2 0x55 JUMPI PUSH0 CALLDATALOAD PUSH1 0xE0 SHR DUP1 PUSH4 0x355E6CE8 EQ PUSH2 0x59 JUMPI DUP1 PUSH4 0x7CAD1107 EQ PUSH2 0x8A JUMPI DUP1 PUSH4 0xBFC2DEFD EQ PUSH2 0x94 JUMPI DUP1 PUSH4 0xF592146D EQ PUSH2 0xC4 JUMPI DUP1 PUSH4 0xF851A440 EQ PUSH2 0xE0 JUMPI JUMPDEST PUSH0 PUSH0 REVERT JUMPDEST PUSH2 0x73 PUSH1 0x4 DUP1 CALLDATASIZE SUB DUP2 ADD SWAP1 PUSH2 0x6E SWAP2 SWAP1 PUSH2 0x5B7 JUMP JUMPDEST PUSH2 0xFE JUMP JUMPDEST PUSH1 0x40 MLOAD PUSH2 0x81 SWAP3 SWAP2 SWAP1 PUSH2 0x5FC JUMP JUMPDEST PUSH1 0x40 MLOAD DUP1 SWAP2 SUB SWAP1 RETURN JUMPDEST PUSH2 0x92 PUSH2 0x136 JUMP JUMPDEST STOP JUMPDEST PUSH2 0xAE PUSH1 0x4 DUP1 CALLDATASIZE SUB DUP2 ADD SWAP1 PUSH2 0xA9 SWAP2 SWAP1 PUSH2 0x5B7 JUMP JUMPDEST PUSH2 0x29D JUMP JUMPDEST PUSH1 0x40 MLOAD PUSH2 0xBB SWAP2 SWAP1 PUSH2 0x623 JUMP JUMPDEST PUSH1 0x40 MLOAD DUP1 SWAP2 SUB SWAP1 RETURN JUMPDEST PUSH2 0xDE PUSH1 0x4 DUP1 CALLDATASIZE SUB DUP2 ADD SWAP1 PUSH2 0xD9 SWAP2 SWAP1 PUSH2 0x5B7 JUMP JUMPDEST PUSH2 0x2F2 JUMP JUMPDEST STOP JUMPDEST PUSH2 0xE8 PUSH2 0x535 JUMP JUMPDEST PUSH1 0x40 MLOAD PUSH2 0xF5 SWAP2 SWAP1 PUSH2 0x64B JUMP JUMPDEST PUSH1 0x40 MLOAD DUP1 SWAP2 SUB SWAP1 RETURN JUMPDEST PUSH1 0x1 PUSH1 0x20 MSTORE DUP1 PUSH0 MSTORE PUSH1 0x40 PUSH0 KECCAK256 PUSH0 SWAP2 POP SWAP1 POP DUP1 PUSH0 ADD PUSH0 SWAP1 SLOAD SWAP1 PUSH2 0x100 EXP SWAP1 DIV PUSH1 0xFF AND SWAP1 DUP1 PUSH0 ADD PUSH1 0x1 SWAP1 SLOAD SWAP1 PUSH2 0x100 EXP SWAP1 DIV PUSH1 0xFF AND SWAP1 POP DUP3 JUMP JUMPDEST PUSH1 0x1 PUSH0 CALLER PUSH20 0xFFFFFFFFFFFFFFFFFFFFFFFFFFFFFFFFFFFFFFFF AND PUSH20 0xFFFFFFFFFFFFFFFFFFFFFFFFFFFFFFFFFFFFFFFF AND DUP2 MSTORE PUSH1 0x20 ADD SWAP1 DUP2 MSTORE PUSH1 0x20 ADD PUSH0 KECCAK256 PUSH0 ADD PUSH0 SWAP1 SLOAD SWAP1 PUSH2 0x100 EXP SWAP1 DIV PUSH1 0xFF AND ISZERO PUSH2 0x1C2 JUMPI PUSH1 0x40 MLOAD PUSH32 0x8C379A000000000000000000000000000000000000000000000000000000000 DUP2 MSTORE PUSH1 0x4 ADD PUSH2 0x1B9 SWAP1 PUSH2 0x6BE JUMP JUMPDEST PUSH1 0x40 MLOAD DUP1 SWAP2 SUB SWAP1 REVERT JUMPDEST PUSH1 0x40 MLOAD DUP1 PUSH1 0x40 ADD PUSH1 0x40 MSTORE DUP1 PUSH1 0x1 ISZERO ISZERO DUP2 MSTORE PUSH1 0x20 ADD PUSH0 ISZERO ISZERO DUP2 MSTORE POP PUSH1 0x1 PUSH0 CALLER PUSH20 0xFFFFFFFFFFFFFFFFFFFFFFFFFFFFFFFFFFFFFFFF AND PUSH20 0xFFFFFFFFFFFFFFFFFFFFFFFFFFFFFFFFFFFFFFFF AND DUP2 MSTORE PUSH1 0x20 ADD SWAP1 DUP2 MSTORE PUSH1 0x20 ADD PUSH0 KECCAK256 PUSH0 DUP3 ADD MLOAD DUP2 PUSH0 ADD PUSH0 PUSH2 0x100 EXP DUP2 SLOAD DUP2 PUSH1 0xFF MUL NOT AND SWAP1 DUP4 ISZERO ISZERO MUL OR SWAP1 SSTORE POP PUSH1 0x20 DUP3 ADD MLOAD DUP2 PUSH0 ADD PUSH1 0x1 PUSH2 0x100 EXP DUP2 SLOAD DUP2 PUSH1 0xFF MUL NOT AND SWAP1 DUP4 ISZERO ISZERO MUL OR SWAP1 SSTORE POP SWAP1 POP POP CALLER PUSH20 0xFFFFFFFFFFFFFFFFFFFFFFFFFFFFFFFFFFFFFFFF AND PUSH32 0x62806C829F7C8D0F1563DBDCF4F05F12A6B3C0E29AB581B0CCDFFD608E993938 PUSH1 0x40 MLOAD PUSH1 0x40 MLOAD DUP1 SWAP2 SUB SWAP1 LOG2 JUMP JUMPDEST PUSH0 PUSH1 0x1 PUSH0 DUP4 PUSH20 0xFFFFFFFFFFFFFFFFFFFFFFFFFFFFFFFFFFFFFFFF AND PUSH20 0xFFFFFFFFFFFFFFFFFFFFFFFFFFFFFFFFFFFFFFFF AND DUP2 MSTORE PUSH1 0x20 ADD SWAP1 DUP2 MSTORE PUSH1 0x20 ADD PUSH0 KECCAK256 PUSH0 ADD PUSH1 0x1 SWAP1 SLOAD SWAP1 PUSH2 0x100 EXP SWAP1 DIV PUSH1 0xFF AND SWAP1 POP SWAP2 SWAP1 POP JUMP JUMPDEST PUSH0 PUSH0 SWAP1 SLOAD SWAP1 PUSH2 0x100 EXP SWAP1 DIV PUSH20 0xFFFFFFFFFFFFFFFFFFFFFFFFFFFFFFFFFFFFFFFF AND PUSH20 0xFFFFFFFFFFFFFFFFFFFFFFFFFFFFFFFFFFFFFFFF AND CALLER PUSH20 0xFFFFFFFFFFFFFFFFFFFFFFFFFFFFFFFFFFFFFFFF AND EQ PUSH2 0x380 JUMPI PUSH1 0x40 MLOAD PUSH32 0x8C379A000000000000000000000000000000000000000000000000000000000 DUP2 MSTORE PUSH1 0x4 ADD PUSH2 0x377 SWAP1 PUSH2 0x726 JUMP JUMPDEST PUSH1 0x40 MLOAD DUP1 SWAP2 SUB SWAP1 REVERT JUMPDEST PUSH1 0x1 PUSH0 DUP3 PUSH20 0xFFFFFFFFFFFFFFFFFFFFFFFFFFFFFFFFFFFFFFFF AND PUSH20 0xFFFFFFFFFFFFFFFFFFFFFFFFFFFFFFFFFFFFFFFF AND DUP2 MSTORE PUSH1 0x20 ADD SWAP1 DUP2 MSTORE PUSH1 0x20 ADD PUSH0 KECCAK256 PUSH0 ADD PUSH0 SWAP1 SLOAD SWAP1 PUSH2 0x100 EXP SWAP1 DIV PUSH1 0xFF AND PUSH2 0x40B JUMPI PUSH1 0x40 MLOAD PUSH32 0x8C379A000000000000000000000000000000000000000000000000000000000 DUP2 MSTORE PUSH1 0x4 ADD PUSH2 0x402 SWAP1 PUSH2 0x78E JUMP JUMPDEST PUSH1 0x40 MLOAD DUP1 SWAP2 SUB SWAP1 REVERT JUMPDEST PUSH1 0x1 PUSH0 DUP3 PUSH20 0xFFFFFFFFFFFFFFFFFFFFFFFFFFFFFFFFFFFFFFFF AND PUSH20 0xFFFFFFFFFFFFFFFFFFFFFFFFFFFFFFFFFFFFFFFF AND DUP2 MSTORE PUSH1 0x20 ADD SWAP1 DUP2 MSTORE PUSH1 0x20 ADD PUSH0 KECCAK256 PUSH0 ADD PUSH1 0x1 SWAP1 SLOAD SWAP1 PUSH2 0x100 EXP SWAP1 DIV PUSH1 0xFF AND ISZERO PUSH2 0x498 JUMPI PUSH1 0x40 MLOAD PUSH32 0x8C379A000000000000000000000000000000000000000000000000000000000 DUP2 MSTORE PUSH1 0x4 ADD PUSH2 0x48F SWAP1 PUSH2 0x7F6 JUMP JUMPDEST PUSH1 0x40 MLOAD DUP1 SWAP2 SUB SWAP1 REVERT JUMPDEST PUSH1 0x1 DUP1 PUSH0 DUP4 PUSH20 0xFFFFFFFFFFFFFFFFFFFFFFFFFFFFFFFFFFFFFFFF AND PUSH20 0xFFFFFFFFFFFFFFFFFFFFFFFFFFFFFFFFFFFFFFFF AND DUP2 MSTORE PUSH1 0x20 ADD SWAP1 DUP2 MSTORE PUSH1 0x20 ADD PUSH0 KECCAK256 PUSH0 ADD PUSH1 0x1 PUSH2 0x100 EXP DUP2 SLOAD DUP2 PUSH1 0xFF MUL NOT AND SWAP1 DUP4 ISZERO ISZERO MUL OR SWAP1 SSTORE POP DUP1 PUSH20 0xFFFFFFFFFFFFFFFFFFFFFFFFFFFFFFFFFFFFFFFF AND PUSH32 0x72D95B5CE3143D0EA8146E1D68EE36CC9A2996CEFE06712C98F4B59041583F11 PUSH1 0x40 MLOAD PUSH1 0x40 MLOAD DUP1 SWAP2 SUB SWAP1 LOG2 POP JUMP JUMPDEST PUSH0 PUSH0 SWAP1 SLOAD SWAP1 PUSH2 0x100 EXP SWAP1 DIV PUSH20 0xFFFFFFFFFFFFFFFFFFFFFFFFFFFFFFFFFFFFFFFF AND DUP2 JUMP JUMPDEST PUSH0 PUSH0 REVERT JUMPDEST PUSH0 PUSH20 0xFFFFFFFFFFFFFFFFFFFFFFFFFFFFFFFFFFFFFFFF DUP3 AND SWAP1 POP SWAP2 SWAP1 POP JUMP JUMPDEST PUSH0 PUSH2 0x586 DUP3 PUSH2 0x55D JUMP JUMPDEST SWAP1 POP SWAP2 SWAP1 POP JUMP JUMPDEST PUSH2 0x596 DUP2 PUSH2 0x57C JUMP JUMPDEST DUP2 EQ PUSH2 0x5A0 JUMPI PUSH0 PUSH0 REVERT JUMPDEST POP JUMP JUMPDEST PUSH0 DUP2 CALLDATALOAD SWAP1 POP PUSH2 0x5B1 DUP2 PUSH2 0x58D JUMP JUMPDEST SWAP3 SWAP2 POP POP JUMP JUMPDEST PUSH0 PUSH1 0x20 DUP3 DUP5 SUB SLT ISZERO PUSH2 0x5CC JUMPI PUSH2 0x5CB PUSH2 0x559 JUMP JUMPDEST JUMPDEST PUSH0 PUSH2 0x5D9 DUP5 DUP3 DUP6 ADD PUSH2 0x5A3 JUMP JUMPDEST SWAP2 POP POP SWAP3 SWAP2 POP POP JUMP JUMPDEST PUSH0 DUP2 ISZERO ISZERO SWAP1 POP SWAP2 SWAP1 POP JUMP JUMPDEST PUSH2 0x5F6 DUP2 PUSH2 0x5E2 JUMP JUMPDEST DUP3 MSTORE POP POP JUMP JUMPDEST PUSH0 PUSH1 0x40 DUP3 ADD SWAP1 POP PUSH2 0x60F PUSH0 DUP4 ADD DUP6 PUSH2 0x5ED JUMP JUMPDEST PUSH2 0x61C PUSH1 0x20 DUP4 ADD DUP5 PUSH2 0x5ED JUMP JUMPDEST SWAP4 SWAP3 POP POP POP JUMP JUMPDEST PUSH0 PUSH1 0x20 DUP3 ADD SWAP1 POP PUSH2 0x636 PUSH0 DUP4 ADD DUP5 PUSH2 0x5ED JUMP JUMPDEST SWAP3 SWAP2 POP POP JUMP JUMPDEST PUSH2 0x645 DUP2 PUSH2 0x57C JUMP JUMPDEST DUP3 MSTORE POP POP JUMP JUMPDEST PUSH0 PUSH1 0x20 DUP3 ADD SWAP1 POP PUSH2 0x65E PUSH0 DUP4 ADD DUP5 PUSH2 0x63C JUMP JUMPDEST SWAP3 SWAP2 POP POP JUMP JUMPDEST PUSH0 DUP3 DUP3 MSTORE PUSH1 0x20 DUP3 ADD SWAP1 POP SWAP3 SWAP2 POP POP JUMP JUMPDEST PUSH32 0x436F6D70616E7920616C72656164792072656769737465726564000000000000 PUSH0 DUP3 ADD MSTORE POP JUMP JUMPDEST PUSH0 PUSH2 0x6A8 PUSH1 0x1A DUP4 PUSH2 0x664 JUMP JUMPDEST SWAP2 POP PUSH2 0x6B3 DUP3 PUSH2 0x674 JUMP JUMPDEST PUSH1 0x20 DUP3 ADD SWAP1 POP SWAP2 SWAP1 POP JUMP JUMPDEST PUSH0 PUSH1 0x20 DUP3 ADD SWAP1 POP DUP2 DUP2 SUB PUSH0 DUP4 ADD MSTORE PUSH2 0x6D5 DUP2 PUSH2 0x69C JUMP JUMPDEST SWAP1 POP SWAP2 SWAP1 POP JUMP JUMPDEST PUSH32 0x4F6E6C792061646D696E20616C6C6F7765640000000000000000000000000000 PUSH0 DUP3 ADD MSTORE POP JUMP JUMPDEST PUSH0 PUSH2 0x710 PUSH1 0x12 DUP4 PUSH2 0x664 JUMP JUMPDEST SWAP2 POP PUSH2 0x71B DUP3 PUSH2 0x6DC JUMP JUMPDEST PUSH1 0x20 DUP3 ADD SWAP1 POP SWAP2 SWAP1 POP JUMP JUMPDEST PUSH0 PUSH1 0x20 DUP3 ADD SWAP1 POP DUP2 DUP2 SUB PUSH0 DUP4 ADD MSTORE PUSH2 0x73D DUP2 PUSH2 0x704 JUMP JUMPDEST SWAP1 POP SWAP2 SWAP1 POP JUMP JUMPDEST PUSH32 0x436F6D70616E79206E6F74207265676973746572656400000000000000000000 PUSH0 DUP3 ADD MSTORE POP JUMP JUMPDEST PUSH0 PUSH2 0x778 PUSH1 0x16 DUP4 PUSH2 0x664 JUMP JUMPDEST SWAP2 POP PUSH2 0x783 DUP3 PUSH2 0x744 JUMP JUMPDEST PUSH1 0x20 DUP3 ADD SWAP1 POP SWAP2 SWAP1 POP JUMP JUMPDEST PUSH0 PUSH1 0x20 DUP3 ADD SWAP1 POP DUP2 DUP2 SUB PUSH0 DUP4 ADD MSTORE PUSH2 0x7A5 DUP2 PUSH2 0x76C JUMP JUMPDEST SWAP1 POP SWAP2 SWAP1 POP JUMP JUMPDEST PUSH32 0x436F6D70616E7920616C72656164792076657269666965640000000000000000 PUSH0 DUP3 ADD MSTORE POP JUMP JUMPDEST PUSH0 PUSH2 0x7E0 PUSH1 0x18 DUP4 PUSH2 0x664 JUMP JUMPDEST SWAP2 POP PUSH2 0x7EB DUP3 PUSH2 0x7AC JUMP JUMPDEST PUSH1 0x20 DUP3 ADD SWAP1 POP SWAP2 SWAP1 POP JUMP JUMPDEST PUSH0 PUSH1 0x20 DUP3 ADD SWAP1 POP DUP2 DUP2 SUB PUSH0 DUP4 ADD MSTORE PUSH2 0x80D DUP2 PUSH2 0x7D4 JUMP JUMPDEST SWAP1 POP SWAP2 SWAP1 POP JUMP INVALID LOG2 PUSH5 0x6970667358 0x22 SLT KECCAK256 0xBD PUSH21 0x674FC2C26CBF0333862804A263B794C2BF7C28A957 PUSH27 0x69BC7022603FFD3B64736F6C634300081F00330000000000000000 "
				},
				"gasEstimates": {
					"creation": {
						"codeDepositCost": "424400",
						"executionCost": "24723",
						"totalCost": "449123"
					},
					"external": {
						"admin()": "2573",
						"companies(address)": "infinite",
						"isCompanyVerified(address)": "2948",
						"registerCompany()": "52327",
						"verifyCompany(address)": "32776"
					}
				},
				"methodIdentifiers": {
					"admin()": "f851a440",
					"companies(address)": "355e6ce8",
					"isCompanyVerified(address)": "bfc2defd",
					"registerCompany()": "7cad1107",
					"verifyCompany(address)": "f592146d"
				}
			},
			"storageLayout": {
				"storage": [
					{
						"astId": 3,
						"contract": ".git/CompanyRegistry.sol:CompanyRegistry",
						"label": "admin",
						"offset": 0,
						"slot": "0",
						"type": "t_address"
					},
					{
						"astId": 13,
						"contract": ".git/CompanyRegistry.sol:CompanyRegistry",
						"label": "companies",
						"offset": 0,
						"slot": "1",
						"type": "t_mapping(t_address,t_struct(Company)8_storage)"
					}
				],
				"types": {
					"t_address": {
						"encoding": "inplace",
						"label": "address",
						"numberOfBytes": "20"
					},
					"t_bool": {
						"encoding": "inplace",
						"label": "bool",
						"numberOfBytes": "1"
					},
					"t_mapping(t_address,t_struct(Company)8_storage)": {
						"encoding": "mapping",
						"key": "t_address",
						"label": "mapping(address => struct CompanyRegistry.Company)",
						"numberOfBytes": "32",
						"value": "t_struct(Company)8_storage"
					},
					"t_struct(Company)8_storage": {
						"encoding": "inplace",
						"label": "struct CompanyRegistry.Company",
						"members": [
							{
								"astId": 5,
								"contract": ".git/CompanyRegistry.sol:CompanyRegistry",
								"label": "isRegistered",
								"offset": 0,
								"slot": "0",
								"type": "t_bool"
							},
							{
								"astId": 7,
								"contract": ".git/CompanyRegistry.sol:CompanyRegistry",
								"label": "isVerified",
								"offset": 1,
								"slot": "0",
								"type": "t_bool"
							}
						],
						"numberOfBytes": "32"
					}
				}
			},
			"userdoc": {
				"kind": "user",
				"methods": {},
				"version": 1
			}
		}
	}
}